:100000000C9475010C949D010C949D010C949D0120
:100010000C949D010C949D010C949D010C949D01E8
:100020000C949D010C949D010C94360B0C94F004DF
:100030000C949D010C949D010C949D010C949D01C8
:100040000C949D010C949D010C949D010C949D01B8
:100050000C949D010C949D010C949D010C94080836
:100060000C949D010C9458030C9432030C949D0144
:100070000C949D010C949D010C949D010C949D0188
:100080000C949D010C949D010C949D010C949D0178
:100090000C949D010C949D010C949D010C949D0168
:1000A0000C949D010C949D010C949D01720F770F8F
:1000B0007C0F860F900FDA0FDA0FDA0F9A0FA40F6A
:1000C000AE0FB80FC50FDA0FCD0F59075C074B07FE
:1000D0004F0753077D077D077D07600764076807A3
:1000E0006E0772077D07780700407A10F35A00A068
:1000F000724E18090010A5D4E80000E876481700F1
:1001000000E40B54020000CA9A3B000000E1F50530
:10011000000080969800000040420F000000A0867A
:1001200001000000102700000000E80300000000AC
:100130006400000000000A00000000000100000050
:1001400000002C76D888DC674F0823DFC1DFAE596A
:10015000E1B1B796E5E3E453C63AE651997696E8FD
:10016000E6C28426EB898C9B62ED407C6FFCEFBC81
:100170009C9F40F2BAA56FA5F490055A2AF75C93AC
:100180006B6CF9676DC11BFCE0E40D47FEF520E6E2
:10019000B500D0ED902E0300943577050080841EC5
:1001A000080000204E0A000000C80C333333330F20
:1001B000986E12831141EF8D2114893BE65516CFBD
:1001C000FEE6DB18D1844B381BF77C1D901DA4BBC9
:1001D000E424203284725E228100C9F124ECA1E57E
:1001E0003D2772756E2D6272696467650A000A00A8
:1001F0000A00070605040100080A0B0C0D0900009F
:100200000000240027002A002D003000000000001C
:10021000250028002B002E003100040404040403F0
:100220000405020202020403020202020606060696
:1002300006060404020202040404080201104080BD
:1002400040102040804080080204018040201002BD
:1002500001108010204040200000000200090F0023
:1002600000030401000C000000000000000000007A
:1002700000000000000000080B000202020100095B
:100280000400000102020000052400100105240101
:10029000010104240206052406000107058103105C
:1002A000004009040100020A0000000705020240A4
:1002B0000000070583024000000403090412010046
:1002C00002EF02014041234180000101020301418C
:1002D000726475696E6F204C4C430041726475699D
:1002E0006E6F2059756E0000751011241FBECFEF80
:1002F000DAE0DEBFCDBF22E0A0E5B1E001C01D9293
:10030000A739B207E1F711E0A0E0B1E0E0E6FFE2D3
:1003100002C005900D92A035B107D9F711E0C5E7ED
:10032000D1E004C02197FE010E94AC15C437D1076B
:10033000C9F70E94A80B0C94AE170C940000CF9242
:10034000DF92EF92FF920F931F93CF93DF936C0195
:100350007A018B01C0E0D0E0CE15DF0581F0D80135
:100360006D918D01D601ED91FC910190F081E02D10
:10037000C6010995892B11F02196EECF7E01C701A8
:10038000DF91CF911F910F91FF90EF90DF90CF9071
:100390000895089580E090E00895FC01538D448D08
:1003A000252F30E0842F90E0821B930B541710F020
:1003B000CF96089501970895FC01918D828D98172D
:1003C00061F0828DDF01A80FB11D5D968C91928D39
:1003D0009F5F9F73928F90E008958FEF9FEF089536
:1003E000FC01918D828D981731F0828DE80FF11DFF
:1003F000858D90E008958FEF9FEF0895FC01918D1A
:10040000228D892F90E0805C9F4F821B91098F7312
:10041000992708958EE891E00E94FE0121E0892B42
:1004200009F420E0822F0895FC01848DDF01A80FDC
:10043000B11DA35ABF4F2C91848D90E001968F730C
:100440009927848FA689B7892C93A089B1898C912B
:1004500082748C93938D848D981306C00288F389DF
:10046000E02D80818F7D80830895EF92FF920F931E
:100470001F93CF93DF93EC0181E0888F9B8D8C8D50
:10048000981305C0E889F989808185FD26C0F62E7C
:100490000B8D10E00F5F1F4F0F731127E02E8C8D17
:1004A000E8120CC00FB607FCFACFE889F989808101
:1004B00085FFF5CFCE010E941402F1CF8B8DFE0196
:1004C000E80FF11DE35AFF4FF0829FB7F8940B8FAE
:1004D000EA89FB898081806209C09FB7F894EE8920
:1004E000FF896083E889F9898081827480839FBF56
:1004F00081E090E0DF91CF911F910F91FF90EF90FD
:100500000895CF93DF93EC01888D8823C9F0EA89A1
:10051000FB89808185FD05C0A889B9898C9186FDFC
:100520000FC00FB607FCF5CF808185FFF2CFA889F9
:10053000B9898C9185FFEDCFCE010E941402E7CFDF
:10054000DF91CF91089580E090E0892B29F00E94FF
:100550000A0281110C94000008950E9499170F93CC
:100560001F93CF93DF93EC0188819981009729F045
:100570002A813B812617370788F48B016F5F7F4FF5
:100580000E94D316009761F0998388831B830A83A6
:100590002C813D81232B11F4FC01108281E001C0EC
:1005A00080E0DF91CF911F910F910895EF92FF921C
:1005B0000F931F93CF93DF936115710511F480E0C2
:1005C0001FC0FB0101900020E9F73197E61BF70BF4
:1005D000B1F07B01EC010C811D810E0F1F1FB801D2
:1005E0000E94AF02882359F3288139818C819D8133
:1005F000B701820F931F0E94A7171D830C8381E010
:10060000DF91CF911F910F91FF90EF900895EF929E
:10061000FF920F931F93CF93DF93EC017B018A012D
:10062000BA010E94AF022881398181110DC02115C4
:10063000310519F0C9010E944A16198218821D82DB
:100640001C821B821A8206C01D830C83B701C9015C
:100650000E94A717CE01DF91CF911F910F91FF90BC
:10066000EF9008951F920F920FB60F9211242F93BF
:100670003F934F935F936F937F938F939F93AF932A
:10068000BF93EF93FF938EE891E00E941402FF91D5
:10069000EF91BF91AF919F918F917F916F915F91FA
:1006A0004F913F912F910F900FBE0F901F90189573
:1006B0001F920F920FB60F9211242F938F939F9337
:1006C000EF93FF93E0919E01F0919F018081E09173
:1006D000A401F091A50182FD12C090818091A70133
:1006E0008F5F8F732091A801821751F0E091A701CD
:1006F000F0E0E257FE4F958F8093A70101C0808103
:10070000FF91EF919F918F912F910F900FBE0F90BE
:100710001F901895CF93DF93EC018D819E81DC01B2
:10072000ED91FC910084F185E02D099518161906CC
:1007300054F48D819E81DC01ED91FC910284F3855E
:10074000E02D0995EACFDF91CF9108958F929F9286
:10075000AF92BF92CF92DF92EF92FF92CF93DF934F
:10076000EC018FB7F89480907C0190907D01A0906F
:100770007E01B0907F018FBF6B01E12CF12C8D8148
:100780009E81DC01ED91FC910284F385E02D0995B9
:1007900097FF16C02FB7F89480917C0190917D014E
:1007A000A0917E01B0917F012FBF88199909AA09F4
:1007B000BB098C159D05AE05BF0508F38FEF9FEFB4
:1007C000DF91CF91FF90EF90DF90CF90BF90AF90EF
:1007D0009F908F900895FC01238134812627022E5B
:1007E0002295207F2025032E322F22952F7002265E
:1007F000269532272327220F220F220F202534830C
:1008000023830895409188015091890120918601A8
:100810003091870142175307B4F49091E800957026
:10082000E1F39091E80092FD19C08093F10080916E
:1008300088019091890101968F739927892B19F46A
:100840008EEF8093E8008091880190918901019654
:10085000909389018093880181E0089580E0089554
:10086000DF92EF92FF920F931F93CF93DF93D82ED7
:10087000F92EE42E062F10E0C8010196880F0E9481
:10088000020483E00E940204CD2DDF2D0C0F1D1FFA
:10089000C017D10789F0E7FE03C0FE01849101C0B3
:1008A00088810E940204F82E80E00E9402048F21B9
:1008B00021968111EDCF01C081E0DF91CF911F9191
:1008C0000F91FF90EF90DF900895DF92EF92FF92EB
:1008D0000F931F93CF93DF93D82E8A017B01E40EF1
:1008E000F51EEB01CE15DF0571F0D7FE03C0FE014A
:1008F000849101C088810E94020421968111F2CF67
:100900008FEF9FEF01C0C801DF91CF911F910F9131
:10091000FF90EF90DF900895615030F02091F1004A
:10092000FC0120830196F8CF289884E680938C01FF
:1009300008953FB7F8948091820190918301A0912E
:100940008401B091850126B5A89B05C02F3F19F001
:100950000196A11DB11D3FBFBA2FA92F982F88273F
:10096000820F911DA11DB11DBC01CD0142E0660F9A
:10097000771F881F991F4A95D1F708950F931F93EA
:10098000CF93DF931F92CDB7DEB782E0898342E435
:1009900050E067E772E080E80E9465040E94220B45
:1009A000DC0112960D911C9113970115110589F028
:1009B000D801ED91FC910280F381E02DBE016F5FC3
:1009C0007F4FC801099597FD04C0F8010085118586
:1009D000ECCF89810F90DF91CF911F910F910895F6
:1009E0001F920F920FB60F921124CF92DF92EF92C7
:1009F000FF920F931F932F933F934F935F936F93A8
:100A00007F938F939F93AF93BF93EF93FF93CF9376
:100A1000DF93CDB7DEB76C97DEBFCDBF1092E90094
:100A20008091E80083FFFBC168E0CE0145960E94FB
:100A30008C0482EF8093E8008D8987FF05C0909138
:100A4000E80090FFFCCF03C09EEF9093E800982F42
:100A5000907609F0C6C09E894F89588D2F89F88CF1
:100A600091110CC0803829F4809180018093F100AD
:100A700002C01092F1001092F10045C1913051F482
:100A8000811141C14130510509F03DC18091800182
:100A90008D7F0BC0933061F4811135C14130510518
:100AA00009F031C1809180018260809380012BC167
:100AB000953049F48091E80080FFFCCF822F806858
:100AC0008093E30020C1963009F05EC00B8D1C8D31
:100AD00022E01092E9001092890110928801F2122E
:100AE00032C010928701109286010E94BE0499E0E4
:100AF000BE016F5F7F4FDB01E92F1D92EA95E9F799
:100B00009983FA8291E09E8390EA98879AEF998779
:100B10002091880130918901275F3F4F3C832B83CF
:100B20008D831092E9001092890110928801109330
:100B300087010093860149E050E080E00E9465044F
:100B40000E94BE04E0C010938701009386010E94BA
:100B5000220BDC0112960D911C91139701151105C2
:100B600009F4BBC0D801ED91FC910480F581E02D22
:100B7000BE016B5E7F4FC8010995009709F0C7C0A1
:100B8000F80100851185EACF973009F445C1983006
:100B900021F481E08093F100B6C0993009F0B3C030
:100BA000837009F039C1EDE1F1E081E031E096E3D5
:100BB0002081211109C08EE78093EA001092EA009B
:100BC0008F8980938D019FC08093E9003093EB0063
:100BD00021912093EC009093ED008F5F873041F7D7
:100BE000EACF8B8D9C8D1092E900109289011092B2
:100BF00088019093870180938601898D811153C06C
:100C00008E899D89913A49F4813209F005C147E006
:100C100050E064E071E080E0BBC0913209F0FCC0BC
:100C2000833269F48F89988DA0E0B0E08093000151
:100C300090930101A0930201B093030164C080323C
:100C400069F48091E80082FFFCCF67E084E091E0E6
:100C50000E948C048BEF8093E80055C0823209F02B
:100C600052C08F8980930B01EEEFFFE7859194913D
:100C70008B3F9C4D19F0E0E0F8E002C0EEEFFAE0A7
:100C80008091040190910501A0910601B0910701A6
:100C9000803B9440A105B10509F09EC080910B01F5
:100CA00080FF79C099C00E94220BFC010281138150
:100CB0000115110509F4B0C0D801ED91FC91019026
:100CC000F081E02DBE016B5E7F4FC8010995811157
:100CD0001AC0F80100851185EBCFF1E0FF1609F489
:100CE0004EC0F3E0FF1298C08F89882309F44AC0F0
:100CF000823089F440E86BE08BED92E00E94300492
:100D0000882309F489C08EEF8093E80088C0181604
:100D10001906CCF381C0813029F440E86BE08FECF8
:100D200092E0ECCF833009F077C00E94220BDC0107
:100D30001296ED90FC9013978E010F5F1F4F680184
:100D4000E114F10479F0D701ED91FC910680F7816F
:100D5000E02DB801C7010995080F111DF701E084C6
:100D6000F184EECFD8011C92F60101900020E9F742
:100D70003197BF016C197D0940E0C601BFCF6DEB13
:100D800072E002C069EB72E0FB01449150E080E840
:100D90000E946504B8CFEE3F2AE0F20751F080814F
:100DA00091818737A7E79A0721F09093FF0A8093F4
:100DB000FE0A87E797E791838083809160008093A4
:100DC0008A019BE088E10FB6F894A89580936000B3
:100DD0000FBE9093600097CF8081918187379747AE
:100DE00009F091CFA89580916000886180936000A0
:100DF00080918A0180936000EE3FBAE0FB0739F0F2
:100E00008091FE0A9091FF0A918380837CCF10929B
:100E1000FF0A1092FE0A77CF81E28093EB006C9676
:100E20000FB6F894DEBF0FBECDBFDF91CF91FF911B
:100E3000EF91BF91AF919F918F917F916F915F9152
:100E40004F913F912F911F910F91FF90EF90DF9065
:100E5000CF900F900FBE0F901F901895362F90E0F7
:100E6000FC01E85AFD4F4491FC01E75CFD4F2491E1
:100E7000FC01E65EFD4F8491882309F452C04423AF
:100E8000E1F150E0FA013197EF30F105B0F5EB599F
:100E9000FF4F0C94AC15909180009F7707C0909104
:100EA00080009F7D03C090918000977F9093800089
:100EB00024C094B59F7702C094B59F7D94BD1DC09A
:100EC000909190009F7707C0909190009F7D03C004
:100ED00090919000977F909390000FC09091C000E8
:100EE0009F7703C09091C0009F7D9093C00005C084
:100EF0009091C200977F9093C200E82FF0E0EE0F30
:100F0000FF1FE45FFD4FA591B4919FB7F894311195
:100F100004C08C912095282302C0EC912E2B2C9399
:100F20009FBF0895CF93DF9390E0FC01E75CFD4FF6
:100F30002491FC01E65EFD4F8491882361F190E0ED
:100F4000880F991FFC01E250FE4FC591D491FC011E
:100F5000E45FFD4FA591B491611109C09FB7F8946A
:100F60008881209582238883EC912E230BC06230E8
:100F700061F49FB7F8948881322F3095832388835A
:100F8000EC912E2B2C939FBF06C08FB7F894E8816D
:100F90002E2B28838FBFDF91CF9108958F929F9240
:100FA000AF92BF92CF92DF92EF92FF926B017C01E2
:100FB0000E9499044B015C01C114D104E104F104C5
:100FC000F1F00E949904DC01CB0188199909AA0962
:100FD000BB09883E9340A105B10570F321E0C21A18
:100FE000D108E108F10888EE880E83E0981EA11C64
:100FF000B11CC114D104E104F10419F7DDCFFF9055
:10100000EF90DF90CF90BF90AF909F908F9008951A
:101010001F920F920FB60F9211242F933F938F932D
:101020009F93AF93BF9380917C0190917D01A0919C
:101030007E01B0917F013091810123E0230F2D3794
:1010400020F40196A11DB11D05C026E8230F0296CC
:10105000A11DB11D2093810180937C0190937D019E
:10106000A0937E01B0937F018091820190918301D2
:10107000A0918401B09185010196A11DB11D8093BD
:10108000820190938301A0938401B0938501BF9165
:10109000AF919F918F913F912F910F900FBE0F9025
:1010A0001F90189520918D01211103C08FEF9FEFA4
:1010B00008955FB7F89422E02093E9002091F200B0
:1010C00030E01216130614F421E030E0422FFC0148
:1010D00084E6415038F0289880938C019091F1007B
:1010E0009193F7CF2115310521F08091F2008823EB
:1010F00019F05FBFC90108958BE68093E800F9CF2E
:101100002FB7F89483E08093E9009091E800892F4D
:10111000807295FF04C09091F20080E4891B2FBF7C
:101120000895CF93DF931F92CDB7DEB76983DC01BB
:10113000ED91FC910280F381E02D41E050E0BE0191
:101140006F5F7F4F09950F90DF91CF91089583E0F6
:101150008093E9008091F200882319F08AE380935C
:10116000E80008950E94800890E00895CF93DF93EF
:101170001F92CDB7DEB7FC018485958597FD05C02C
:101180002FEF3FEF358724870BC0CE0101960E94D9
:101190005208019719F4898190E002C08FEF9FEF08
:1011A0000F90DF91CF9108950F931F93CF93DF930B
:1011B0001F92CDB7DEB78C01FC018485958597FF22
:1011C0000EC0CE0101960E945208019719F4898140
:1011D00090E002C08FEF9FEFF80195878487F801B8
:1011E000848595850F90DF91CF911F910F91089580
:1011F000FC018485958597FD0BC09FB7F89482E02C
:101200008093E9008091F2009FBF90E001960895DD
:101210009FB7F89482E08093E9008091F2009FBF2D
:1012200090E008958F929F92AF92BF92CF92DF92FB
:10123000EF92FF920F931F93CF93DF936C017B018B
:101240008A0180910B01882309F45CC080918D0193
:10125000882309F457C080918B0180FF05C08091DD
:10126000E00082608093E000E801B12C8AEFA82EB4
:1012700093E0892E2AE3922E209711F4BB20D9F116
:101280000E94800881110AC0AA94AA20D9F161E0C5
:1012900070E080E090E00E94CE07EECF282F30E093
:1012A000C217D3070CF48C2F9FB7F8948092E900F3
:1012B0002091E80025FF1DC0282F30E0C21BD30B72
:1012C000F701815020F041914093F100FACFE20EF6
:1012D000F31EBB2019F09092E8000AC08091E8004C
:1012E00085FD07C09092E800BB24B394209709F0D5
:1012F000B12C9FBFC1CF5D9884E680933602101653
:10130000110644F081E090E0F6019383828380E04F
:1013100090E001C0C801DF91CF911F910F91FF9024
:10132000EF90DF90CF90BF90AF909F908F900895F7
:101330002F923F924F925F926F927F928F929F92E5
:10134000AF92BF92CF92DF92EF92FF920F931F93D3
:10135000CF93DF93CDB7DEB72A970FB6F894DEBFF1
:101360000FBECDBF9A8789875B013A0179017A82E6
:10137000198244244A94542C9B01240F351F3E8328
:101380002D83C701800F911F98878F83A985BA8508
:1013900018968C91B981B81708F015C1E985FA85BE
:1013A0005482438285819681DC01ED91FC9101900C
:1013B000F081E02D6FEF09956FEF89859A850E9486
:1013C000EB03E985FA8585819681DC01ED91FC913D
:1013D0000190F081E02DA985BA856C910995E98588
:1013E000FA856081CF010E94EB03A985BA85159625
:1013F0008D919C911697DC01ED91FC910190F0810B
:10140000E02D6A8109956A8189859A850E94EB039E
:10141000E985FA8585819681DC01ED91FC91019049
:10142000F081E02D662D0995662D89859A850E94AB
:10143000EB036501E985FA85858196812D813E81E1
:10144000C216D30691F04601DC01ED91FC910190AA
:10145000F081E02DD6016D916D010995F401608157
:1014600089859A850E94EB03E5CFA985BA851496F4
:101470006C91DC01ED91FC910190F081E02D0995DA
:10148000E985FA8585819681DC01ED91FC910190D9
:10149000F081E02DA985BA8513966C91099568ECC9
:1014A00070E089859A850E94A6038F3F910509F017
:1014B0007CC0E985FA85548243826FEFCF010E9498
:1014C000EB0365E070E089859A850E94A603A985F3
:1014D000BA856C91262F30E08217930709F065C01A
:1014E000CD010E94EB036AE070E089859A850E9435
:1014F000A6036C0197FD59C0682F89859A850E94C3
:10150000EB036AE070E089859A850E94A6034C018E
:1015100097FD4BC0682F89859A850E94EB03CC828A
:101520001B82EB81FC818E0E9F1E67011701280C28
:10153000391C65E070E089859A852C143D04A1F082
:101540002F8138852C153D0579F00E94A60397FD63
:1015500007C0D6018C93682F89859A850E94EB037A
:10156000BFEFCB1ADB0AE5CF0E94A6036C0197FD03
:101570001CC065E070E089859A850E94A60397FDEE
:1015800014C0DC2CCC248C0D9D1DE985FA852381AB
:1015900034818217930749F480818F5F8083C4016F
:1015A0000815190590F4C80110C0F981FF5FF9838F
:1015B00064E670E080E090E00E94CE0789859A851D
:1015C0000E948A03E3CE8FEF9FEF2A960FB6F8941E
:1015D000DEBF0FBECDBFDF91CF911F910F91FF9066
:1015E000EF90DF90CF90BF90AF909F908F907F90C3
:1015F0006F905F904F903F902F900895EF92FF92E1
:101600000F931F93CF93DF938C017B01C0E0D0E059
:10161000F701EC0FFD1F6491662361F0D801ED9195
:10162000FC910190F081E02DC8010995892B11F002
:101630002196EECFCE01DF91CF911F910F91FF90B8
:10164000EF90089580913B0281110DC082E080935C
:10165000370284E08093380210923A0210923902E5
:1016600081E080933B0287E392E008951F920F92FE
:101670000FB60F9211248F939F938091E100909168
:10168000E100937F9093E10083FF0FC01092E90087
:1016900091E09093EB001092EC0092E39093ED00B8
:1016A00010928D0198E09093F00082FF20C093E0AB
:1016B0009093E9009091F200992319F09AE39093A6
:1016C000E80090913602992339F0909136029150BA
:1016D00090933602992389F190918C01992339F0E6
:1016E00090918C01915090938C01992341F184FF4A
:1016F00010C08091E2008E7E81608093E200809134
:10170000E1008F7E8093E10080918B018E7E80616D
:1017100011C080FF16C08091E2008E7E80618093B0
:10172000E2008091E1008E7E8093E10080918B0148
:101730008E7E816080938B0104C05D9ACDCF289A04
:10174000D6CF9F918F910F900FBE0F901F9018953D
:10175000CF93DF93CDB7DEB7E6970FB6F894DEBF31
:101760000FBECDBF789484B5826084BD84B581609E
:1017700084BD85B5826085BD85B5816085BD80915C
:101780006E00816080936E001092810080918100D4
:1017900082608093810080918100816080938100CC
:1017A00080918000816080938000809191008260B0
:1017B000809391008091910081608093910080914D
:1017C00090008160809390008091C100846080933C
:1017D000C1008091C10082608093C1008091C100EE
:1017E00081608093C1008091C30081608093C300B9
:1017F0008091C00082608093C0008091C2008160AF
:101800008093C20080917A00846080937A008091F6
:101810007A00826080937A0080917A008160809360
:101820007A0080917A00806880937A0010928D010E
:101830001092800110928B018091D700816080937B
:10184000D70080EA8093D80089B5806189BD89B5C9
:10185000826089BD09B400FEFDCF61E070E080E0E8
:1018600090E00E94CE078091D8008F7C80618093A9
:10187000D8008091E000807F8093E0008091E100BB
:101880008E7E8093E1008DE08093E200559A209A4D
:10189000E0913402F0913502A089B18982E08C9305
:1018A000A485B5851C92A685B78587E08C93108E9C
:1018B000A489B58986E08C93A289B3898C918061D3
:1018C0008C93A289B3898C9188608C93A289B38907
:1018D0008C9180688C930288F389E02D80818F7DC4
:1018E0008083809132028111C6C081E080933202F0
:1018F0008BE292E00E948A0368EE73E080E090E061
:101900000E94CE078091300290913102DC01ED916E
:10191000FC910084F185E02D09951816190644F311
:10192000FF24F39452E3E52E85E0E2E1F1E0DE01ED
:10193000929601900D928A95E1F7F092330200E0C1
:1019400010E020E030E045E050E0BE016E5D7F4FEA
:101950008BE292E00E9498098091300290913102CE
:10196000DC01ED91FC910190F081E02D63E009959F
:101970006AEF70E080E090E00E94CE0760EF71E0D7
:1019800080913002909131020E94FE0A6AEF70E06D
:1019900080E090E00E94CE076EEE71E08091300210
:1019A000909131020E94FE0A64EF71E080E090E0C5
:1019B0000E94CE0762EE71E0809130029091310278
:1019C0000E94FE0A64EF71E080E090E00E94CE0782
:1019D0008BE292E00E948A0385E0E7E1F1E0DE011C
:1019E000119601900D928A95E1F7E092330204E09E
:1019F00010E09E01285D3F4F45E050E0BE016F5F63
:101A00007F4F8BE292E00E9498098F3FBFEF9B07C8
:101A100039F468EE73E080E090E00E94CE0784CF56
:101A200028A52111FFCF0497E9F429A530E0205320
:101A3000310984E6829FA001839F500D11242AA5BD
:101A400030E0205331096AE0629FC001639F900D2E
:101A50001124840F951F2BA530E020533109820FEC
:101A6000931F02C084E690E090932D0280932C0295
:101A700082E38093330260E083E10E94920761E099
:101A800089E00E94920780E090E0A0E2B2E48093B7
:101A9000680190936901A0936A01B0936B0180E0A3
:101AA00090E0A0EAB0E48093580190935901A0938C
:101AB0005A01B0935B018DEC9CECACECBCE38093E1
:101AC000600190936101A0936201B0936301109251
:101AD0005401109255011092560110925701109224
:101AE00064011092650110926601109267011092D4
:101AF0007B0110927A011092790110927801109274
:101B00005001109251011092520110925301109203
:101B1000740110927501109276011092770162E3C0
:101B200070E080E090E00E94CE0780917A01909171
:101B30007B01019690937B0180937A0180917801DB
:101B40009091790101969093790180937801E3EF68
:101B5000F1E0849190917B0083FB222420F8312CCA
:101B6000910145E0220F331F4A95E1F79F7D292B14
:101B700020937B008770806480937C0080917A0042
:101B8000806480937A0080917A0086FDFCCF60911A
:101B900078008091790070E0782B072E000C880B7C
:101BA000990B0E941C1320E030E040EA5BE30E94A6
:101BB0007B1320E030E040EA5FE30E9470142AE0EB
:101BC00037ED43EA5BE30E94DD146B017C01609119
:101BD00074017091750180917601909177010E9456
:101BE0001C139B01AC01C701B6010E9471140E9435
:101BF0004F156093740170937501809376019093F3
:101C0000770120917801309179012A30310509F06E
:101C1000E3C10E941C1320E030E040E251E40E9446
:101C2000DD14609370017093710180937201909341
:101C300073018FB7F89420917C0130917D01409120
:101C40007E0150917F012FA738AB49AB5AAB8FBFB4
:101C500080916C0190916D01A0916E01B0916F0126
:101C6000281B390B4A0B5B0BCA01B90128EE33E084
:101C700040E050E00E948A15CA01B9010E941A137F
:101C80002B013C0120E030E0A9010E9485151816C7
:101C90000CF0FBC0209170013091710140917201F4
:101CA00050917301609168017091690180916A019E
:101CB00090916B010E9470146B017C019B01AC013F
:101CC000C301B2010E947B13209164013091650130
:101CD00040916601509167010E9471146093640104
:101CE0007093650180936601909367018090600115
:101CF00090906101A0906201B0906301A5019401F0
:101D00000E947B1320E030E04FE753E40E948515EA
:101D1000181684F4A501940160E070E08FE793E465
:101D20000E94DD14609364017093650180936601E5
:101D300090936701209164013091650140916601A3
:101D400050916701C501B4010E947B1320E030E08F
:101D5000A9010E94151387FF08C010926401109218
:101D6000650110926601109267012091580130912F
:101D7000590140915A0150915B01C701B6010E947F
:101D80007B136BAB7CAB8DAB9EAB20916401309130
:101D900065014091660150916701C501B4010E943F
:101DA0007B139B01AC016BA97CA98DA99EA90E9404
:101DB00071144B015C0120915C0130915D014091F7
:101DC0005E0150915F01C701B6010E947014A3012A
:101DD00092010E94DD1420915401309155014091EF
:101DE0005601509157010E947B139B01AC01C50124
:101DF000B4010E9471144B015C0120E030E04FE718
:101E000053E40E94851518164CF080925001909270
:101E10005101A0925201B09253010CC080E090E0B9
:101E2000AFE7B3E48093500190935101A093520126
:101E3000B093530120E030E0A9016091500170910E
:101E4000510180915201909153010E94151387FF17
:101E500008C010925001109251011092520110923C
:101E60005301C0925C01D0925D01E0925E01F0925C
:101E70005F018FA598A9A9A9BAA980936C01909335
:101E80006D01A0936E01B0936F016091500170914C
:101E9000510180915201909153010E944F154B01C5
:101EA0005C017B0161E089E00E949207811491044A
:101EB00011F460E005C09FEF8916910429F461E0F8
:101EC00089E00E942E077CC0E1E6F2E0849190E078
:101ED000FC013197EF30F10508F06CC0EA5AFF4F72
:101EE0000C94AC1584B5806884BD87BC69C084B58A
:101EF000806284BD88BC64C08091800080688093CB
:101F0000800090928900809288005AC08091800061
:101F100080628093800090928B0080928A0050C0F3
:101F20008091800088608093800090928D008092E4
:101F30008C0046C0809190008068809390009092C1
:101F40009900809298003CC08091900080628093BC
:101F5000900090929B0080929A0032C080919000F5
:101F600088608093900090929D0080929C0028C091
:101F70008091C00080688093C0008091C0008F7BFA
:101F80008093C0008092CF001BC08091C00080620F
:101F90008093C0008092D00013C08091C2008860FE
:101FA0008093C2008091C2008B7F8093C200809298
:101FB000D20006C0F0E8EF16F1040CF080CF79CF24
:101FC00010927401109275011092760110927701AF
:101FD000109279011092780180917A0190917B01A1
:101FE0008436910509F07EC0609170017091710195
:101FF00080917201909173011BA21AA21DA21CA2D2
:102000001FA21EA28E010F5F1F4F22E044E00E941C
:10201000C310009771F0FC0101900020E9F731979F
:10202000AF01481B590BBC01CE0182960E940703E9
:102030000CC08AA19BA1009711F00E944A161BA216
:102040001AA21FA21EA21DA21CA219A618A61BA698
:102050001AA61DA61CA644E050E067E471E0CE017C
:1020600088960E940703EAA0FBA0C8A4D9A41A82FC
:1020700019821C821B821E821D8241E050E06CE4AA
:1020800071E0CE0101960E940703B601CE010196D0
:102090000E94D6026EE471E0CE0101960E94D60243
:1020A000B701CE0101960E94D6024D815E81698101
:1020B0007A8101E010E09E01225D3F4F8BE292E0C9
:1020C0000E94980989819A810E944A1688A599A53B
:1020D0000E944A168AA19BA10E944A1610927B0177
:1020E00010927A010E94A3021ACDE3E4F2E0138277
:1020F000128288EE93E0A0E0B0E084839583A6830B
:10210000B78327E231E0318320832FEF3FEF35871C
:102110002487EEE8F1E01382128284839583A683FC
:10212000B78389E391E0918380838DEC90E095877C
:1021300084878CEC90E09787868788EC90E0918B81
:10214000808B89EC90E0938B828B8AEC90E0958B6E
:10215000848B8EEC90E0978B868B118E128E138E73
:10216000148EABE2B2E01C921696FC93EE93159798
:1021700017961C92179718961C9218971A96FC930C
:10218000EE9319970895EF920F931F93CF93DF93D8
:10219000E80147FD02C034E001C034E1042E000C28
:1021A000550B57FF03C0519541955109E32E022F5E
:1021B000242FAE010E94E310CE01DF91CF911F9139
:1021C0000F91EF900895A9E0B0E0E9EEF0E10C94F2
:1021D0003F146A01122FB02E2BE3201720F0FF24AA
:1021E000F394F00E02C02CE3F22E0F2D27E0AE0187
:1021F0004F5F5F4F0E943D12BC014981842F89705F
:10220000813031F0E1FC06C0E0FE06C090E205C07E
:102210009DE203C09BE201C090E05E2D507143FF40
:102220003CC0911102C083E001C084E0811718F422
:10223000212F281B01C020E051110BC0F601822F75
:1022400030E2882319F031938150FBCFC20ED11CAC
:1022500020E0992329F0D6019C93F60131966F0175
:10226000C6010396E2FE0AC03EE4D6013C9341E477
:1022700011964C93119712963C9306C03EE6F601D8
:10228000308341E641833283FC01322F40E2332325
:1022900009F442C041933150FACF42FF44C091113A
:1022A00002C083E001C084E0811718F4212F281BAD
:1022B00001C020E051110BC0F601822F30E28823CB
:1022C00019F031938150FBCFC20ED11C20E099232D
:1022D00029F0D6019C93F60131966F01C601039651
:1022E000E2FE0BC039E4D6013C933EE411963C93E8
:1022F000119736E412963C9307C039E6F601308315
:102300003EE6318336E63283FC01322F40E233234E
:1023100019F041933150FBCFFC01E20FF11D108207
:102320008EEF9FEFA6C021E030E0911102C020E0C7
:1023300030E0161617061CF4FB01319602C0E1E0EE
:10234000F0E02E0F3F1FBB2021F0EB2DF0E0319687
:1023500002C0E0E0F0E02E0F3F1FE12FF0E02E176B
:102360003F071CF4121B212F01C020E08E2D887125
:1023700059F4F601822F30E2882319F0319381500D
:10238000FBCFC20ED11C20E0992329F0D6019C93EB
:10239000F60131966F0151110BC0F601822F90E3C7
:1023A000882319F091938150FBCFC20ED11C20E0FD
:1023B0000F2D060F9A81342F307144FF03C09133E3
:1023C00009F40150101624F4093018F008E001C097
:1023D00001E0AB0177FF02C040E050E0FB01E41BED
:1023E000F50BA1E0B0E0AC0FBD1FEA0FFB1F8EE2C2
:1023F000A82E4B01801A91080B2D10E01195019524
:1024000011094F3FBFEF5B0721F4D601AC92119643
:102410006D01641775072CF08416950614F48181FC
:1024200001C080E3415051093196D60111967D01DA
:102430004017510724F0D6018C936701E2CF64174F
:10244000750739F4963320F4953319F4311101C02E
:1024500081E3F6018083F701822F90E2882319F04F
:1024600091938150FBCFF701E20FF11D108280E0C4
:1024700090E02996ECE00C945B14283008F027E0FB
:102480003327DA01990F311D87FD916000966105B0
:10249000710539F432602E5F3D9330E32A95E1F700
:1024A00008959F3F30F080387105610509F03C5F69
:1024B0003C5F3D93913008F08068911DDF93CF938E
:1024C0001F930F93FF92EF92192F987F9695E92F04
:1024D00096959695E90FFF27EE5BFE4F99273327D8
:1024E000EE24FF24A701E70105900894079428F43F
:1024F000360FE71EF81E491F511D660F771F881FF4
:10250000991F0694A1F70590079428F4E70EF81E8A
:10251000491F561FC11D770F881F991F661F0694FC
:10252000A1F70590079428F4F80E491F561FC71FFE
:10253000D11D880F991F661F771F0694A1F705907C
:10254000079420F4490F561FC71FD81F990F661F05
:10255000771F881F0694A9F784911095177041F092
:10256000D695C79557954795F794E7941A95C1F76F
:10257000E8EEF0E06894159015913591659195918C
:1025800005907FE27395E118F10A430B560BC90BD6
:10259000D009C0F7E10CF11E431F561FC91FD01D03
:1025A0007EF4703311F48A95E6CFE894015030F050
:1025B000080F0AF40027021708F4202F2395022F92
:1025C0007A3328F079E37D932A95E9F710C07D935B
:1025D0002A9589F6069497956795379517951794D8
:1025E000E118F10A430B560BC90BD00998F023955B
:1025F0007E9173957A3308F070E37C932013B8F7DB
:102600007E9170617D9330F0839571E37D9370E3EB
:102610002A95E1F71124EF90FF900F911F91CF9130
:10262000DF91992787FD909508950E94571308F42C
:1026300081E00895E89409C097FB3EF49095809559
:10264000709561957F4F8F4F9F4F9923A9F0F92F78
:1026500096E9BB279395F695879577956795B795F6
:10266000F111F8CFFAF4BB0F11F460FF1BC06F5FDC
:102670007F4F8F4F9F4F16C0882311F096E911C0EE
:10268000772321F09EE8872F762F05C0662371F00F
:1026900096E8862F70E060E02AF09A95660F771F23
:1026A000881FDAF7880F9695879597F90895990FFF
:1026B0000008550FAA0BE0E8FEEF16161706E8070C
:1026C000F907C0F012161306E407F50798F0621B2D
:1026D000730B840B950B39F40A2661F0232B242B02
:1026E000252B21F408950A2609F4A140A6958FEF21
:1026F000811D811D08950E948E130C94FF130E946A
:10270000F11338F00E94F81320F0952311F00C9487
:10271000E8130C94EE1311240C9433140E9410143B
:1027200070F3959FC1F3950F50E0551F629FF00124
:10273000729FBB27F00DB11D639FAA27F00DB11D3D
:10274000AA1F649F6627B00DA11D661F829F2227C6
:10275000B00DA11D621F739FB00DA11D621F839F4D
:10276000A00D611D221F749F3327A00D611D231F23
:10277000849F600D211D822F762F6A2F11249F5771
:1027800050409AF0F1F088234AF0EE0FFF1FBB1F74
:10279000661F771F881F91505040A9F79E3F510533
:1027A00080F00C94E8130C9433145F3FE4F3983EEC
:1027B000D4F3869577956795B795F795E7959F5FDD
:1027C000C1F7FE2B880F911D9695879597F908956F
:1027D00097F99F6780E870E060E008959FEF80ECD4
:1027E000089500240A941616170618060906089577
:1027F00000240A9412161306140605060895092EDD
:102800000394000C11F4882352F0BB0F40F4BF2B4B
:1028100011F460FF04C06F5F7F4F8F4F9F4F08958B
:1028200057FD9058440F551F59F05F3F71F0479581
:10283000880F97FB991F61F09F3F79F08795089566
:10284000121613061406551FF2CF4695F1DF08C085
:10285000161617061806991FF1CF869571056105A2
:1028600008940895E894BB2766277727CB0197F94A
:1028700008952F923F924F925F926F927F928F9224
:102880009F92AF92BF92CF92DF92EF92FF920F93FF
:102890001F93CF93DF93CDB7DEB7CA1BDB0B0FB609
:1028A000F894DEBF0FBECDBF09942A8839884888C6
:1028B0005F846E847D848C849B84AA84B984C8845C
:1028C000DF80EE80FD800C811B81AA81B981CE0F53
:1028D000D11D0FB6F894DEBF0FBECDBFED01089538
:1028E0005058BB27AA270E9488140C94FF130E94FB
:1028F000F11338F00E94F81320F039F49F3F19F4D7
:1029000026F40C94EE130EF4E095E7FB0C94E81318
:10291000E92F0E94101458F3BA176207730784074F
:10292000950720F079F4A6F50C9432140EF4E09596
:102930000B2EBA2FA02D0B01B90190010C01CA0179
:10294000A0011124FF27591B99F0593F50F4503E24
:1029500068F11A16F040A22F232F342F4427585F16
:10296000F3CF469537952795A795F0405395C9F72E
:102970007EF41F16BA0B620B730B840BBAF09150E6
:10298000A1F0FF0FBB1F661F771F881FC2F70EC085
:10299000BA0F621F731F841F48F487957795679558
:1029A000B795F7959E3F08F0B0CF9395880F08F044
:1029B0009927EE0F9795879508950E94F1140C942E
:1029C000FF130E94F81358F00E94F11340F029F40D
:1029D0005F3F29F00C94E81351110C9433140C94BC
:1029E000EE130E94101468F39923B1F3552391F369
:1029F000951B550BBB27AA2762177307840738F06E
:102A00009F5F5F4F220F331F441FAA1FA9F335D0CA
:102A10000E2E3AF0E0E832D091505040E695001C7E
:102A2000CAF72BD0FE2F29D0660F771F881FBB1F38
:102A3000261737074807AB07B0E809F0BB0B802D16
:102A4000BF01FF2793585F4F3AF09E3F510578F042
:102A50000C94E8130C9433145F3FE4F3983ED4F3E2
:102A6000869577956795B795F7959F5FC9F7880F16
:102A7000911D9695879597F90895E1E0660F771F68
:102A8000881FBB1F621773078407BA0720F0621BF9
:102A9000730B840BBA0BEE1F88F7E09508950E9424
:102AA00056156894B1110C94331408950E941814AB
:102AB00088F09F5798F0B92F9927B751B0F0E1F0FF
:102AC000660F771F881F991F1AF0BA95C9F714C0AF
:102AD000B13091F00E943214B1E008950C94321498
:102AE000672F782F8827B85F39F0B93FCCF38695E8
:102AF00077956795B395D9F73EF490958095709545
:102B000061957F4F8F4F9F4F08950E94571308F490
:102B10008FEF0895A1E21A2EAA1BBB1BFD010DC069
:102B2000AA1FBB1FEE1FFF1FA217B307E407F5077D
:102B300020F0A21BB30BE40BF50B661F771F881F59
:102B4000991F1A9469F760957095809590959B01EF
:102B5000AC01BD01CF010895EE0FFF1F0590F49168
:102B6000E02D09940F931F93CF93DF93823091054B
:102B700010F482E090E0E0919502F091960220E05E
:102B800030E0A0E0B0E0309719F14081518102813E
:102B9000138148175907C8F08417950769F41097EF
:102BA00031F012960C93129713961C9327C0009342
:102BB00095021093960222C02115310519F0421793
:102BC000530718F49A01BD01EF01DF01F801DBCFD3
:102BD00021153105F9F0281B390B2430310580F41B
:102BE0008A819B816115710521F0FB0193838283AA
:102BF00004C09093960280939502FE01329644C0E1
:102C0000FE01E20FF31F8193919322503109398322
:102C100028833AC02091930230919402232B41F4EF
:102C200020910E0130910F01309394022093930272
:102C300020910C0130910D012115310541F42DB782
:102C40003EB74091100150911101241B350BE091CA
:102C50009302F0919402E217F307A0F42E1B3F0BAE
:102C60002817390778F0AC014E5F5F4F24173507FE
:102C700048F04E0F5F1F509394024093930281934C
:102C8000919302C0E0E0F0E0CF01DF91CF911F917E
:102C90000F910895CF93DF93009709F481C0FC0151
:102CA000329713821282A0919502B09196021097EA
:102CB00081F420813181820F931F20919302309102
:102CC00094022817390751F5F0939402E093930288
:102CD00067C0ED0120E030E0CE17DF0740F44A8105
:102CE0005B819E0141155105F1F0EA01F5CFD383D7
:102CF000C28340815181840F951FC817D90759F4A9
:102D000088819981840F951F0296918380838A819F
:102D10009B81938382832115310529F4F0939602D8
:102D2000E09395023DC0E901FB83EA834991599103
:102D3000C40FD51FEC17FD0761F480819181840FCA
:102D4000951F0296E90199838883828193819B83F1
:102D50008A83E0E0F0E012968D919C9113970097A2
:102D600019F0FD01DC01F7CF8D919C9111979D0128
:102D70002E5F3F4F820F931F209193023091940258
:102D80002817390769F4309729F4109296021092A7
:102D9000950202C013821282B0939402A093930210
:102DA000DF91CF910895A0E0B0E0E9EDF6E10C9459
:102DB0003D14EC01009721F4CB010E94B215B4C080
:102DC000FC01E60FF71F9C0122503109E217F307BF
:102DD00008F4A8C0D9010D911C9111970617170787
:102DE000B0F00530110508F49BC0C80104978617A0
:102DF000970708F495C002501109061B170B0193A1
:102E000011936D937C93CF010E944A1689C05B0198
:102E1000A01AB10A4C01800E911EA0919502B091AA
:102E20009602612C712CE12CF12C109709F446C00C
:102E30008D919C911197A815B905B1F56C0142E0EF
:102E4000C40ED11CCA14DB0478F14C018A189B080B
:102E5000640142E0C40ED11C1296BC9012971396E6
:102E6000AC91B5E0CB16D10440F0B282A38391823D
:102E70008082D9016D937C9309C00E5F1F4F800F34
:102E8000911FF90191838083EB2DFA2FE114F10456
:102E900031F0D7011396FC93EE93129741C0F09353
:102EA0009602E09395023CC06816790608F43C014E
:102EB0007D0112960D90BC91A02DB7CF8091930209
:102EC0009091940288169906E1F466167706C8F484
:102ED00080910C0190910D01009741F48DB79EB740
:102EE0004091100150911101841B950BE817F907CF
:102EF000C8F4F0939402E0939302F9017183608324
:102F00000FC0CB010E94B2157C01009759F0A801B7
:102F1000BE010E949E17CE010E944A16C70104C03E
:102F2000CE0102C080E090E0CDB7DEB7EEE00C94B9
:102F3000591481E090E0F8940C94AE17FB01DC0189
:102F400002C001900D9241505040D8F70895FB0106
:102F5000DC0101900D920020E1F70895F894FFCF75
:102F6000FFFFFFFF00E100000000000000009702EB
:102F700080005858585858585831303000C1808116
:102F80000000000000000091081209B208A708F82C
:102F900008B608D4080000000035029F01CD018169
:102FA00002FE01DC01F00174656D70004400FE005A
:1070000055C000006EC000006CC000006AC00000E7
:1070100068C0000066C0000064C0000062C00000DC
:1070200060C000005EC00000FCC400005AC0000048
:1070300058C0000056C0000054C0000052C00000FC
:1070400050C000005DC000004CC000004AC00000FD
:1070500048C0000046C0000044C0000042C000001C
:1070600040C000003EC000003CC000003AC000002C
:1070700038C0000036C0000034C0000032C000003C
:1070800030C000002EC000002CC000002AC000004C
:1070900028C0000026C0000024C0000022C000005C
:1070A00020C000001EC000001CC0000011241FBE34
:1070B000CFEFDAE0DEBFCDBF11E0A0E0B1E0E6E463
:1070C000FFE702C005900D92A63AB107D9F711E08B
:1070D000A6EAB1E001C01D92AF3BB107E1F74FD383
:1070E00030C78ECFF89410926F001092810081E02B
:1070F00085BF15BE47985D9A289A0C9400000895A4
:107100001F920F920FB60F9211242F938F939F937C
:10711000EF93FF9310928500109284008091A60156
:107120009091A701009741F001979093A701809358
:10713000A601892B09F45D9A8091A8019091A9017B
:10714000009741F001979093A9018093A801892BA2
:1071500009F4289A8091AC019091AD010196909329
:10716000AD018093AC01E0E0F0E0859194918F5FF8
:107170009F4F49F08091AA019091AB0101969093A5
:10718000AB018093AA01FF91EF919F918F912F9175
:107190000F900FBE0F901F90189584E08093E90028
:1071A0000DC08091E8008B778093E80003C08EB318
:1071B000882351F08091E80082FFF9CF8091E800A8
:1071C00085FFEFCF8091F1000895982F83E08093A1
:1071D000E9008091E80085FD0DC08091E8008E7780
:1071E0008093E80003C08EB3882369F08091E800A3
:1071F00080FFF9CF9093F1005D9884E690E0909342
:10720000A7018093A60108954F925F926F927F929B
:107210008F929F92AF92BF92CF92DF92EF92FF92A6
:107220000F931F93CF93DF9384E08093E9008091C5
:10723000E80082FF57C2289884E690E09093A90165
:107240008093A801AADF182F853481F48CE49DE196
:107250009093AB018093AA0107B600FCFDCFF9998A
:10726000FECF81E180935700E89503C0843519F47F
:1072700094DF8DE00DC28C34E1F38035D1F3843797
:1072800021F484E4A2DF80E003C2813611F489E5B1
:10729000FFC18134B1F481DF182F7FDF90E0880FC8
:1072A000991FAA2797FDA095BA2F312F330F20E001
:1072B000442737FD4095542F822B932BA42BB52BBD
:1072C000B8C1803711F483E5E3C1833549F4C0E0E8
:1072D000D1E089917ADF21E0C730D207D1F7D9C157
:1072E000863521F481E371DF80E3D2C1833731F445
:1072F00087E86BDF85E969DF8EE1CAC18536B9F4BD
:10730000E0E0F0E093E085E090935700E89507B661
:1073100000FCFDCF80935700E89507B600FCFDCF39
:10732000E058FF4FA0E7E030FA0771F7A2CF8237AD
:1073300039F4E1E0F0E089E0809357008491A8C13E
:10734000863439F4E0E0F0E089E0809357008491DE
:107350009FC18E3439F4E3E0F0E089E08093570078
:10736000849196C1813539F4E2E0F0E089E08093C0
:10737000570084918DC1823631F489E526DF80E0A3
:1073800024DF80E885C1823419F0873609F0E5C032
:107390001092AB011092AA0100DF082FFEDEF82E3A
:1073A000FCDE682E8554823008F071C1902F80E099
:1073B000CF2DD0E0C82BD92B10926F00173609F0D3
:1073C0004BC081E180935700E895DD24CC24C39421
:1073D0003FC0E090AF01F090B0010091B101109179
:1073E000B201B6E46B16D9F4ED2DF0E0EE29FF29D9
:1073F000E4918E2FEADEDD2081F082E090E0A0E0D3
:10740000B0E0E80EF91E0A1F1B1FE092AF01F092D8
:10741000B0010093B1011093B201DC2418C0D8016F
:10742000C701B695A7959795879575D5CEDE82E06D
:1074300090E0A0E0B0E0E80EF91E0A1F1B1FE092EA
:10744000AF01F092B0010093B1011093B201219706
:10745000209709F0BECF7DC08090AF019090B00121
:10746000A090B101B090B20196E4691609F05DC038
:1074700083E0F40180935700E89507B600FCFDCF48
:1074800054C0F6E46F1661F5772031F1E090AF015A
:10749000F090B0010091B1011091B2017EDED82EC2
:1074A000CC24852D90E08C299D29F7010C01409278
:1074B0005700E895112482E090E0A0E0B0E0E80EEB
:1074C000F91E0A1F1B1FE092AF01F092B00100935A
:1074D000B1011093B20102C060DE582E742423C0A3
:1074E000E090AF01F090B0010091B1011091B201B4
:1074F00016950795F794E79450DE682FC70113D5CA
:107500008091AF019091B001A091B101B091B20111
:107510000296A11DB11D8093AF019093B001A0937D
:10752000B101B093B201219704C0552477244424BB
:107530004394209709F0A5CF96E4691641F485E0BD
:10754000F40180935700E89507B600FCFDCF8DE06D
:107550003CDE82E080936F009CC0833471F4009124
:10756000AF011091B00119DE90E021E0F8010C01AB
:1075700020935700E89511247CCE833619F5E090CE
:10758000AF01F090B0010091B1011091B20105DEA0
:10759000F701E16090E021E00C0120935700E895AD
:1075A000112482E090E0A0E0B0E0E80EF91E0A1F8E
:1075B0001B1FE092AF01F092B0010093B101109354
:1075C000B20157CE8D3661F4E091AF01F091B00178
:1075D00085E080935700E89507B600FCFDCF49CEC3
:1075E000823551F4E091AF01F091B0010591149111
:1075F000812FEBDD802F4CC0843421F5E090AF016A
:10760000F090B0010091B1011091B201169507956B
:10761000F794E794C2DD682FC70185D48091AF014C
:107620009091B001A091B101B091B2010296A11D5B
:10763000B11D8093AF019093B001A093B101B093BD
:10764000B20117CE843609F5E090AF01F090B00199
:107650000091B1011091B201D801C701B695A7956B
:107660009795879558D4B1DD82E090E0A0E0B0E036
:10767000E80EF91E0A1F1B1FE092AF01F092B00145
:107680000093B1011093B20104C08B3111F08FE36C
:107690009CDD83E08093E9009091E8008091E80010
:1076A0008E778093E80095FF04C010C08EB38823C6
:1076B000C9F08091E80080FFF9CF8091E8008E77D3
:1076C0008093E80003C08EB3882361F08091E800C6
:1076D00080FFF9CF84E08093E9008091E8008B7708
:1076E0008093E800DF91CF911F910F91FF90EF9071
:1076F000DF90CF90BF90AF909F908F907F906F90D2
:107700005F904F9008959091B701892F8F778132C4
:1077100049F58091B8018032A1F0813219F5913A92
:1077200009F58091E800877F8093E8008CE091E084
:1077300067E070E027D28091E8008B778093E800C3
:107740000895913279F48091E800877F8093E80072
:107750008CE091E067E070E079D28091E8008E776C
:107760008093E800089582E061EC42E0D1D083E0AC
:1077700061E842E1CDD084E060E842E1C9C01F93F6
:10778000209100081092000844B714BE88E10FB69B
:10779000F89480936000109260000FBE80E8E0E0F3
:1077A000F0E00FB6F89480936100E09361000FBEA3
:1077B00031E035BF92E095BF3F9A209A559A809369
:1077C00061001092610047985D9A289A1092890092
:1077D0008AEF8093880090936F0083E0809381000C
:1077E000859194918F5F9F4F11F03093AE01942F4C
:1077F00041FF19C0809109012817A9F08093000862
:10780000789480911301882339F08091AC01909194
:10781000AD018F5E9240C8F310920008F89481E0A9
:10782000809313010CC090FF04C08091AE018823A7
:1078300051F493FF09C080910901281729F0809124
:10784000AE01882309F04EDCD4D078941092AB01BD
:107850001092AA011EEF20C0D7DC4BD38091AA0161
:107860009091AB0181549F4110F0109213018091CF
:10787000B3019091B40101969093B4018093B30148
:10788000292F97FF03C0512F591B252F220F28178F
:1078900010F4479801C0479A809113018823E1F6BC
:1078A0008091E00081608093E0001CDC80E090E04B
:1078B0001F910895FA01923049F0933061F09130B0
:1078C000F9F484E191E022E130E01EC086E291E02B
:1078D0002EE330E019C0882329F484E691E024E007
:1078E00030E012C0813029F488E691E022E230E0F5
:1078F0000BC0823029F48CE891E028E130E004C02C
:1079000080E090E020E030E091838083C901089519
:107910008093E9008091EB0081608093EB001092EE
:10792000ED006093EC004093ED008091EE00881F25
:107930008827881F08958091B70188238CF403C09D
:107940008EB38823B1F08091E80082FFF9CF809157
:10795000E8008B778093E80008958EB3882349F080
:107960008091E80080FFF9CF8091E8008E778093C6
:10797000E8000895EF92FF920F931F9345D04CD0EB
:1079800008ED10E0F80180818F7780838081806826
:10799000808380818F7D808319BC1EBA1092B501CF
:1079A00080EEE82EF12CF70180818B7F8083F80137
:1079B00080818160808380E060E042E0A9DFE1EEC9
:1079C000F0E080818E7F8083E2EEF0E08081816054
:1079D0008083808188608083F70180818E7F8083AF
:1079E000F8018081806180831F910F91FF90EF905B
:1079F0000895E7EDF0E08081816080838AE482BFB2
:107A000081E08093B601B6CFE8EDF0E080818E7F13
:107A100080831092E20008951092DA001092E10043
:107A200008951F920F920FB60F9211242F933F9338
:107A30004F935F936F937F938F939F93AF93BF9376
:107A4000EF93FF938091DA0080FF1BC08091D800F4
:107A500080FF17C08091DA008E7F8093DA008091DA
:107A6000D90080FF0BC080E189BD82E189BD09B4E6
:107A700000FEFDCF81E08EBB3BD203C019BC1EBA15
:107A800037D28091E10080FF17C08091E20080FF33
:107A900013C08091E2008E7F8093E2008091E2002B
:107AA00080618093E2008091D80080628093D8004A
:107AB00019BC85E08EBB1CD28091E10084FF2CC0F4
:107AC0008091E20084FF28C080E189BD82E189BD08
:107AD00009B400FEFDCF8091D8008F7D8093D8003F
:107AE0008091E1008F7E8093E1008091E2008F7EA3
:107AF0008093E2008091E20081608093E2008091B7
:107B0000B501882331F48091E30087FD02C081E054
:107B100001C084E08EBBECD18091E10083FF21C0E5
:107B20008091E20083FF1DC08091E100877F8093F8
:107B3000E10082E08EBB1092B5018091E1008E7F62
:107B40008093E1008091E2008E7F8093E20080913B
:107B5000E20080618093E20080E060E042E0D8DEF5
:107B6000C7D1FF91EF91BF91AF919F918F917F917D
:107B70006F915F914F913F912F910F900FBE0F909A
:107B80001F9018959C014091BD015091BE01461770
:107B9000570718F4F90190E044C06115710511F020
:107BA000AB01F8CF8091E8008E778093E80040E049
:107BB00050E0F0CF8EB3882309F444C0853009F437
:107BC00043C08091E80083FF02C081E00895809166
:107BD000E80082FD31C08091E80080FF22C08091E2
:107BE000F3009091F200782F60E0292F30E0262BEF
:107BF000372B07C081918093F100415050402F5F97
:107C00003F4F4115510519F02830310598F390E0A8
:107C10002830310509F491E08091E8008E77809357
:107C2000E8004115510531F6992321F605C08EB3C0
:107C3000882341F0853041F08091E80082FFF7CF42
:107C400080E0089582E0089583E008959C01611525
:107C5000710529F48091E8008B778093E800F901A1
:107C600026C08EB3882391F1853091F18091E80090
:107C700083FF02C081E008958091E80082FFF1CF88
:107C800006C08091F10081936150704059F02091BD
:107C9000F3008091F200322F20E090E0822B932BB2
:107CA000892B79F78091E8008B778093E800611544
:107CB0007105B9F605C08EB3882341F0853041F0D7
:107CC0008091E80080FFF7CF80E0089582E008957A
:107CD00083E008950F931F93DF93CF9300D0CDB728
:107CE000DEB7E7EBF1E08091F100819381E0EF3BBB
:107CF000F807C9F708DD8091E80083FFE4C08091B0
:107D0000B7019091B801953009F46DC0963040F4F8
:107D1000913081F1913070F0933009F0D4C02AC0D5
:107D2000983009F4A3C0993009F4B2C0963009F034
:107D3000CAC07CC0803809F4C6C0823809F0C3C00C
:107D40008091BB0187708093E9008091EB001092D5
:107D5000E9002091E800277F2093E80090E025E0EB
:107D6000969587952A95E1F781708093F10010929E
:107D7000F10087C0882319F0823009F0A4C08F7108
:107D8000823009F0A0C08091B901882331F520919B
:107D9000BB01277009F497C02093E9008091EB00A4
:107DA00080FF1BC0933021F48091EB00806213C0F0
:107DB0008091EB0080618093EB0081E090E002C055
:107DC000880F991F2A95E2F78093EA001092EA0043
:107DD0008091EB0088608093EB001092E900809125
:107DE000E800877F51C0882309F06DC01091B90168
:107DF0001F770FB7F8948091E800877F8093E800A1
:107E00009ADD8091E80080FFFCCF8091E3008078CC
:107E1000812B8093E30080688093E300112311F4A9
:107E200082E001C083E08EBB0FBF4DC0805882301E
:107E300008F049C08091B9019091BA016091BB01ED
:107E4000AE014F5F5F4F36DDBC01009709F43BC0C8
:107E50008091E800877F8093E80089819A8192DE93
:107E60008091E8008B778093E8002DC0803859F529
:107E70008091E800877F8093E8008091B50180932E
:107E8000F1008091E8008E778093E80054DD1BC0FC
:107E90008823C9F49091B9019230A8F48091E80048
:107EA000877F8093E8009093B50145DD8091B5010F
:107EB000882331F48091E30087FD02C081E001C096
:107EC00084E08EBB50DC8091E80083FF0AC0809183
:107ED000EB0080628093EB008091E800877F8093C5
:107EE000E8000F900F90CF91DF911F910F910895AF
:107EF00008951F938EB3882361F01091E9001092CA
:107F0000E9008091E80083FF01C0E4DE1770109360
:107F1000E9001F910895F999FECF92BD81BDF89AAD
:107F2000992780B50895262FF999FECF1FBA92BDE3
:107F300081BD20BD0FB6F894FA9AF99A0FBE01964A
:067F40000895F894FFCF44
:107F46004341544552494E41007700080000000065
:107F5600000008011201100102000008412341003F
:107F660001000201000109023E00020100803209FF
:107F7600040000010202010005240010010424028D
:107F8600040524060001070582030800FF09040111
:107F960000020A000000070504021000010705831D
:107FA6000210000104030904220341007200640068
:107FB600750069006E006F002000590075006E00A4
:107FC60020002000200020002000000018034100AF
:107FD60072006400750069006E006F0020004C009E
:067FE6004C004300000006
:040000030000700089
:00000001FF
