:100000000C944F010C9477010C9477010C947701B8
:100010000C9477010C9477010C9477010C94770180
:100020000C9477010C9477010C94670A0C94D90A0C
:100030000C9477010C9477010C9477010C94770160
:100040000C9477010C9477010C9477010C94770150
:100050000C9477010C9477010C9477010C948B131A
:100060000C9477010C94E5050C94BF050C94770172
:100070000C9477010C9477010C9477010C94770120
:100080000C9477010C9477010C9477010C94770110
:100090000C9477010C9477010C9477010C94770100
:1000A0000C9477010C9477010C947701F211F511FF
:1000B000E411E811EE11161216121612F911FD11C3
:1000C000011207120B1216121112A912AE12B3125C
:1000D000BD12C712111311131113D112DB12E51245
:1000E000EF12FC121113041372756E2D62726964A3
:1000F00067650A000A000A006572726F723A206929
:100100006E76616C6964206D6F6465200020636F9A
:100110006E66696775726564206173204F5554502F
:100120005554210050696E20440020636F6E66694B
:10013000677572656420617320494E5055542100E3
:1001400050696E2044006572726F720020726561A2
:10015000647320616E616C6F67200050696E20418E
:10016000002073657420746F20616E616C6F67206E
:100170000050696E20440000000000230026002982
:10018000002C002F002073657420746F20005069CC
:100190006E204400302E302E302E30003132372E7B
:1001A000302E302E3100080B00020202010009043B
:1001B00000000102020000052400100105240101D5
:1001C000010424020605240600010705810310002E
:1001D0004009040100020A00000007050202400075
:1001E0000007058302400000040309041201000215
:1001F000EF020140412341800001010203014172ED
:100200006475696E6F204C4C430041726475696E71
:100210006F2059756E00070605040100080A0B0CD3
:100220000D0900000000240027002A002D003000E6
:1002300000000000250028002B002E0031000404DF
:10024000040404030405020202020403020202027F
:100250000606060606060404020202040404080256
:10026000011040804010204080408008020401803E
:1002700040201002011080102040402000000002A9
:1002800000090F0000030401000C00000000000042
:10029000000000000000000000000000FD1A112412
:1002A0001FBECFEFDAE0DEBFCDBF24E0A0E9B2E0B1
:1002B00001C01D92A330B207E1F712E0A0E0B1E067
:1002C000E8E0F1E402C005900D92A039B107D9F73A
:1002D00011E0CFE4D1E004C02197FE010E94771E17
:1002E000CE34D107C9F70E94D5130C9482200C9408
:1002F00000000E946420CF92DF92EF92FF920F9352
:100300001F93CF93DF936C017A018B01C0E0D0E0A3
:10031000CE15DF0581F0D8016D918D01D601ED91EB
:10032000FC910190F081E02DC6010995892B11F017
:100330002196EECF7E01C701DF91CF911F910F91E2
:10034000FF90EF90DF90CF900895FC01538D448D86
:10035000252F30E0842F90E0821B930B541710F070
:10036000CF96089501970895FC01918D828D98177D
:1003700061F0828DDF01A80FB11D5D968C91928D89
:100380009F5F9F73928F90E008958FEF9FEF089586
:10039000FC01918D828D981731F0828DE80FF11D4F
:1003A000858D90E008958FEF9FEF0895FC01918D6A
:1003B000228D892F90E0805C9F4F821B91098F7363
:1003C0009927089582EE92E00E94D60121E0892BC0
:1003D00009F420E0822F0895FC01848DDF01A80F2D
:1003E000B11DA35ABF4F2C91848D90E001968F735D
:1003F0009927848FA689B7892C93A089B1898C917C
:1004000082748C93938D848D981306C00288F3892F
:10041000E02D80818F7D80830895EF92FF920F936E
:100420001F93CF93DF93EC0181E0888F9B8D8C8DA0
:10043000981305C0E889F989808185FD26C0F62ECC
:100440000B8D10E00F5F1F4F0F731127E02E8C8D67
:10045000E8120CC00FB607FCFACFE889F989808151
:1004600085FFF5CFCE010E94EC01F1CF8B8DFE010F
:10047000E80FF11DE35AFF4FF0829FB7F8940B8FFE
:10048000EA89FB898081806209C09FB7F894EE8970
:10049000FF896083E889F9898081827480839FBFA6
:1004A00081E090E0DF91CF911F910F91FF90EF904D
:1004B0000895CF93DF93EC01888D8823C9F0EA89F2
:1004C000FB89808185FD05C0A889B9898C9186FD4D
:1004D0000FC00FB607FCF5CF808185FFF2CFA8894A
:1004E000B9898C9185FFEDCFCE010E94EC01E7CF59
:1004F000DF91CF91089580E090E0892B29F00E9450
:10050000E20181110C94000008950895FB012785F4
:10051000FC012787FB012685FC0126870895FC0145
:1005200087850895089580E090E00895AF92BF9286
:10053000CF92DF92EF92FF920F931F93CF93DF93AF
:1005400000D0CDB7DEB7FC0187858823B1F05A0112
:100550009B018CE6898386858A83C12CD12CE12C72
:10056000F12C8A0142E050E0BE016F5F7F4F84852D
:1005700095850E94430DC50102C080E090E00F9078
:100580000F90DF91CF911F910F91FF90EF90DF902F
:10059000CF90BF90AF900895CF93DF93EC010E946E
:1005A0000C0A8889882331F08989C80FD11D8A896E
:1005B00090E002C08FEF9FEFDF91CF910895CF922F
:1005C000DF92EF92FF920F931F93CF93DF93EC0193
:1005D0006A017B0100E010E08889811106C0CE012C
:1005E0000E940C0A8889882399F00F5F1F4F898920
:1005F00091E0980F998BFE01E80FF11D8289F701B8
:1006000081937F0188898150888B0C151D0520F30B
:10061000C801DF91CF911F910F91FF90EF90DF9074
:10062000CF900895CF93DF93EC010E940C0A888944
:10063000882359F08150888B898991E0980F998B94
:10064000C80FD11D8A8990E002C08FEF9FEFDF9124
:10065000CF910895CF93DF93EC010E940C0A888913
:1006600090E0DF91CF910895FC0124813581232B07
:1006700031F421E061157105A1F0FB0108C0FC0116
:10068000808191816115710531F421E0FC01808147
:10069000882339F005C00E94722021E0892B09F0DF
:1006A00020E0822F08950F931F93CF93DF93EC01E7
:1006B00088819981009729F02A813B812617370785
:1006C00088F48B016F5F7F4F0E949E1F009761F03F
:1006D000998388831B830A832C813D81232B11F40A
:1006E000FC01108281E001C080E0DF91CF911F9179
:1006F0000F910895EF92FF920F931F93CF93DF9383
:100700006115710511F480E01CC041155105C1F05F
:100710007B01EC018C819D818A01080F191FB801B2
:10072000CE010E945303882371F3288139818C8183
:100730009D81B701820F931F0E947B201D830C8334
:1007400081E0DF91CF911F910F91FF90EF9008957D
:100750006115710551F0FB0101900020E9F7319717
:10076000AF01461B570B0C947A0380E00895CF939A
:10077000DF93EC0188819981009711F00E94151F89
:10078000198218821D821C821B821A82DF91CF91EE
:100790000895FC01808191810C94151FAF92BF9246
:1007A000CF92DF92EF92FF920F931F93CF93DF933D
:1007B000CDB7DEB72A970FB6F894DEBF0FBECDBF18
:1007C0005C018EE48F83F501868197819887898704
:1007D0001A8219821C821B821E821D8269E070E0CF
:1007E000CE0101960E945303811105C0CE010196EE
:1007F0000E94B7030AC089E090E09E838D836CE974
:1008000071E089819A810E94851BF50181858111A2
:1008100017C067E070E0CE0101960E94530381117A
:1008200005C0CE0101960E94B7030AC087E090E0A0
:100830009E838D8364E971E089819A810E94851B82
:100840000D811E8129813A81CC24C394D12CCE0103
:100850000A967C0143E050E0BE01695F7F4FF501DD
:10086000848195810E94430D81E09A85913009F041
:1008700080E0F5018087CE0101960E94C9032A9687
:100880000FB6F894DEBF0FBECDBFDF91CF911F91A1
:100890000F91FF90EF90DF90CF90BF90AF900895B1
:1008A000EF92FF920F931F93CF93DF93EC01198286
:1008B00018821B821A821D821C826115710521F12A
:1008C0008B01FB0101900020E9F731977F01E61AC7
:1008D000F70AB7010E945303811109C0CE01DF91CD
:1008E000CF911F910F91FF90EF900C94B703FD8271
:1008F000EC82B80188819981DF91CF911F910F918E
:10090000FF90EF900C947B20DF91CF911F910F917E
:10091000FF90EF900895CF92DF92EF92FF920F93A6
:100920001F93CF93DF9300D000D000D0CDB7DEB7B8
:100930007C018B016A0168EF71E0CE0101960E9493
:10094000500462E170E0CE0101960E945303D80189
:1009500012966C91CE0101960E943C0A6EE2CE0185
:1009600001960E945510F8016381CE0101960E9404
:100970003C0A6EE2CE0101960E945510D8011496F1
:100980006C91CE0101960E943C0A6EE2CE01019666
:100990000E945510F8016581CE0101960E943C0A23
:1009A00069817A81D701ED91FC910088F189E02D70
:1009B000A601C70109958C01CE0101960E94C903C9
:1009C000C80126960FB6F894DEBF0FBECDBFDF91EB
:1009D000CF911F910F91FF90EF90DF90CF900895EE
:1009E000DC01ED91FC910190F081E02D0994EF92F2
:1009F000FF920F931F93CF93DF938C017B01C0E095
:100A0000D0E0F701EC0FFD1F6491662361F0D8017F
:100A1000ED91FC910190F081E02DC8010995892BA1
:100A200011F02196EECFCE01DF91CF911F910F9162
:100A3000FF90EF9008956115710579F0FB01019029
:100A40000020E9F73197AF01461B570BDC01ED9110
:100A5000FC910280F381E02D099480E090E00895FC
:100A60008F929F92AF92BF92EF92FF920F931F933C
:100A7000CF93DF93CDB7DEB7A1970FB6F894DEBF63
:100A80000FBECDBF7C01FA01CB0119A2223008F4C0
:100A90002AE08E010F5D1F4F822E912CA12CB12CCC
:100AA000BF01A50194010E94551EF901CA01015020
:100AB00011096A3014F4605D01C0695CD8016C935F
:100AC000232B242B252B61F7B801C7010E941B059E
:100AD000A1960FB6F894DEBF0FBECDBFDF91CF91C8
:100AE0001F910F91FF90EF90BF90AF909F908F90CC
:100AF00008958F929F92AF92BF92CF92DF92EF9222
:100B0000FF920F931F93CF93DF937C018B016C01B6
:100B100082E0C80ED11C4701E5E08E0E911CC0E0BA
:100B2000D0E0F60141916F0150E060E070E02AE012
:100B3000C8010E9430055C016EE2C8010E94F00409
:100B40008A0D9B1DC80FD91FC814D90451F7F7018E
:100B5000458150E060E070E02AE0C8010E94300565
:100B60008C0F9D1FDF91CF911F910F91FF90EF9000
:100B7000DF90CF90BF90AF909F908F9008951F927D
:100B80000F920FB60F9211242F933F934F935F93C1
:100B90006F937F938F939F93AF93BF93EF93FF9345
:100BA00082EE92E00E94EC01FF91EF91BF91AF9134
:100BB0009F918F917F916F915F914F913F912F9175
:100BC0000F900FBE0F901F9018951F920F920FB6A7
:100BD0000F9211242F938F939F93EF93FF93E091A4
:100BE000F202F091F3028081E091F802F091F902B3
:100BF00082FD12C090818091FB028F5F8F732091E4
:100C0000FC02821751F0E091FB02F0E0EE51FD4F43
:100C1000958F8093FB0201C08081FF91EF919F919E
:100C20008F912F910F900FBE0F901F901895CF931B
:100C3000DF93EC018D819E81DC01ED91FC910084BC
:100C4000F185E02D09951816190654F48D819E81C1
:100C5000DC01ED91FC910284F385E02D0995EACF4A
:100C6000DF91CF9108958F929F92AF92BF92CF92D2
:100C7000DF92EF92FF92CF93DF93EC016B010E9422
:100C80007F134B015C01E12CF12C8D819E81DC01F5
:100C9000ED91FC910284F385E02D099597FF0FC03B
:100CA0000E947F13DC01CB0188199909AA09BB09AD
:100CB0008C159D05AE05BF0540F38FEF9FEFDF91CB
:100CC000CF91FF90EF90DF90CF90BF90AF909F902B
:100CD0008F900895FC01238134812627022E2295CE
:100CE000207F2025032E322F22952F700226269555
:100CF00032272327220F220F220F2025348323831C
:100D00000895CF92DF92EF92FF920F931F936801A5
:100D1000790100E010E020E030E00E94430D1F91D7
:100D20000F91FF90EF90DF90CF900895AF92BF9218
:100D3000CF92DF92EF92FF920F931F93CF93DF93A7
:100D4000CDB7DEB727970FB6F894DEBF0FBECDBF85
:100D50005C019B0183E489835A834B83FB010190EF
:100D60000020E9F731978F01061B170BCC24C394A1
:100D7000D12CCE0106967C0143E050E0BE016F5FAE
:100D80007F4FD5011C968D919C911D970E94430D1C
:100D9000892BC1F18E81F501868793E69C838D8333
:100DA00001E010E09E01295F3F4F42E050E0BE01AC
:100DB0006C5F7F4FD5011C968D919C911D970E9471
:100DC00081068F81882339F061E070E080E090E057
:100DD0000E944513E5CF81E0F50187870190F081FE
:100DE000E02D0688F789E02DC501099581110DC018
:100DF000D501ED91FC910488F589E02DC501099597
:100E0000F501168680E090E002C081E090E0279630
:100E10000FB6F894DEBF0FBECDBFDF91CF911F910B
:100E20000F91FF90EF90DF90CF90BF90AF9008951B
:100E3000EF92FF920F931F93CF93DF9300D01F92F7
:100E4000CDB7DEB7DC011F962C911F97222301F14D
:100E50007C01ED91FC910084F185E02D0995892BB1
:100E6000C9F48CE48983F70186858A8301E010E068
:100E70009E012D5F3F4F42E050E0BE016F5F7F4F0C
:100E8000848595850E94810681E09B81913019F0CF
:100E900080E001C081E00F900F900F90DF91CF9123
:100EA0001F910F91FF90EF9008950F931F9300E013
:100EB00010E020E030E00E9481061F910F9108951C
:100EC000CF93DF9300D0CDB7DEB722E629836A83C4
:100ED00042E050E0BE016F5F7F4FFC01848195814D
:100EE0000E94550781E090E00F900F90DF91CF9125
:100EF0000895CF93DF9300D01F92CDB7DEB7FC01EA
:100F00002785222389F08CE6898386858A836B83F3
:100F100043E050E0BE016F5F7F4F848595850E945E
:100F2000550781E090E002C080E090E00F900F90C4
:100F30000F90DF91CF9108950F931F93CF93DF937D
:100F400000D0CDB7DEB78C01FC018785882369F01E
:100F50008AE6898386858A8342E050E0BE016F5F1E
:100F60007F4F848595850E945507F8011786108A62
:100F7000118A0F900F90DF91CF911F910F910895DB
:100F80002091D302211103C08FEF9FEF08955FB727
:100F9000F89422E02093E9002091F20030E012164C
:100FA000130614F421E030E0422FFC0184E64150A6
:100FB00038F028988093D2029091F1009193F7CF66
:100FC0002115310521F08091F200882319F05FBFCF
:100FD000C90108958BE68093E800F9CF2FB7F89404
:100FE00083E08093E9009091E800892F807295FF5B
:100FF00004C09091F20080E4891B2FBF0895809176
:10100000DA0281110DC082E08093D60284E08093E1
:10101000D7021092D9021092D80281E08093DA02AE
:1010200086ED92E00895CF93DF931F92CDB7DEB7A0
:101030006983DC01ED91FC910280F381E02D41E0B8
:1010400050E0BE016F5F7F4F09950F90DF91CF9108
:10105000089583E08093E9008091F200882319F0DD
:101060008AE38093E80008950E94EE0790E00895D7
:10107000CF93DF931F92CDB7DEB7FC0184859585B2
:1010800097FD05C02FEF3FEF358724870BC0CE01BA
:1010900001960E94C007019719F4898190E002C06F
:1010A0008FEF9FEF0F90DF91CF9108950F931F93D4
:1010B000CF93DF931F92CDB7DEB78C01FC018485FF
:1010C000958597FF0EC0CE0101960E94C00701973B
:1010D00019F4898190E002C08FEF9FEFF8019587A6
:1010E0008487F801848595850F90DF91CF911F91BA
:1010F0000F910895FC018485958597FD0BC09FB7DE
:10110000F89482E08093E9008091F2009FBF90E024
:10111000019608959FB7F89482E08093E90080914A
:10112000F2009FBF90E008958F929F92AF92BF927E
:10113000CF92DF92EF92FF920F931F93CF93DF93A3
:101140006C017B018A0180910B01882309F45CC04A
:101150008091D302882309F457C08091D10280FF87
:1011600005C08091E00082608093E000E801B12C2E
:101170008AEFA82E93E0892E2AE3922E209711F46D
:10118000BB20D9F10E94EE0781110AC0AA94AA20BF
:10119000D9F161E070E080E090E00E944513EECF6D
:1011A000282F30E0C217D3070CF48C2F9FB7F89488
:1011B0008092E9002091E80025FF1DC0282F30E033
:1011C000C21BD30BF701815020F041914093F100F5
:1011D000FACFE20EF31EBB2019F09092E8000AC08D
:1011E0008091E80085FD07C09092E800BB24B3948D
:1011F000209709F0B12C9FBFC1CF5D9884E6809302
:10120000D5021016110644F081E090E0F6019383B8
:10121000828380E090E001C0C801DF91CF911F91EF
:101220000F91FF90EF90DF90CF90BF90AF909F9085
:101230008F900895DF92EF92FF920F931F93CF93B9
:10124000DF93D82EF92EE42E062F10E0C801019668
:10125000880F0E949F1183E00E949F11CD2DDF2DEA
:101260000C0F1D1FC017D10789F0E7FE03C0FE0158
:10127000849101C088810E949F11F82E80E00E9415
:101280009F118F2121968111EDCF01C081E0DF9167
:10129000CF911F910F91FF90EF90DF900895DF9213
:1012A000EF92FF920F931F93CF93DF93D82E8A0173
:1012B0007B01E40EF51EEB01CE15DF0571F0D7FEC4
:1012C00003C0FE01849101C088810E949F11219674
:1012D0008111F2CF8FEF9FEF01C0C801DF91CF9155
:1012E0001F910F91FF90EF90DF9008950F931F9340
:1012F000CF93DF931F92CDB7DEB782E0898342E4BC
:1013000050E066EA71E080E80E944F090E94FF0702
:10131000DC0112960D911C9113970115110589F0AE
:10132000D801ED91FC910280F381E02DBE016F5F49
:101330007F4FC801099597FD04C0F801008511850C
:10134000ECCF89810F90DF91CF911F910F9108957C
:10135000CF92DF92EF92FF921F93CF93DF93EC0136
:10136000CE010E94E210FC0197FD0AC08D3291056A
:1013700059F0C0970A9740F0CE010E941203F0CFB7
:1013800060E070E0CB0140C0C12CD12C760110E0B0
:10139000E130F10501F1ED32F105E1F0CF01C09747
:1013A0000A97C8F4AAE0B0E0A70196010E94E51CE4
:1013B0006F01FF0FEE08FF08DC01CB018C0D9D1DB6
:1013C000AE1DBF1D6C017D0120E3C21AD108E108EA
:1013D000F10801C011E0CE010E941203CE010E946B
:1013E000E210FC01C0970A9798F2E130F10581F212
:1013F000112341F066277727CB016C197D098E09EF
:101400009F0902C0C701B601DF91CF911F91FF90E4
:10141000EF90DF90CF900895EF92FF920F931F937C
:10142000CF93DF9300D01F92CDB7DEB7FC012089A8
:10143000211118C07C01118A8BE4898380E48B839D
:1014400086858A839F012E5E3F4F00E410E043E0D3
:1014500050E0BE016F5F7F4F848595850E948106B5
:10146000F701808B0F900F900F90DF91CF911F911C
:101470000F91FF90EF900895EF92FF920F931F93BB
:10148000CF93DF9300D000D0CDB7DEB77C01862F9D
:101490004AE08E010F5F1F4FB80190E00E948C1B45
:1014A000F80101900020E9F73197AF01401B510B83
:1014B000B801C7010E947A030F900F900F900F9010
:1014C000DF91CF911F910F91FF90EF9008951F92A0
:1014D0000F920FB60F9211248F939F938091E1008A
:1014E0009091E100937F9093E10083FF0FC01092F1
:1014F000E90091E09093EB001092EC0092E390935E
:10150000ED001092D30298E09093F00082FF20C08B
:1015100093E09093E9009091F200992319F09AE3F7
:101520009093E8009091D502992339F09091D502DB
:1015300091509093D502992389F19091D2029923E9
:1015400039F09091D20291509093D202992341F1B7
:1015500084FF10C08091E2008E7E81608093E20063
:101560008091E1008F7E8093E1008091D1028E7E98
:10157000806111C080FF16C08091E2008E7E806184
:101580008093E2008091E1008E7E8093E100809163
:10159000D1028E7E81608093D10204C05D9ACDCF4E
:1015A000289AD6CF9F918F910F900FBE0F901F90CA
:1015B00018951F920F920FB60F921124CF92DF92BF
:1015C000EF92FF920F931F932F933F934F935F934D
:1015D0006F937F938F939F93AF93BF93EF93FF93FB
:1015E000CF93DF93CDB7DEB76C97DEBFCDBF109240
:1015F000E9008091E80083FFFBC168E0CE014596D9
:101600000E94CD1182EF8093E8008D8987FF05C08D
:101610009091E80090FFFCCF03C09EEF9093E8000C
:10162000982F907609F0C6C09E894F89588D2F89D2
:10163000F88C91110CC0803829F48091D0028093ED
:10164000F10002C01092F1001092F10045C19130FA
:1016500051F4811141C14130510509F03DC18091E2
:10166000D0028D7F0BC0933061F4811135C14130C0
:10167000510509F031C18091D00282608093D0027F
:101680002BC1953049F48091E80080FFFCCF822F78
:1016900080688093E30020C1963009F05EC00B8D16
:1016A0001C8D22E01092E9001092CF021092CE021F
:1016B000F21232C01092CD021092CC020E94760932
:1016C00099E0BE016F5F7F4FDB01E92F1D92EA9524
:1016D000E9F79983FA8291E09E8390EA98879AEFDE
:1016E00099872091CE023091CF02275F3F4F3C83F4
:1016F0002B838D831092E9001092CF021092CE02BC
:101700001093CD020093CC0249E050E080E00E94AB
:101710004F090E947609E0C01093CD020093CC02DD
:101720000E94FF07DC0112960D911C911397011581
:10173000110509F4BBC0D801ED91FC910480F5813D
:10174000E02DBE016B5E7F4FC8010995009709F03F
:10175000C7C0F80100851185EACF973009F445C16B
:10176000983021F481E08093F100B6C0993009F0FF
:10177000B3C0837009F039C1EDE1F1E081E031E0FF
:1017800096E32081211109C08EE78093EA00109230
:10179000EA008F898093D3029FC08093E900309341
:1017A000EB0021912093EC009093ED008F5F873048
:1017B00041F7EACF8B8D9C8D1092E9001092CF02F9
:1017C0001092CE029093CD028093CC02898D81112C
:1017D00053C08E899D89913A49F4813209F005C13F
:1017E00047E050E064E071E080E0BBC0913209F076
:1017F000FCC0833269F48F89988DA0E0B0E08093BB
:10180000000190930101A0930201B093030164C011
:10181000803269F48091E80082FFFCCF67E084E0C9
:1018200091E00E94CD118BEF8093E80055C0823289
:1018300009F052C08F8980930B01EEEFFFE785918D
:1018400094918B3F9C4D19F0E0E0F8E002C0EEEF80
:10185000FAE08091040190910501A0910601B091F8
:101860000701803B9440A105B10509F09EC080911D
:101870000B0180FF79C099C00E94FF07FC01028123
:1018800013810115110509F4B0C0D801ED91FC9147
:101890000190F081E02DBE016B5E7F4FC80109957C
:1018A00081111AC0F80100851185EBCFF1E0FF1618
:1018B00009F44EC0F3E0FF1298C08F89882309F421
:1018C0004AC0823089F440E86BE08AE092E00E94EE
:1018D0001A09882309F489C08EEF8093E80088C034
:1018E00018161906CCF381C0813029F440E86BE06A
:1018F0008EEF91E0ECCF833009F077C00E94FF07B4
:10190000DC011296ED90FC9013978E010F5F1F4F34
:101910006801E114F10479F0D701ED91FC910680A2
:10192000F781E02DB801C7010995080F111DF701D6
:10193000E084F184EECFD8011C92F60101900020E2
:10194000E9F73197BF016C197D0940E0C601BFCFAF
:101950006CEE71E002C068EE71E0FB01449150E072
:1019600080E80E944F09B8CFEE3F2AE0F20751F01D
:10197000808191818737A7E79A0721F09093FF0A2A
:101980008093FE0A87E797E79183808380916000C8
:101990008093D4029BE088E10FB6F894A8958093D9
:1019A00060000FBE9093600097CF80819181873750
:1019B000974709F091CFA895809160008861809346
:1019C00060008091D40280936000EE3FBAE0FB0794
:1019D00039F08091FE0A9091FF0A918380837CCF39
:1019E0001092FF0A1092FE0A77CF81E28093EB00FB
:1019F0006C960FB6F894DEBF0FBECDBFDF91CF91CE
:101A0000FF91EF91BF91AF919F918F917F916F91D6
:101A10005F914F913F912F911F910F91FF90EF9008
:101A2000DF90CF900F900FBE0F901F9018950F93DF
:101A30001F93CF93DF93EC010E947F136887798710
:101A40008A879B87CE010E94120397FF17C00E94CE
:101A50007F13088519852A853B85DC01CB01801B16
:101A6000910BA20BB30B0C811D812E813F8180173E
:101A70009107A207B30730F38FEF9FEFDF91CF916C
:101A80001F910F9108952F923F924F925F926F9204
:101A90007F928F929F92AF92BF92CF92DF92EF92FE
:101AA000FF920F931F93CF93DF93CDB7DEB72E979F
:101AB0000FB6F894DEBF0FBECDBF9E878D873B016A
:101AC00029019A01200F311F3A8329838A80912CA2
:101AD00022242A94322CCB01840F951F98878F8360
:101AE000D201A00FB11FBA87A987F701EC0DFD1D28
:101AF000FC87EB87AD85BE8518968C911897981654
:101B000008F03FC114963C922E92139715968D9132
:101B10009C911697DC01ED91FC910190F081E02DF4
:101B20006FEF09956FEF8D859E850E946A06ED85A2
:101B3000FE8585819681DC01ED91FC910190F0811B
:101B4000E02DAD85BE856C910995ED85FE856081A2
:101B5000CF010E946A06AD85BE8515968D919C9138
:101B60001697DC01ED91FC910190F081E02D682D3C
:101B70000995682D8D859E850E946A06ED85FE85F6
:101B800085819681DC01ED91FC910190F081E02D41
:101B90006981099569818D859E850E946A06530138
:101BA000EF81F885AE16BF06C1F0AD85BE851596EE
:101BB0008D919C9116978501DC01ED91FC9101902E
:101BC000F081E02DD5016D915D010995F8016081ED
:101BD0008D859E850E946A06E3CF8201AD85BE8514
:101BE00015968D919C911697E985FA850E171F071A
:101BF00091F05801DC01ED91FC910190F081E02D14
:101C0000D8016D918D010995F50160818D859E85C5
:101C10000E946A06E3CFAD85BE8514966C91DC0107
:101C2000ED91FC910190F081E02D0995ED85FE8507
:101C300085819681DC01ED91FC910190F081E02D90
:101C4000AD85BE8513966C91099568EC70E08D8525
:101C50009E850E9433068F3F910509F086C0ED8571
:101C6000FE85348223826FEFCF010E946A0665E011
:101C700070E08D859E850E943306AD85BE856C9192
:101C8000262F30E08217930709F06FC0CD010E9424
:101C90006A066AE070E08D859E850E9433065C01CD
:101CA00097FD63C0682F8D859E850E946A066AE055
:101CB00070E08D859E850E9433068C0197FD55C08E
:101CC000682F8D859E850E946A06AC821B82EB81FF
:101CD000FC810E0F1F1F57019701200F311F3E83FC
:101CE0002D838D819E81A816B906C1F0AB85BC8578
:101CF000AA16BB0699F065E070E08D859E850E946E
:101D0000330697FD07C0F5018083682F8D859E857A
:101D10000E946A06FFEFAF1ABF0AE3CF65E070E0EA
:101D20008D859E850E9433065C0197FD1EC065E08F
:101D300070E08D859E850E94330697FD16C0BA2CF3
:101D4000AA248A0D9B1DAD85BE8513962D913C91CD
:101D500014978217930749F48C918F5F8C93C80175
:101D6000C016D10680F4C6010EC0939464E670E0FC
:101D700080E090E00E9445138D859E850E941706A5
:101D8000B9CE8FEF9FEF2E960FB6F894DEBF0FBE41
:101D9000CDBFDF91CF911F910F91FF90EF90DF901A
:101DA000CF90BF90AF909F908F907F906F905F90FB
:101DB0004F903F902F900895DC01FB018281938129
:101DC00013969C938E9312974481558166817781F7
:101DD00014964D935D936D937C9317974085518531
:101DE0006285738518964D935D936D937C931B97D5
:101DF00085E491E011969C938E93848595851D963C
:101E00009C938E931C9786851E968C931E97878530
:101E10001F968C931F97808950968C935097818939
:101E200051968C93519780E47296529601900D9240
:101E30008A95E1F70895CF92DF92EF92FF920F9388
:101E40001F93CF93DF93CDB7DEB762970FB6F894A9
:101E5000DEBF0FBECDBF8C01CB01F8011182108215
:101E600013821282158214824AE09E012F5F3F4F37
:101E70006901B9010E948C1BF60101900020E9F76D
:101E800031977F01EC18FD08B701C8010E94530388
:101E9000811104C0C8010E94B70308C0F801F5828F
:101EA000E482B601808191810E947B2062960FB608
:101EB000F894DEBF0FBECDBFDF91CF911F910F9180
:101EC000FF90EF90DF90CF9008950F931F93CF93E3
:101ED000DF93EC010E941B058C0166EF71E0CE01DF
:101EE0000E941B05800F911FDF91CF911F910F91D1
:101EF00008957F928F929F92AF92BF92CF92DF927E
:101F0000EF92FF920F931F93CF93DF938C016A019F
:101F10007B01722E9A01AB01C701B6010E94501ECF
:101F2000882319F062E872E027C046015701E8945F
:101F3000B7F82FEF3FEF4FE75FE7C501B4010E940D
:101F4000501E81110DC02FEF3FEF4FE75FE7C50136
:101F5000B4010E94C11B18161CF466E872E00CC0A4
:101F60002FEF3FEF4FE75FE4C701B6010E944B1E22
:101F7000181694F46AE872E0C801DF91CF911F91BE
:101F80000F91FF90EF90DF90CF90BF90AF909F9018
:101F90008F907F900C941B052FEF3FEF4FE75FEC86
:101FA000C701B6010E94C11B87FDE4CF20E030E0ED
:101FB000A901C701B6010E94C11B87FF0AC06DE2DB
:101FC000C8010E94F004EC01F7FAF094F7F8F094DD
:101FD00002C0C0E0D0E0B12C60E070E080E09FE3A0
:101FE0007B1441F020E030E040E251E40E94A31D68
:101FF000B394F6CFA70196010E94371D6B017C01B7
:102000000E941C1E4B015C012AE0AB01BC01C8010F
:102010000E943005C80FD91F7720C1F1C501B40156
:102020000E94C61B9B01AC01C701B6010E94361D70
:102030006B017C016EE2C8010E94F004C80FD91F39
:1020400020E030E040E251E4C701B6010E94271CC5
:102050004B015C010E941C1E6B01E12CF12C2AE05B
:10206000B701A601C8010E943005C80FD91FC701DA
:10207000B6010E94C61B9B01AC01C501B4010E94C0
:10208000361D6B017C017A947110DACFCE01DF919D
:10209000CF911F910F91FF90EF90DF90CF90BF9065
:1020A000AF909F908F907F900895CF93DF9300D053
:1020B000CDB7DEB769831A8241E050E0BE016F5FA1
:1020C0007F4F0E947A030F900F90DF91CF91089578
:1020D000EF92FF920F931F93CF93DF93CDB7DEB7AD
:1020E00028970FB6F894DEBF0FBECDBF7C01CB01A1
:1020F0004AE08E010F5F1F4FB8010E948C1BF80150
:1021000001900020E9F73197AF01401B510BB80156
:10211000C7010E947A0328960FB6F894DEBF0FBE5F
:10212000CDBFDF91CF911F910F91FF90EF90089558
:10213000CF92DF92EF92FF920F931F93CF93DF9393
:102140006B01770FEE08FF08F7FE1BC0EC016DE294
:102150000E94F0048C0144275527BA014C195D09EF
:102160006E097F092AE0CE010E943005800F911F81
:10217000DF91CF911F910F91FF90EF90DF90CF9063
:1021800008952AE0B701A601DF91CF911F910F9129
:10219000FF90EF90DF90CF900C9430050F931F933A
:1021A000CF93DF93EC010E9498108C0166EF71E0F1
:1021B000CE010E941B05800F911FDF91CF911F91CF
:1021C0000F9108950F931F93CF93DF93EC010E941B
:1021D0007F13688779878A879B87CE010E94CC020C
:1021E00097FF17C00E947F13088519852A853B85B4
:1021F000DC01CB01801B910BA20BB30B0C811D8169
:102200002E813F8180179107A207B30730F38FEF2C
:102210009FEFDF91CF911F910F910895EF92FF9261
:102220000F931F93CF93DF93EC017B01042F68EF93
:1022300071E00E945004C7010E94170D002E000C8F
:10224000110B97FD0BC08017910741F0682FCE014D
:102250000E945510C7010E94170DF3CFCE01DF91E8
:10226000CF911F910F91FF90EF900895EF92FF9201
:102270000F931F93CF93DF93CDB7DEB727970FB69A
:10228000F894DEBF0FBECDBF7C018B0165E672E026
:10229000CE0101960E945004B701CE0101960E9422
:1022A000A8036EE872E0CE0101960E94A803B8016F
:1022B000CE0101960E94A8034D815E8169817A81D9
:1022C00001E010E09E01295F3F4F8FE793E00E94FD
:1022D0008106CE0101960E94C90327960FB6F89495
:1022E000DEBF0FBECDBFDF91CF911F910F91FF9049
:1022F000EF9008953FB7F8948091FB039091FC0311
:10230000A091FD03B091FE0326B5A89B05C02F3F09
:1023100019F00196A11DB11D3FBFBA2FA92F982F0B
:102320008827820F911DA11DB11DBC01CD0142E086
:10233000660F771F881F991F4A95D1F7089540911E
:10234000CE025091CF022091CC023091CD024217A3
:102350005307B4F49091E8009570E1F39091E80090
:1023600092FD19C08093F1008091CE029091CF022E
:1023700001968F739927892B19F48EEF8093E800CB
:102380008091CE029091CF0201969093CF028093DC
:10239000CE0281E0089580E00895615030F02091F0
:1023A000F100FC0120830196F8CF289884E6809301
:1023B000D202089590E0FC013197EF30F105B0F5BD
:1023C000EA5AFF4F0C94771E809180008F7703C0EC
:1023D000809180008F7D809380000895809180009F
:1023E000877FF9CF84B58F7702C084B58F7D84BD98
:1023F0000895809190008F7707C0809190008F7D25
:1024000003C080919000877F809390000895809111
:10241000C0008F7703C08091C0008F7D8093C00083
:1024200008958091C200877F8093C20008951F9312
:10243000CF93DF93282F30E0F901E458FD4F8491CA
:10244000F901E35AFD4FD491F901E25CFD4FC491CB
:10245000CC23C1F0162F81110E94DA11EC2FF0E08D
:10246000EE0FFF1FE05DFD4FA591B4919FB7F8946B
:10247000111104C08C91D095D82302C0EC91DE2BB1
:10248000DC939FBFDF91CF911F910895CF93DF938E
:1024900090E0FC01E35AFD4F2491FC01E25CFD4F0A
:1024A0008491882361F190E0880F991FFC01EE5D13
:1024B000FD4FC591D491FC01E05DFD4FA591B49114
:1024C000611109C09FB7F894888120958223888381
:1024D000EC912E230BC0623061F49FB7F894888191
:1024E000322F309583238883EC912E2B2C939FBF22
:1024F00006C08FB7F894E8812E2B28838FBFDF9119
:10250000CF9108951F93CF93DF93182FEB0161E0D4
:102510000E944612209711F460E004C0CF3FD1051D
:1025200039F461E0812FDF91CF911F910C94171244
:10253000E12FF0E0E458FD4FE4918E2F90E0FC0194
:102540003197EF30F10508F06CC0EB59FF4F0C9458
:10255000771E84B5806884BDC7BD68C084B58062BD
:1025600084BDC8BD63C08091800080688093800076
:10257000D0938900C093880059C080918000806208
:1025800080938000D0938B00C0938A004FC08091CD
:102590008000886080938000D0938D00C0938C0071
:1025A00045C080919000806880939000D0939900FE
:1025B000C09398003BC0809190008062809390000F
:1025C000D0939B00C0939A0031C0809190008860A6
:1025D00080939000D0939D00C0939C0027C0809171
:1025E000C00080688093C0008091C0008F7B809382
:1025F000C000C093CF001AC08091C0008062809359
:10260000C000C093D00012C08091C2008860809347
:10261000C2008091C2008B7F8093C200C093D20021
:1026200005C0C038D1050CF07CCF76CFDF91CF91BB
:102630001F910895823108F08251E82FF0E0EA5EA0
:10264000FD4FE49180917B00E3FB222720F930E0ED
:1026500095E0220F331F9A95E1F78F7D282B209369
:102660007B00E770E064E0937C0080917A008064F6
:1026700080937A0080917A0086FDFCCF809178006B
:102680002091790090E0922B08958F929F92AF92C3
:10269000BF92CF92DF92EF92FF926B017C010E947A
:1026A0007A114B015C01C114D104E104F104F1F091
:1026B0000E947A11DC01CB0188199909AA09BB098A
:1026C000883E9340A105B10570F321E0C21AD108FC
:1026D000E108F10888EE880E83E0981EA11CB11C69
:1026E000C114D104E104F10419F7DDCFFF90EF909C
:1026F000DF90CF90BF90AF909F908F9008952FB7AD
:10270000F8946091F7037091F8038091F903909128
:10271000FA032FBF08951F920F920FB60F92112444
:102720002F933F938F939F93AF93BF938091F70322
:102730009091F803A091F903B091FA033091F60358
:1027400023E0230F2D3720F40196A11DB11D05C0F4
:1027500026E8230F0296A11DB11D2093F603809356
:10276000F7039093F803A093F903B093FA038091D1
:10277000FB039091FC03A091FD03B091FE03019631
:10278000A11DB11D8093FB039093FC03A093FD0357
:10279000B093FE03BF91AF919F918F913F912F9185
:1027A0000F900FBE0F901F901895CF93DF93CDB76A
:1027B000DEB7CA51D1400FB6F894DEBF0FBECDBF11
:1027C000789484B5826084BD84B5816084BD85B50C
:1027D000826085BD85B5816085BD80916E00816018
:1027E00080936E00109281008091810082608093BE
:1027F00081008091810081608093810080918000C0
:10280000816080938000809191008260809391002C
:10281000809191008160809391008091900081600F
:10282000809390008091C10084608093C10080916A
:10283000C10082608093C1008091C100816080935B
:10284000C1008091C30081608093C3008091C0006B
:1028500082608093C0008091C20081608093C2003A
:1028600080917A00846080937A0080917A008260FF
:1028700080937A0080917A00816080937A008091C1
:102880007A00806880937A001092D3021092D0026E
:102890001092D1028091D70081608093D70080EAA6
:1028A0008093D80089B5806189BD89B5826089BD72
:1028B00009B400FEFDCF61E070E080E090E00E948E
:1028C00045138091D8008F7C80618093D8008091DF
:1028D000E000807F8093E0008091E1008E7E809315
:1028E000E1008DE08093E200559A209AE091880300
:1028F000F0918903A089B18982E08C93A485B58584
:102900001C92A685B78587E08C93108EA489B58923
:1029100086E08C93A289B3898C9180618C93A28983
:10292000B3898C9188608C93A289B3898C918068DB
:102930008C930288F389E02D80818F7D8083809144
:1029400086038111CEC081E0809386038FE793E0F8
:102950000E94170668EE73E080E090E00E94451345
:102960008091840390918503DC01ED91FC910084BA
:10297000F185E02D09951816190644F3FF24F39408
:1029800032E3E32E85E0E2E1F1E0DE01AD5ABF4F34
:1029900001900D928A95E1F7F092870345E050E0AF
:1029A000BE016D5A7F4F8FE793E00E94550763E0A9
:1029B00080918403909185030E94F0046AEF70E097
:1029C00080E090E00E94451366EF70E08091840300
:1029D000909185030E94F7046AEF70E080E090E038
:1029E0000E94451364EF70E0809184039091850309
:1029F0000E94F70464EF71E080E090E00E944513CC
:102A000068EE70E080918403909185030E94F70442
:102A100064EF71E080E090E00E9445138FE793E05F
:102A20000E94170685E0E7E1F1E0DE0111960190D2
:102A30000D928A95E1F7E092870304E010E09E0191
:102A40002B553F4F45E050E0BE016F5F7F4F8FE752
:102A500093E00E9481068F3FBFEF9B0739F468EE39
:102A600073E080E090E00E9445138CCFCB55DF4FA0
:102A70002881C55AD0402111FFCF049749F5CA5586
:102A8000DF4F2881C65AD04030E02053310984E618
:102A9000829FA001839F500D1124C955DF4F2881CB
:102AA000C75AD04030E0205331096AE0629FC0012C
:102AB000639F900D1124840F951FC855DF4F288107
:102AC000C85AD04030E020533109820F931F02C012
:102AD00084E690E0909381038093800382E3809367
:102AE000870360E083E10E94461261E089E00E9472
:102AF000461280E090E0A0E2B2E48093B8029093A6
:102B0000B902A093BA02B093BB0280E090E0A0EAC1
:102B1000B0E48093980290939902A0939A02B093A4
:102B20009B0240E050E068E473E4409394025093C9
:102B30009502609396027093970210929002109201
:102B4000910210929202109293028093A4029093A9
:102B5000A502A093A602B093A7028DEC9CECACEC6E
:102B6000BCE38093AC029093AD02A093AE02B0930D
:102B7000AF021092A0021092A1021092A202109233
:102B8000A3021092B0021092B1021092B2021092FF
:102B9000B3021092CB021092CA021092C902109294
:102BA000C80210929C0210929D0210929E021092F6
:102BB0009F021092C4021092C5021092C602109297
:102BC000C70281E0809393038AE893E00E94CE03DA
:102BD00098EE492E93E0592E612C712C2FE7222E6E
:102BE00023E0322E2BE664962FAF649701E010E0CD
:102BF0009E012F5F3F4F41E050E0BE016D5A7F4F75
:102C000080918E0390918F030E948106892B39F564
:102C1000C955DF4F19821882C75AD040C755DF4FB8
:102C2000488259826A827B82C95AD04045E451E089
:102C3000CB55DF4F59834883C55AD040CF54DF4F1F
:102C400039822882C15BD040CD54DF4F1882C35BEC
:102C5000D040CC54DF4F1882C45BD04028C089815B
:102C6000C955DF4F19821882C75AD040C755DF4F68
:102C7000488259826A827B82C95AD040A5E4B1E079
:102C8000CB55DF4FB983A883C55AD040CF54DF4F0F
:102C900039822882C15BD040CD54DF4F8883C35B2B
:102CA000D040B1E0CC54DF4FB883C45BD040CB54AC
:102CB000DF4F1882C55BD040CC54DF4F8881C45BA6
:102CC000D040882309F4C0C2BE016B557F4FCE01AE
:102CD0008D5A9F4F0E94DC0E4FE2BE016D5A7F4F0E
:102CE000CE01875F9E4F0E940E1167EB71E0CE010F
:102CF000875F9E4F0E943403882309F4F0C0BE0111
:102D00006D5A7F4FCE0101960E94DC0E4FE2BE014C
:102D10006F5F7F4FCE018D5F9E4F0E940E116CEB57
:102D200071E0CE0101960E94650F6CEC71E0CE015E
:102D300001960E94650F64EE71E0CE0101960E943B
:102D4000650F66EF71E0CE0101960E941B0569EFE9
:102D500071E0CE0101960E94650F69E072E0CE013C
:102D600001960E94650F66E172E0CE0101960E9415
:102D7000650F4091B8025091B9026091BA0270910A
:102D8000BB0222E0CE0101960E94790F6BE472E053
:102D9000CE0101960E941B054091C0025091C102D4
:102DA0006091C2027091C30222E0CE0101960E949E
:102DB000790F6BE472E0CE0101960E941B054091F1
:102DC000B4025091B5026091B6027091B70222E050
:102DD000CE0101960E94790F6BE472E0CE0101965C
:102DE0000E941B0540919C0250919D0260919E02A1
:102DF00070919F0222E0CE0101960E94790F6BE450
:102E000072E0CE0101960E941B05409198025091FC
:102E1000990260919A0270919B0222E0CE01019684
:102E20000E94790F6BE472E0CE0101960E941B05AF
:102E30004091940250919502609196027091970290
:102E400022E0CE0101960E94790F6BE472E0CE0180
:102E500001960E941B054091900250919102609151
:102E60009202709193022AE0CE0101960E94790F9E
:102E700066EF71E0CE0101960E941B056EE472E0E0
:102E8000CE0101960E94650F69E772E0CE01835082
:102E90009F4F0E94500465E070E0CE0189509F4F23
:102EA0000E941B0FC950DF4F68817981C75FD040F6
:102EB000C350DF4F88819981CD5FD0400E94361189
:102EC000CE0189509F4F0E94C903CE0183509F4F6E
:102ED0000E94C903CE018D5F9E4F0E94C9036DE51C
:102EE00072E0CE01875F9E4F0E943403882309F46D
:102EF00086C0BE016D5A7F4FCE0101960E94DC0E46
:102F0000CE0101960E94A809F62E062F172FCE019A
:102F100001960E9412038F9751F4CE0101960E94F0
:102F2000A809E72ED62E8F2D0E94171225C06F2DCF
:102F300070E0FB01E458FD4F8491FB01E35AFD4F23
:102F4000F490FB01E25CFD4FE490EE2099F08111DA
:102F50000E94DA11EE2DF0E0EE0FFF1FE958FE4F50
:102F6000A591B491EC91FE2281E0E12C09F480E07E
:102F7000D82E02C0D12CE12C6EE871E0CE01019672
:102F80000E94F704B801CE0101960E94981065E8EE
:102F900071E0CE0101960E94F7046D2D7E2DCE01C9
:102FA00001960E94CE1065E672E0CE0183509F4FDD
:102FB0000E945004B801CE0183509F4F0E946810B8
:102FC0006D2D7E2DCE0189509F4F0E941B0FC95041
:102FD000DF4F68817981C75FD040C350DF4F888160
:102FE0009981CD5FD0400E943611CE0189509F4F0C
:102FF0000E94C903CE0183509F4F0E94C90367E618
:1030000072E0CE01875F9E4F0E943403882309F44B
:1030100087C0BE016D5A7F4FCE0101960E94DC0E23
:10302000CE0101960E94A809162FE62EF72ECE019A
:1030300001960E9412038F9771F5CE0101960E94AE
:10304000A8094B015C01812F0E94821261E771E0A7
:10305000CE0101960E94F704B701CE0101960E94AD
:10306000981061E671E0CE0101960E94F704B40168
:10307000CE0101960E94CE1065E672E0CE0183502B
:103080009F4F0E945004B701CE0183509F4F0E9472
:103090006810B40128C0812F0E941A138C016BE5BF
:1030A00071E0CE0101960E94F704B701CE010196AE
:1030B0000E9498106CE471E0CE0101960E94F70422
:1030C000B801CE0101960E94CE106EE672E0CE01EC
:1030D00083509F4F0E945004B701CE0183509F4FF1
:1030E0000E946810B801CE0189509F4F0E941B0FAB
:1030F000C950DF4F68817981C75FD040C350DF4F2F
:1031000088819981CD5FD0400E943611CE018950CF
:103110009F4F0E94C903CE0183509F4F0E94C90355
:1031200060E772E0CE01875F9E4F0E9434038823E0
:1031300009F480C0BE016D5A7F4FCE0101960E94F6
:10314000DC0ECE0101960E94A809F62EE72ECE01D4
:1031500001960E9412038F9769F066E471E0CE0138
:1031600001960E94F70466EF71E0CE0101960E947D
:103170001B0560C00F2D1E2D4DE0BE016F5F7F4F00
:10318000CE0189509F4F0E940E1165E772E0CE017B
:1031900089509F4F0E943403882391F060E08F2D67
:1031A0000E94461260E471E0CE0101960E94F7048D
:1031B000B801CE0101960E9498106AE271E01AC02F
:1031C0006BE772E0CE0189509F4F0E943403882341
:1031D000B1F061E08F2D0E94461264E271E0CE01F1
:1031E00001960E94F704B801CE0101960E94981042
:1031F0006DE071E0CE0101960E94F70416C068EF01
:1032000070E0CE0101960E94F704C550DF4F48815F
:103210005981CB5FD040C950DF4F68817981C75F4A
:10322000D040CE0101960E949602CE0189509F4F58
:103230000E94C903CE01875F9E4F0E94C903CE0141
:103240008B559F4F0E949C0762E370E080E090E006
:103250000E9445130091CA021091CB020F5F1F4FCD
:103260001093CB020093CA02E090C802F090C9020A
:103270002FEFE21AF20AF092C902E092C80283E14B
:103280000E941A13BC01990F880B990B0E94C81B4E
:1032900020E030E040EA5BE30E94271C20E030E0C1
:1032A00040EA5FE30E94361D2AE037ED43EA5BE324
:1032B0000E94A31D4B015C016091C4027091C50284
:1032C0008091C6029091C7020E94C81B9B01AC016D
:1032D000C501B4010E94371D0E94151E6093C402EF
:1032E0007093C5028093C6029093C7023AE0E3163A
:1032F000F10409F078C10E94C81B20E030E040E2F0
:1033000051E40E94A31D6B017C016093C002709385
:10331000C1028093C2029093C3020E947F13CD5ECC
:10332000DE4F688379838A839B83C351D140809128
:10333000BC029091BD02A091BE02B091BF02CD5ED1
:10334000DE4F288139814A815B81C351D140281BDE
:10335000390B4A0B5B0BCA01B901A30192010E9410
:10336000551ECA01B9010E94C61BC15FDE4F6883AA
:1033700079838A839B83CF50D14020E030E0A9013C
:103380000E944B1E18160CF015C1A7019601609102
:10339000B8027091B9028091BA029091BB020E946A
:1033A000361D4B015C016093B4027093B5028093AB
:1033B000B6029093B7029B01AC01C15FDE4F6881FA
:1033C00079818A819B81CF50D1400E94271C209116
:1033D000B0023091B1024091B2025091B3020E940A
:1033E000371D6093B0027093B1028093B202909344
:1033F000B302C090AC02D090AD02E090AE02F0906B
:10340000AF02A70196010E94271C20E030E04FE7A1
:1034100053E40E944B1E181684F4A701960160E045
:1034200070E08FE793E40E94A31D6093B002709355
:10343000B1028093B2029093B3022091B002309116
:10344000B1024091B2025091B302C701B6010E948D
:10345000271C20E030E0A9010E94C11B87FF08C0A3
:103460001092B0021092B1021092B2021092B30206
:103470002091A4023091A5024091A6025091A7028A
:10348000C501B4010E94271CC95EDE4F68837983A1
:103490008A839B83C751D1402091B0023091B10201
:1034A0004091B2025091B302C701B6010E94271C9D
:1034B0009B01AC01C95EDE4F688179818A819B8165
:1034C000C751D1400E94371D6B017C012091A80299
:1034D0003091A9024091AA025091AB02C501B401FA
:1034E0000E94361DC15FDE4F288139814A815B8190
:1034F000CF50D1400E94A31D2091A0023091A10283
:103500004091A2025091A3020E94271C9B01AC0192
:10351000C701B6010E94371D6B017C0120E030E03D
:103520004FE753E40E944B1E18164CF0C0929C02C9
:10353000D0929D02E0929E02F0929F020CC080E029
:1035400090E0AFE7B3E480939C0290939D02A09338
:103550009E02B0939F0220E030E0A90160919C029E
:1035600070919D0280919E0290919F020E94C11BCA
:1035700087FF08C010929C0210929D0210929E023A
:1035800010929F028092A8029092A902A092AA0291
:10359000B092AB02CD5EDE4F88819981AA81BB815A
:1035A000C351D1408093BC029093BD02A093BE0250
:1035B000B093BF0260919C0270919D0280919E0227
:1035C00090919F020E94151E89E00E948212109223
:1035D000C4021092C5021092C6021092C702109245
:1035E000C9021092C8020436110521F41092CB02D0
:1035F0001092CA020E947B02F5CAE4E9F3E013824A
:10360000128288EE93E0A0E0B0E084839583A683E5
:10361000B78325E631E0318320832FEF3FEF3587F5
:103620002487E2EEF2E01382128284839583A683DC
:10363000B78389E891E0918380838DEC90E0958752
:1036400084878CEC90E09787868788EC90E0918B5C
:10365000808B89EC90E0938B828B8AEC90E0958B49
:10366000848B8EEC90E0978B868B118E128E138E4E
:10367000148EA4EEB3E085EB91E011969C938E93AB
:1036800012961C92129713961C92139714961C92E2
:10369000149715961C92AAEEB3E011969C938E9304
:1036A00012961C92129713961C92139714961C92C2
:1036B000149715961C92AFE7B3E01C921696FC93F4
:1036C000EE93159717961C92179718961C921897B9
:1036D0001A96FC93EE931997E0EFF3E091838083C1
:1036E0001282138214821582EAE8F3E013821282B6
:1036F0008BE991E091838083B583A48383EB95E18B
:1037000097838683108611860895FB01DC0105905E
:103710000D920020E1F70895BB274A3031F4992338
:1037200022F4BDE2909581959F4F0C94981BBB2786
:10373000FB015527AA27880F991FAA1FA41710F06D
:10374000A41B83955051B9F7A05DAA3308F0A95D79
:10375000A193009779F7B111B1931192CB010C9419
:10376000B11BDC01FC01672F71917723E1F73297E0
:1037700004C07C916D9370836291AE17BF07C8F34C
:1037800008950E94031C08F481E00895E89409C09C
:1037900097FB3EF490958095709561957F4F8F4F84
:1037A0009F4F9923A9F0F92F96E9BB279395F6959A
:1037B000879577956795B795F111F8CFFAF4BB0F18
:1037C00011F460FF1BC06F5F7F4F8F4F9F4F16C07C
:1037D000882311F096E911C0772321F09EE8872F06
:1037E000762F05C0662371F096E8862F70E060E0C2
:1037F0002AF09A95660F771F881FDAF7880F96953B
:10380000879597F90895990F0008550FAA0BE0E8DE
:10381000FEEF16161706E807F907C0F01216130692
:10382000E407F50798F0621B730B840B950B39F4D2
:103830000A2661F0232B242B252B21F408950A2638
:1038400009F4A140A6958FEF811D811D08950E9466
:103850003A1C0C94AB1C0E949D1C38F00E94A41CC6
:1038600020F0952311F00C94941C0C949A1C1124B4
:103870000C94DF1C0E94BC1C70F3959FC1F3950F44
:1038800050E0551F629FF001729FBB27F00DB11DE4
:10389000639FAA27F00DB11DAA1F649F6627B00D74
:1038A000A11D661F829F2227B00DA11D621F739F5D
:1038B000B00DA11D621F839FA00D611D221F749F6B
:1038C0003327A00D611D231F849F600D211D822FB2
:1038D000762F6A2F11249F5750409AF0F1F08823D9
:1038E0004AF0EE0FFF1FBB1F661F771F881F915006
:1038F0005040A9F79E3F510580F00C94941C0C9405
:10390000DF1C5F3FE4F3983ED4F386957795679587
:10391000B795F795E7959F5FC1F7FE2B880F911D2F
:103920009695879597F9089597F99F6780E870E0D5
:1039300060E008959FEF80EC089500240A94161625
:10394000170618060906089500240A94121613068D
:10395000140605060895092E0394000C11F488231B
:1039600052F0BB0F40F4BF2B11F460FF04C06F5F37
:103970007F4F8F4F9F4F089557FD9058440F551F0D
:1039800059F05F3F71F04795880F97FB991F61F0E1
:103990009F3F79F087950895121613061406551F58
:1039A000F2CF4695F1DF08C0161617061806991FC4
:1039B000F1CF86957105610508940895E894BB27B9
:1039C00066277727CB0197F908950E94271DA59FA9
:1039D000900DB49F900DA49F800D911D112408950A
:1039E0002F923F924F925F926F927F928F929F920F
:1039F000AF92BF92CF92DF92EF92FF920F931F93FD
:103A0000CF93DF93CDB7DEB7CA1BDB0B0FB6F894AD
:103A1000DEBF0FBECDBF09942A88398848885F84ED
:103A20006E847D848C849B84AA84B984C884DF805E
:103A3000EE80FD800C811B81AA81B981CE0FD11D42
:103A40000FB6F894DEBF0FBECDBFED010895A29F63
:103A5000B001B39FC001A39F700D811D1124911D62
:103A6000B29F700D811D1124911D08955058BB27E0
:103A7000AA270E944E1D0C94AB1C0E949D1C38F07E
:103A80000E94A41C20F039F49F3F19F426F40C94F2
:103A90009A1C0EF4E095E7FB0C94941CE92F0E940D
:103AA000BC1C58F3BA17620773078407950720F008
:103AB00079F4A6F50C94DE1C0EF4E0950B2EBA2FCB
:103AC000A02D0B01B90190010C01CA01A001112424
:103AD000FF27591B99F0593F50F4503E68F11A16D0
:103AE000F040A22F232F342F4427585FF3CF469561
:103AF00037952795A795F0405395C9F77EF41F1683
:103B0000BA0B620B730B840BBAF09150A1F0FF0F4C
:103B1000BB1F661F771F881FC2F70EC0BA0F621F38
:103B2000731F841F48F4879577956795B795F79528
:103B30009E3F08F0B0CF9395880F08F09927EE0FBD
:103B40009795879508950E94B71D0C94AB1C0E9411
:103B5000A41C58F00E949D1C40F029F45F3F29F0FE
:103B60000C94941C51110C94DF1C0C949A1C0E9410
:103B7000BC1C68F39923B1F3552391F3951B550BA6
:103B8000BB27AA2762177307840738F09F5F5F4F30
:103B9000220F331F441FAA1FA9F335D00E2E3AF06F
:103BA000E0E832D091505040E695001CCAF72BD087
:103BB000FE2F29D0660F771F881FBB1F26173707D8
:103BC0004807AB07B0E809F0BB0B802DBF01FF270A
:103BD00093585F4F3AF09E3F510578F00C94941C37
:103BE0000C94DF1C5F3FE4F3983ED4F38695779501
:103BF0006795B795F7959F5FC9F7880F911D9695C3
:103C0000879597F90895E1E0660F771F881FBB1F1E
:103C1000621773078407BA0720F0621B730B840BCB
:103C2000BA0BEE1F88F7E09508950E941C1E689459
:103C3000B1110C94DF1C08950E94C41C88F09F579A
:103C400098F0B92F9927B751B0F0E1F0660F771FC0
:103C5000881F991F1AF0BA95C9F714C0B13091F0B6
:103C60000E94DE1CB1E008950C94DE1C672F782FB3
:103C70008827B85F39F0B93FCCF38695779567957B
:103C8000B395D9F73EF490958095709561957F4FE7
:103C90008F4F9F4F08950E94031C08F48FEF0895E3
:103CA0000E94031C880B990B0895A1E21A2EAA1BEF
:103CB000BB1BFD010DC0AA1FBB1FEE1FFF1FA217DC
:103CC000B307E407F50720F0A21BB30BE40BF50BD9
:103CD000661F771F881F991F1A9469F76095709562
:103CE000809590959B01AC01BD01CF010895EE0F29
:103CF000FF1F0590F491E02D09940F931F93CF932C
:103D0000DF938230910510F482E090E0E0910104AD
:103D1000F091020420E030E0A0E0B0E0309719F12B
:103D2000408151810281138148175907C8F08417D7
:103D3000950769F4109731F012960C931297139629
:103D40001C9327C0009301041093020422C0211584
:103D5000310519F04217530718F49A01BD01EF011C
:103D6000DF01F801DBCF21153105F9F0281B390BF4
:103D70002430310580F48A819B816115710521F021
:103D8000FB019383828304C0909302048093010417
:103D9000FE01329644C0FE01E20FF31F819391931E
:103DA00022503109398328833AC02091FF03309192
:103DB0000004232B41F420910E0130910F01309328
:103DC00000042093FF0320910C0130910D01211577
:103DD000310541F42DB73EB74091100150911101CA
:103DE000241B350BE091FF03F0910004E217F30769
:103DF000A0F42E1B3F0B2817390778F0AC014E5F5B
:103E00005F4F2417350748F04E0F5F1F5093000493
:103E10004093FF038193919302C0E0E0F0E0CF0173
:103E2000DF91CF911F910F910895CF93DF9300976A
:103E300009F481C0FC01329713821282A09101041F
:103E4000B0910204109781F420813181820F931F79
:103E50002091FF03309100042817390751F5F093A2
:103E60000004E093FF0367C0ED0120E030E0CE17CF
:103E7000DF0740F44A815B819E0141155105F1F055
:103E8000EA01F5CFD383C28340815181840F951F0E
:103E9000C817D90759F488819981840F951F029614
:103EA000918380838A819B8193838283211531054D
:103EB00029F4F0930204E09301043DC0E901FB837F
:103EC000EA8349915991C40FD51FEC17FD0761F49E
:103ED00080819181840F951F0296E90199838883DF
:103EE000828193819B838A83E0E0F0E012968D913A
:103EF0009C911397009719F0FD01DC01F7CF8D918C
:103F00009C9111979D012E5F3F4F820F931F20912F
:103F1000FF03309100042817390769F4309729F41A
:103F2000109202041092010402C013821282B09314
:103F30000004A093FF03DF91CF910895A0E0B0E0CB
:103F4000E4EAFFE10C94F41CEC01009721F4CB01AE
:103F50000E947D1EB4C0FC01E60FF71F9C01225099
:103F60003109E217F30708F4A8C0D9010D911C919B
:103F7000119706171707B0F00530110508F49BC01C
:103F8000C80104978617970708F495C002501109D5
:103F9000061B170B019311936D937C93CF010E9425
:103FA000151F89C05B01A01AB10A4C01800E911E39
:103FB000A0910104B0910204612C712CE12CF12C30
:103FC000109709F446C08D919C911197A815B905D9
:103FD000B1F56C0142E0C40ED11CCA14DB0478F1C7
:103FE0004C018A189B08640142E0C40ED11C129651
:103FF000BC9012971396AC91B5E0CB16D10440F06B
:10400000B282A38391828082D9016D937C9309C08F
:104010000E5F1F4F800F911FF90191838083EB2D5D
:10402000FA2FE114F10431F0D7011396FC93EE93CB
:10403000129741C0F0930204E09301043CC068165B
:10404000790608F43C017D0112960D90BC91A02DDB
:10405000B7CF8091FF039091000488169906E1F490
:1040600066167706C8F480910C0190910D010097B7
:1040700041F48DB79EB74091100150911101841BFE
:10408000950BE817F907C8F4F0930004E093FF03D9
:10409000F901718360830FC0CB010E947D1E7C01FA
:1040A000009759F0A801BE010E946920CE010E942C
:1040B000151FC70104C0CE0102C080E090E0CDB75B
:1040C000DEB7EEE00C94101D81E090E0F8940C94C3
:1040D0008220FB01DC0102C001900D924150504052
:1040E000D8F70895FB01DC018D9101908019011032
:1040F000D9F3990B0895FB01DC0101900D9200208A
:08410000E1F70895F894FFCFE8
:10410800FFFFFFFF00E100000000000000000304C3
:1041180080005858585858585831303000C180815C
:10412800000000000000007901790193027901790B
:1041380001790179017901790179017901790179A7
:10414800010000000079079602930285022A0312F3
:1041580003CC028B049606DF029C0718078F0286A1
:10416800020000000013089408340829087A083867
:104178000856080000000079017B01930292027939
:104188000179017901000000000D027B01A50159A8
:1041980002D601B401C8010000000060077B01934A
:1041A800029202CE030000000079017B0193029283
:1041B800020000000079057265616400485454509B
:1041C8002F312E3120323030204F4B00436F6E7428
:1041D800656E742D547970653A20746578742F680B
:1041E800746D6C00436F6E6E656374696F6E3A2010
:1041F800636C6F7365000D0A003C21444F435459AA
:1042080050452048544D4C3E003C68746D6C3E3C13
:10421800626F64793E00736574706F696E742C20E8
:10422800696E7075742C206572726F722C206F75B0
:10423800747075742C20472C20746175492C207477
:10424800617544203C6272202F3E002C20003C2FD8
:10425800626F64793E3C2F68746D6C3E00646967D8
:104268006974616C004400616E616C6F67004100A5
:104278006D6F646500696E707574006F7574707524
:1042880074006E616E00696E66006F766600FE00EF
:1070000055C000006EC000006CC000006AC00000E7
:1070100068C0000066C0000064C0000062C00000DC
:1070200060C000005EC00000FCC400005AC0000048
:1070300058C0000056C0000054C0000052C00000FC
:1070400050C000005DC000004CC000004AC00000FD
:1070500048C0000046C0000044C0000042C000001C
:1070600040C000003EC000003CC000003AC000002C
:1070700038C0000036C0000034C0000032C000003C
:1070800030C000002EC000002CC000002AC000004C
:1070900028C0000026C0000024C0000022C000005C
:1070A00020C000001EC000001CC0000011241FBE34
:1070B000CFEFDAE0DEBFCDBF11E0A0E0B1E0E6E463
:1070C000FFE702C005900D92A63AB107D9F711E08B
:1070D000A6EAB1E001C01D92AF3BB107E1F74FD383
:1070E00030C78ECFF89410926F001092810081E02B
:1070F00085BF15BE47985D9A289A0C9400000895A4
:107100001F920F920FB60F9211242F938F939F937C
:10711000EF93FF9310928500109284008091A60156
:107120009091A701009741F001979093A701809358
:10713000A601892B09F45D9A8091A8019091A9017B
:10714000009741F001979093A9018093A801892BA2
:1071500009F4289A8091AC019091AD010196909329
:10716000AD018093AC01E0E0F0E0859194918F5FF8
:107170009F4F49F08091AA019091AB0101969093A5
:10718000AB018093AA01FF91EF919F918F912F9175
:107190000F900FBE0F901F90189584E08093E90028
:1071A0000DC08091E8008B778093E80003C08EB318
:1071B000882351F08091E80082FFF9CF8091E800A8
:1071C00085FFEFCF8091F1000895982F83E08093A1
:1071D000E9008091E80085FD0DC08091E8008E7780
:1071E0008093E80003C08EB3882369F08091E800A3
:1071F00080FFF9CF9093F1005D9884E690E0909342
:10720000A7018093A60108954F925F926F927F929B
:107210008F929F92AF92BF92CF92DF92EF92FF92A6
:107220000F931F93CF93DF9384E08093E9008091C5
:10723000E80082FF57C2289884E690E09093A90165
:107240008093A801AADF182F853481F48CE49DE196
:107250009093AB018093AA0107B600FCFDCFF9998A
:10726000FECF81E180935700E89503C0843519F47F
:1072700094DF8DE00DC28C34E1F38035D1F3843797
:1072800021F484E4A2DF80E003C2813611F489E5B1
:10729000FFC18134B1F481DF182F7FDF90E0880FC8
:1072A000991FAA2797FDA095BA2F312F330F20E001
:1072B000442737FD4095542F822B932BA42BB52BBD
:1072C000B8C1803711F483E5E3C1833549F4C0E0E8
:1072D000D1E089917ADF21E0C730D207D1F7D9C157
:1072E000863521F481E371DF80E3D2C1833731F445
:1072F00087E86BDF85E969DF8EE1CAC18536B9F4BD
:10730000E0E0F0E093E085E090935700E89507B661
:1073100000FCFDCF80935700E89507B600FCFDCF39
:10732000E058FF4FA0E7E030FA0771F7A2CF8237AD
:1073300039F4E1E0F0E089E0809357008491A8C13E
:10734000863439F4E0E0F0E089E0809357008491DE
:107350009FC18E3439F4E3E0F0E089E08093570078
:10736000849196C1813539F4E2E0F0E089E08093C0
:10737000570084918DC1823631F489E526DF80E0A3
:1073800024DF80E885C1823419F0873609F0E5C032
:107390001092AB011092AA0100DF082FFEDEF82E3A
:1073A000FCDE682E8554823008F071C1902F80E099
:1073B000CF2DD0E0C82BD92B10926F00173609F0D3
:1073C0004BC081E180935700E895DD24CC24C39421
:1073D0003FC0E090AF01F090B0010091B101109179
:1073E000B201B6E46B16D9F4ED2DF0E0EE29FF29D9
:1073F000E4918E2FEADEDD2081F082E090E0A0E0D3
:10740000B0E0E80EF91E0A1F1B1FE092AF01F092D8
:10741000B0010093B1011093B201DC2418C0D8016F
:10742000C701B695A7959795879575D5CEDE82E06D
:1074300090E0A0E0B0E0E80EF91E0A1F1B1FE092EA
:10744000AF01F092B0010093B1011093B201219706
:10745000209709F0BECF7DC08090AF019090B00121
:10746000A090B101B090B20196E4691609F05DC038
:1074700083E0F40180935700E89507B600FCFDCF48
:1074800054C0F6E46F1661F5772031F1E090AF015A
:10749000F090B0010091B1011091B2017EDED82EC2
:1074A000CC24852D90E08C299D29F7010C01409278
:1074B0005700E895112482E090E0A0E0B0E0E80EEB
:1074C000F91E0A1F1B1FE092AF01F092B00100935A
:1074D000B1011093B20102C060DE582E742423C0A3
:1074E000E090AF01F090B0010091B1011091B201B4
:1074F00016950795F794E79450DE682FC70113D5CA
:107500008091AF019091B001A091B101B091B20111
:107510000296A11DB11D8093AF019093B001A0937D
:10752000B101B093B201219704C0552477244424BB
:107530004394209709F0A5CF96E4691641F485E0BD
:10754000F40180935700E89507B600FCFDCF8DE06D
:107550003CDE82E080936F009CC0833471F4009124
:10756000AF011091B00119DE90E021E0F8010C01AB
:1075700020935700E89511247CCE833619F5E090CE
:10758000AF01F090B0010091B1011091B20105DEA0
:10759000F701E16090E021E00C0120935700E895AD
:1075A000112482E090E0A0E0B0E0E80EF91E0A1F8E
:1075B0001B1FE092AF01F092B0010093B101109354
:1075C000B20157CE8D3661F4E091AF01F091B00178
:1075D00085E080935700E89507B600FCFDCF49CEC3
:1075E000823551F4E091AF01F091B0010591149111
:1075F000812FEBDD802F4CC0843421F5E090AF016A
:10760000F090B0010091B1011091B201169507956B
:10761000F794E794C2DD682FC70185D48091AF014C
:107620009091B001A091B101B091B2010296A11D5B
:10763000B11D8093AF019093B001A093B101B093BD
:10764000B20117CE843609F5E090AF01F090B00199
:107650000091B1011091B201D801C701B695A7956B
:107660009795879558D4B1DD82E090E0A0E0B0E036
:10767000E80EF91E0A1F1B1FE092AF01F092B00145
:107680000093B1011093B20104C08B3111F08FE36C
:107690009CDD83E08093E9009091E8008091E80010
:1076A0008E778093E80095FF04C010C08EB38823C6
:1076B000C9F08091E80080FFF9CF8091E8008E77D3
:1076C0008093E80003C08EB3882361F08091E800C6
:1076D00080FFF9CF84E08093E9008091E8008B7708
:1076E0008093E800DF91CF911F910F91FF90EF9071
:1076F000DF90CF90BF90AF909F908F907F906F90D2
:107700005F904F9008959091B701892F8F778132C4
:1077100049F58091B8018032A1F0813219F5913A92
:1077200009F58091E800877F8093E8008CE091E084
:1077300067E070E027D28091E8008B778093E800C3
:107740000895913279F48091E800877F8093E80072
:107750008CE091E067E070E079D28091E8008E776C
:107760008093E800089582E061EC42E0D1D083E0AC
:1077700061E842E1CDD084E060E842E1C9C01F93F6
:10778000209100081092000844B714BE88E10FB69B
:10779000F89480936000109260000FBE80E8E0E0F3
:1077A000F0E00FB6F89480936100E09361000FBEA3
:1077B00031E035BF92E095BF3F9A209A559A809369
:1077C00061001092610047985D9A289A1092890092
:1077D0008AEF8093880090936F0083E0809381000C
:1077E000859194918F5F9F4F11F03093AE01942F4C
:1077F00041FF19C0809109012817A9F08093000862
:10780000789480911301882339F08091AC01909194
:10781000AD018F5E9240C8F310920008F89481E0A9
:10782000809313010CC090FF04C08091AE018823A7
:1078300051F493FF09C080910901281729F0809124
:10784000AE01882309F04EDCD4D078941092AB01BD
:107850001092AA011EEF20C0D7DC4BD38091AA0161
:107860009091AB0181549F4110F0109213018091CF
:10787000B3019091B40101969093B4018093B30148
:10788000292F97FF03C0512F591B252F220F28178F
:1078900010F4479801C0479A809113018823E1F6BC
:1078A0008091E00081608093E0001CDC80E090E04B
:1078B0001F910895FA01923049F0933061F09130B0
:1078C000F9F484E191E022E130E01EC086E291E02B
:1078D0002EE330E019C0882329F484E691E024E007
:1078E00030E012C0813029F488E691E022E230E0F5
:1078F0000BC0823029F48CE891E028E130E004C02C
:1079000080E090E020E030E091838083C901089519
:107910008093E9008091EB0081608093EB001092EE
:10792000ED006093EC004093ED008091EE00881F25
:107930008827881F08958091B70188238CF403C09D
:107940008EB38823B1F08091E80082FFF9CF809157
:10795000E8008B778093E80008958EB3882349F080
:107960008091E80080FFF9CF8091E8008E778093C6
:10797000E8000895EF92FF920F931F9345D04CD0EB
:1079800008ED10E0F80180818F7780838081806826
:10799000808380818F7D808319BC1EBA1092B501CF
:1079A00080EEE82EF12CF70180818B7F8083F80137
:1079B00080818160808380E060E042E0A9DFE1EEC9
:1079C000F0E080818E7F8083E2EEF0E08081816054
:1079D0008083808188608083F70180818E7F8083AF
:1079E000F8018081806180831F910F91FF90EF905B
:1079F0000895E7EDF0E08081816080838AE482BFB2
:107A000081E08093B601B6CFE8EDF0E080818E7F13
:107A100080831092E20008951092DA001092E10043
:107A200008951F920F920FB60F9211242F933F9338
:107A30004F935F936F937F938F939F93AF93BF9376
:107A4000EF93FF938091DA0080FF1BC08091D800F4
:107A500080FF17C08091DA008E7F8093DA008091DA
:107A6000D90080FF0BC080E189BD82E189BD09B4E6
:107A700000FEFDCF81E08EBB3BD203C019BC1EBA15
:107A800037D28091E10080FF17C08091E20080FF33
:107A900013C08091E2008E7F8093E2008091E2002B
:107AA00080618093E2008091D80080628093D8004A
:107AB00019BC85E08EBB1CD28091E10084FF2CC0F4
:107AC0008091E20084FF28C080E189BD82E189BD08
:107AD00009B400FEFDCF8091D8008F7D8093D8003F
:107AE0008091E1008F7E8093E1008091E2008F7EA3
:107AF0008093E2008091E20081608093E2008091B7
:107B0000B501882331F48091E30087FD02C081E054
:107B100001C084E08EBBECD18091E10083FF21C0E5
:107B20008091E20083FF1DC08091E100877F8093F8
:107B3000E10082E08EBB1092B5018091E1008E7F62
:107B40008093E1008091E2008E7F8093E20080913B
:107B5000E20080618093E20080E060E042E0D8DEF5
:107B6000C7D1FF91EF91BF91AF919F918F917F917D
:107B70006F915F914F913F912F910F900FBE0F909A
:107B80001F9018959C014091BD015091BE01461770
:107B9000570718F4F90190E044C06115710511F020
:107BA000AB01F8CF8091E8008E778093E80040E049
:107BB00050E0F0CF8EB3882309F444C0853009F437
:107BC00043C08091E80083FF02C081E00895809166
:107BD000E80082FD31C08091E80080FF22C08091E2
:107BE000F3009091F200782F60E0292F30E0262BEF
:107BF000372B07C081918093F100415050402F5F97
:107C00003F4F4115510519F02830310598F390E0A8
:107C10002830310509F491E08091E8008E77809357
:107C2000E8004115510531F6992321F605C08EB3C0
:107C3000882341F0853041F08091E80082FFF7CF42
:107C400080E0089582E0089583E008959C01611525
:107C5000710529F48091E8008B778093E800F901A1
:107C600026C08EB3882391F1853091F18091E80090
:107C700083FF02C081E008958091E80082FFF1CF88
:107C800006C08091F10081936150704059F02091BD
:107C9000F3008091F200322F20E090E0822B932BB2
:107CA000892B79F78091E8008B778093E800611544
:107CB0007105B9F605C08EB3882341F0853041F0D7
:107CC0008091E80080FFF7CF80E0089582E008957A
:107CD00083E008950F931F93DF93CF9300D0CDB728
:107CE000DEB7E7EBF1E08091F100819381E0EF3BBB
:107CF000F807C9F708DD8091E80083FFE4C08091B0
:107D0000B7019091B801953009F46DC0963040F4F8
:107D1000913081F1913070F0933009F0D4C02AC0D5
:107D2000983009F4A3C0993009F4B2C0963009F034
:107D3000CAC07CC0803809F4C6C0823809F0C3C00C
:107D40008091BB0187708093E9008091EB001092D5
:107D5000E9002091E800277F2093E80090E025E0EB
:107D6000969587952A95E1F781708093F10010929E
:107D7000F10087C0882319F0823009F0A4C08F7108
:107D8000823009F0A0C08091B901882331F520919B
:107D9000BB01277009F497C02093E9008091EB00A4
:107DA00080FF1BC0933021F48091EB00806213C0F0
:107DB0008091EB0080618093EB0081E090E002C055
:107DC000880F991F2A95E2F78093EA001092EA0043
:107DD0008091EB0088608093EB001092E900809125
:107DE000E800877F51C0882309F06DC01091B90168
:107DF0001F770FB7F8948091E800877F8093E800A1
:107E00009ADD8091E80080FFFCCF8091E3008078CC
:107E1000812B8093E30080688093E300112311F4A9
:107E200082E001C083E08EBB0FBF4DC0805882301E
:107E300008F049C08091B9019091BA016091BB01ED
:107E4000AE014F5F5F4F36DDBC01009709F43BC0C8
:107E50008091E800877F8093E80089819A8192DE93
:107E60008091E8008B778093E8002DC0803859F529
:107E70008091E800877F8093E8008091B50180932E
:107E8000F1008091E8008E778093E80054DD1BC0FC
:107E90008823C9F49091B9019230A8F48091E80048
:107EA000877F8093E8009093B50145DD8091B5010F
:107EB000882331F48091E30087FD02C081E001C096
:107EC00084E08EBB50DC8091E80083FF0AC0809183
:107ED000EB0080628093EB008091E800877F8093C5
:107EE000E8000F900F90CF91DF911F910F910895AF
:107EF00008951F938EB3882361F01091E9001092CA
:107F0000E9008091E80083FF01C0E4DE1770109360
:107F1000E9001F910895F999FECF92BD81BDF89AAD
:107F2000992780B50895262FF999FECF1FBA92BDE3
:107F300081BD20BD0FB6F894FA9AF99A0FBE01964A
:067F40000895F894FFCF44
:107F46004341544552494E41007700080000000065
:107F5600000008011201100102000008412341003F
:107F660001000201000109023E00020100803209FF
:107F7600040000010202010005240010010424028D
:107F8600040524060001070582030800FF09040111
:107F960000020A000000070504021000010705831D
:107FA6000210000104030904220341007200640068
:107FB600750069006E006F002000590075006E00A4
:107FC60020002000200020002000000018034100AF
:107FD60072006400750069006E006F0020004C009E
:067FE6004C004300000006
:040000030000700089
:00000001FF
