:100000000C947E010C94A6010C94A6010C94A601FC
:100010000C94A6010C94A6010C94A6010C94A601C4
:100020000C94A6010C94A6010C94A60A0C94180B2F
:100030000C94A6010C94A6010C94A6010C94A601A4
:100040000C94A6010C94A6010C94A6010C94A60194
:100050000C94A6010C94A6010C94A6010C94A81271
:100060000C94A6010C94EB050C94C5050C94A60108
:100070000C94A6010C94A6010C94A6010C94A60164
:100080000C94A6010C94A6010C94A6010C94A60154
:100090000C94A6010C94A6010C94A6010C94A60144
:1000A0000C94A6010C94A6010C94A6019D1AA21A08
:1000B000A71AB11ABB1A051B051B051BC51ACF1AB7
:1000C000D91AE31AF01A051BF81AED11F011DF1115
:1000D000E311E711111211121112F411F811FC11B0
:1000E0000212061211120C1200407A10F35A00A0EC
:1000F000724E18090010A5D4E80000E876481700F1
:1001000000E40B54020000CA9A3B000000E1F50530
:10011000000080969800000040420F000000A0867A
:1001200001000000102700000000E80300000000AC
:100130006400000000000A00000000000100000050
:1001400000002C76D888DC674F0823DFC1DFAE596A
:10015000E1B1B796E5E3E453C63AE651997696E8FD
:10016000E6C28426EB898C9B62ED407C6FFCEFBC81
:100170009C9F40F2BAA56FA5F490055A2AF75C93AC
:100180006B6CF9676DC11BFCE0E40D47FEF520E6E2
:10019000B500D0ED902E0300943577050080841EC5
:1001A000080000204E0A000000C80C333333330F20
:1001B000986E12831141EF8D2114893BE65516CFBD
:1001C000FEE6DB18D1844B381BF77C1D901DA4BBC9
:1001D000E424203284725E228100C9F124ECA1E57E
:1001E0003D2772756E2D6272696467650A000A00A8
:1001F0000A00070605040100080A0B0C0D09302E41
:10020000302E302E30003132372E302E302E31004D
:10021000080B0002020201000904000001020200B2
:100220000005240010010524010101042402060533
:1002300024060001070581031000400904010002A3
:100240000A00000007050202400000070583024083
:1002500000000403090412010002EF0201404123DF
:10026000418000010102030141726475696E6F20D3
:100270004C4C430041726475696E6F2059756E0075
:1002800000000000240027002A002D00300000009C
:100290000000250028002B002E0031000404040477
:1002A000040304050202020204030202020206061B
:1002B00006060606040402020204040408020110F1
:1002C000408040102040804080080204018040208F
:1002D00010020110801020404020000000020009A0
:1002E0000F0000030401000C0000000000000000EB
:1002F00000000000000000000000251B11241FBEAC
:10030000CFEFDAE0DEBFCDBF24E0A4ECB2E001C065
:100310001D92A733B207E1F712E0A0E0B1E0ECEFE5
:10032000F5E402C005900D92A43CB107D9F711E0A5
:10033000CEE7D1E004C02197FE010E94F120CD3725
:10034000D107C9F70E94F2120C94FC220C94000011
:100350000E94DE22CF92DF92EF92FF920F931F93C3
:10036000CF93DF936C017A018B01C0E0D0E0CE1512
:10037000DF0581F0D8016D918D01D601ED91FC91E1
:100380000190F081E02DC6010995892B11F021968D
:10039000EECF7E01C701DF91CF911F910F91FF90AA
:1003A000EF90DF90CF900895FC01538D448D252F61
:1003B00030E0842F90E0821B930B541710F0CF96FF
:1003C000089501970895FC01918D828D981761F031
:1003D000828DDF01A80FB11D5D968C91928D9F5F7C
:1003E0009F73928F90E008958FEF9FEF0895FC0127
:1003F000918D828D981731F0828DE80FF11D858DDA
:1004000090E008958FEF9FEF0895FC01918D228D6C
:10041000892F90E0805C9F4F821B91098F739927F1
:10042000089586E193E00E94050221E0892B09F4FA
:1004300020E0822F0895FC01848DDF01A80FB11DFB
:10044000A35ABF4F2C91848D90E001968F7399270A
:10045000848FA689B7892C93A089B1898C918274E5
:100460008C93938D848D981306C00288F389E02DB8
:1004700080818F7D80830895EF92FF920F931F9369
:10048000CF93DF93EC0181E0888F9B8D8C8D981347
:1004900005C0E889F989808185FD26C0F62E0B8D7F
:1004A00010E00F5F1F4F0F731127E02E8C8DE812A5
:1004B0000CC00FB607FCFACFE889F989808185FF67
:1004C000F5CFCE010E941B02F1CF8B8DFE01E80F0C
:1004D000F11DE35AFF4FF0829FB7F8940B8FEA8922
:1004E000FB898081806209C09FB7F894EE89FF89FB
:1004F0006083E889F9898081827480839FBF81E06D
:1005000090E0DF91CF911F910F91FF90EF900895B0
:10051000CF93DF93EC01888D8823C9F0EA89FB89AA
:10052000808185FD05C0A889B9898C9186FD0FC0A1
:100530000FB607FCF5CF808185FFF2CFA889B98976
:100540008C9185FFEDCFCE010E941B02E7CFDF919A
:10055000CF91089580E090E0892B29F00E9411024C
:1005600081110C94000008950895FB012785FC017A
:100570002787FB012685FC0126870895FC018785D6
:100580000895089580E090E008950F931F93CF930E
:10059000DF93EC0188819981009729F02A813B81C2
:1005A0002617370788F48B016F5F7F4F0E94182250
:1005B000009761F0998388831B830A832C813D8196
:1005C000232B11F4FC01108281E001C080E0DF9157
:1005D000CF911F910F910895AF92BF92CF92DF926A
:1005E000EF92FF920F931F93CF93DF9300D0CDB77D
:1005F000DEB7FC0187858823B1F05A019B018CE6A8
:10060000898386858A83C12CD12CE12CF12C8A0127
:1006100042E050E0BE016F5F7F4F848595850E9468
:10062000820DC50102C080E090E00F900F90DF9135
:10063000CF911F910F91FF90EF90DF90CF90BF90DF
:10064000AF900895CF93DF93EC010E94760A8889DA
:10065000882331F08989C80FD11D8A8990E002C0B2
:100660008FEF9FEFDF91CF910895CF92DF92EF92BE
:10067000FF920F931F93CF93DF93EC016A017B01ED
:1006800000E010E08889811106C0CE010E94760A40
:100690008889882399F00F5F1F4F898991E0980F0F
:1006A000998BFE01E80FF11D8289F70181937F018B
:1006B00088898150888B0C151D0520F3C801DF91B6
:1006C000CF911F910F91FF90EF90DF90CF90089501
:1006D000CF93DF93EC010E94760A8889882359F032
:1006E0008150888B898991E0980F998BC80FD11D13
:1006F0008A8990E002C08FEF9FEFDF91CF9108953C
:10070000CF93DF93EC010E94760A888990E0DF9115
:10071000CF910895FC0124813581232B31F421E010
:1007200061157105A1F0FB0108C0FC018081918178
:100730006115710531F421E0FC018081882339F0D5
:1007400005C00E94EC2221E0892B09F020E0822FD5
:100750000895EF92FF920F931F93CF93DF9361154C
:10076000710511F480E01CC041155105C1F07B01F9
:10077000EC018C819D818A01080F191FB801CE01FF
:100780000E94C502882371F3288139818C819D8163
:10079000B701820F931F0E94F5221D830C8381E015
:1007A000DF91CF911F910F91FF90EF900895611508
:1007B000710551F0FB0101900020E9F73197AF017D
:1007C000461B570B0C94A90380E00895CF93DF9349
:1007D000EC0188819981009711F00E948F21198284
:1007E00018821D821C821B821A82DF91CF9108958C
:1007F000EF92FF920F931F93CF93DF93EC017B0156
:100800008A01BA010E94C502811104C0CE010E9472
:10081000E60307C01D830C83B701888199810E947C
:10082000F522CE01DF91CF911F910F91FF90EF90B4
:100830000895FC01808191810C948F21AF92BF9229
:10084000CF92DF92EF92FF920F931F93CF93DF939C
:10085000CDB7DEB72A970FB6F894DEBF0FBECDBF77
:100860005C018EE48F83F501868197819887898763
:100870001A8219821C821B821E821D8269E070E02E
:10088000CE0101960E94C502811105C0CE010196DC
:100890000E94E6030AC089E090E09E838D8366E0B3
:1008A00072E089819A810E94CD1BF50181858111B9
:1008B00017C067E070E0CE0101960E94C502811169
:1008C00005C0CE0101960E94E6030AC087E090E0D1
:1008D0009E838D836EEF71E089819A810E94CD1B8A
:1008E0000D811E8129813A81CC24C394D12CCE0163
:1008F0000A967C0143E050E0BE01695F7F4FF5013D
:10090000848195810E94820D81E09A85913009F061
:1009100080E0F5018087CE0101960E9419042A9695
:100920000FB6F894DEBF0FBECDBFDF91CF911F9100
:100930000F91FF90EF90DF90CF90BF90AF90089510
:10094000FC011182108213821282158214826115B9
:10095000710551F0FB0101900020E9F73197AF01DB
:10096000461B570B0C94F8030895CF92DF92EF9239
:10097000FF920F931F93CF93DF9300D000D000D04E
:10098000CDB7DEB77C018B016A0168EF71E0CE0163
:1009900001960E94A00462E170E0CE0101960E94DF
:1009A000C502D80112966C91CE0101960E944B0AA5
:1009B0006EE2CE0101960E948410F8016381CE019F
:1009C00001960E944B0A6EE2CE0101960E948410AD
:1009D000D80114966C91CE0101960E944B0A6EE2EA
:1009E000CE0101960E948410F8016581CE01019626
:1009F0000E944B0A69817A81D701ED91FC910088B0
:100A0000F189E02DA601C70109958C01CE0101965F
:100A10000E941904C80126960FB6F894DEBF0FBED7
:100A2000CDBFDF91CF911F910F91FF90EF90DF909D
:100A3000CF900895DC01ED91FC910190F081E02DC3
:100A400009946115710579F0FB0101900020E9F727
:100A50003197AF01461B570BDC01ED91FC910280F1
:100A6000F381E02D099480E090E008958F929F92A9
:100A7000AF92BF92EF92FF920F931F93CF93DF93AA
:100A8000CDB7DEB7A1970FB6F894DEBF0FBECDBFCE
:100A90007C01FA01CB0119A2223008F42AE08E0170
:100AA0000F5D1F4F822E912CA12CB12CBF01A501EF
:100AB00094010E94CF20F901CA01015011096A3046
:100AC00014F4605D01C0695CD8016C93232B242B66
:100AD000252B61F7B801C7010E942105A1960FB629
:100AE000F894DEBF0FBECDBFDF91CF911F910F9164
:100AF000FF90EF90BF90AF909F908F9008958F924E
:100B00009F92AF92BF92CF92DF92EF92FF920F939C
:100B10001F93CF93DF937C018B016C0182E0C80EA1
:100B2000D11C4701E5E08E0E911CC0E0D0E0F6013B
:100B300041916F0150E060E070E02AE0C8010E943E
:100B400036055C016EE2C8010E941A058A0D9B1DE4
:100B5000C80FD91FC814D90451F7F701458150E0D7
:100B600060E070E02AE0C8010E9436058C0F9D1FEE
:100B7000DF91CF911F910F91FF90EF90DF90CF9079
:100B8000BF90AF909F908F9008951F920F920FB6D5
:100B90000F9211242F933F934F935F936F937F9303
:100BA0008F939F93AF93BF93EF93FF9386E193E06F
:100BB0000E941B02FF91EF91BF91AF919F918F9186
:100BC0007F916F915F914F913F912F910F900FBE49
:100BD0000F901F9018951F920F920FB60F9211242D
:100BE0002F938F939F93EF93FF93E0912603F091C0
:100BF00027038081E0912C03F0912D0382FD12C028
:100C0000908180912F038F5F8F7320913003821723
:100C100051F0E0912F03F0E0EA5EFC4F958F809356
:100C20002F0301C08081FF91EF919F918F912F91B0
:100C30000F900FBE0F901F901895CF93DF93EC018C
:100C40008D819E81DC01ED91FC910084F185E02D88
:100C500009951816190654F48D819E81DC01ED91D9
:100C6000FC910284F385E02D0995EACFDF91CF91C5
:100C700008958F929F92AF92BF92CF92DF92EF92A0
:100C8000FF92CF93DF93EC016B010E949C124B010A
:100C90005C01E12CF12C8D819E81DC01ED91FC91B8
:100CA0000284F385E02D099597FF0FC00E949C12E6
:100CB000DC01CB0188199909AA09BB098C159D058E
:100CC000AE05BF0540F38FEF9FEFDF91CF91FF900F
:100CD000EF90DF90CF90BF90AF909F908F9008954E
:100CE000FC01238134812627022E2295207F202596
:100CF000032E322F22952F70022626953227232786
:100D0000220F220F220F2025348323830895CF92B0
:100D1000DF92EF92FF920F931F936801790100E039
:100D200010E020E030E00E94820D1F910F91FF90B3
:100D3000EF90DF90CF900895AF92BF92CF92DF9265
:100D4000EF92FF920F931F93CF93DF93CDB7DEB750
:100D500027970FB6F894DEBF0FBECDBF5C019B0195
:100D600083E489835A834B83FB0101900020E9F7D8
:100D700031978F01061B170BCC24C394D12CCE01C5
:100D800006967C0143E050E0BE016F5F7F4FD501C6
:100D90001C968D919C911D970E94820D892BC1F10B
:100DA0008E81F501868793E69C838D8301E010E0B8
:100DB0009E01295F3F4F42E050E0BE016C5F7F4FD4
:100DC000D5011C968D919C911D970E9487068F815D
:100DD000882339F061E070E080E090E00E946212C8
:100DE000E5CF81E0F50187870190F081E02D06884D
:100DF000F789E02DC501099581110DC0D501ED914F
:100E0000FC910488F589E02DC5010995F501168648
:100E100080E090E002C081E090E027960FB6F89461
:100E2000DEBF0FBECDBFDF91CF911F910F91FF901D
:100E3000EF90DF90CF90BF90AF900895EF92FF9228
:100E40000F931F93CF93DF9300D01F92CDB7DEB7E0
:100E5000DC011F962C911F97222301F17C01ED915B
:100E6000FC910084F185E02D0995892BC9F48CE46F
:100E70008983F70186858A8301E010E09E012D5F5A
:100E80003F4F42E050E0BE016F5F7F4F8485958504
:100E90000E94870681E09B81913019F080E001C0BB
:100EA00081E00F900F900F90DF91CF911F910F91E4
:100EB000FF90EF9008950F931F9300E010E020E063
:100EC00030E00E9487061F910F910895CF93DF9322
:100ED00000D0CDB7DEB722E629836A8342E050E036
:100EE000BE016F5F7F4FFC01848195810E945B078B
:100EF00081E090E00F900F90DF91CF910895CF9314
:100F0000DF9300D01F92CDB7DEB7FC0127852223E7
:100F100089F08CE6898386858A836B8343E050E081
:100F2000BE016F5F7F4F848595850E945B0781E0DE
:100F300090E002C080E090E00F900F900F90DF9162
:100F4000CF9108950F931F93CF93DF9300D0CDB728
:100F5000DEB78C01FC018785882369F08AE68983E6
:100F600086858A8342E050E0BE016F5F7F4F8485B3
:100F700095850E945B07F8011786108A118A0F90E9
:100F80000F90DF91CF911F910F910895209107034A
:100F9000211103C08FEF9FEF08955FB7F89422E00F
:100FA0002093E9002091F20030E01216130614F4A9
:100FB00021E030E0422FFC0184E6415038F02898CF
:100FC000809306039091F1009193F7CF211531059D
:100FD00021F08091F200882319F05FBFC9010895C4
:100FE0008BE68093E800F9CF2FB7F89483E08093E5
:100FF000E9009091E800892F807295FF04C09091DC
:10100000F20080E4891B2FBF089580910E038111A7
:101010000DC082E080930A0384E080930B0310925A
:101020000D0310920C0381E080930E038AE093E09D
:101030000895CF93DF931F92CDB7DEB76983DC01AC
:10104000ED91FC910280F381E02D41E050E0BE0182
:101050006F5F7F4F09950F90DF91CF91089583E0E7
:101060008093E9008091F200882319F08AE380934D
:10107000E80008950E94F40790E00895CF93DF936D
:101080001F92CDB7DEB7FC018485958597FD05C01D
:101090002FEF3FEF358724870BC0CE0101960E94CA
:1010A000C607019719F4898190E002C08FEF9FEF86
:1010B0000F90DF91CF9108950F931F93CF93DF93FC
:1010C0001F92CDB7DEB78C01FC018485958597FF13
:1010D0000EC0CE0101960E94C607019719F48981BE
:1010E00090E002C08FEF9FEFF80195878487F801A9
:1010F000848595850F90DF91CF911F910F91089571
:10110000FC018485958597FD0BC09FB7F89482E01C
:101110008093E9008091F2009FBF90E001960895CE
:101120009FB7F89482E08093E9008091F2009FBF1E
:1011300090E008958F929F92AF92BF92CF92DF92EC
:10114000EF92FF920F931F93CF93DF936C017B017C
:101150008A0180910B01882309F45CC08091070308
:10116000882309F457C08091050380FF05C0809152
:10117000E00082608093E000E801B12C8AEFA82EA5
:1011800093E0892E2AE3922E209711F4BB20D9F107
:101190000E94F40781110AC0AA94AA20D9F161E043
:1011A00070E080E090E00E946212EECF282F30E0E5
:1011B000C217D3070CF48C2F9FB7F8948092E900E4
:1011C0002091E80025FF1DC0282F30E0C21BD30B63
:1011D000F701815020F041914093F100FACFE20EE7
:1011E000F31EBB2019F09092E8000AC08091E8003D
:1011F00085FD07C09092E800BB24B394209709F0C6
:10120000B12C9FBFC1CF5D9884E68093090310166F
:10121000110644F081E090E0F6019383828380E040
:1012200090E001C0C801DF91CF911F910F91FF9015
:10123000EF90DF90CF90BF90AF909F908F900895E8
:10124000DF92EF92FF920F931F93CF93DF93D82EED
:10125000F92EE42E062F10E0C8010196880F0E9497
:10126000871183E00E948711CD2DDF2D0C0F1D1FEC
:10127000C017D10789F0E7FE03C0FE01849101C0C9
:1012800088810E948711F82E80E00E9487118F21AB
:1012900021968111EDCF01C081E0DF91CF911F91A7
:1012A0000F91FF90EF90DF900895DF92EF92FF9201
:1012B0000F931F93CF93DF93D82E8A017B01E40E07
:1012C000F51EEB01CE15DF0571F0D7FE03C0FE0160
:1012D000849101C088810E94871121968111F2CFEB
:1012E0008FEF9FEF01C0C801DF91CF911F910F9148
:1012F000FF90EF90DF9008950F931F93CF93DF93AC
:101300001F92CDB7DEB782E0898342E450E060E10E
:1013100072E080E80E9455090E940508DC011296DF
:101320000D911C9113970115110589F0D801ED91CC
:10133000FC910280F381E02DBE016F5F7F4FC801F9
:10134000099597FD04C0F80100851185ECCF8981CE
:101350000F90DF91CF911F910F9108958F929F92DF
:10136000AF92BF92CF92DF92EF92FF920F931F93B3
:10137000CF93DF93EC01CE010E94D510FC0197FDC5
:101380000DC08D32910571F0C0970A9758F0EE327A
:10139000F10541F0CE010E946803EDCF60E070E0FE
:1013A000CB016CC0812C912C80E8A82E8FE3B82E45
:1013B000C12CD12C760110E000E0E130F10569F19B
:1013C000ED32F10539F1EE32F10531F1CF01C0977F
:1013D0000A9718F5AAE0B0E0A70196010E945F1FE6
:1013E0006F01FF0FEE08FF08C60ED71EE81EF91E9C
:1013F00080E3C81AD108E108F108112371F02DEC3F
:101400003CEC4CEC5DE3C501B4010E94A11E4B0114
:101410005C0103C001E001C011E0CE010E9468033D
:10142000CE010E94D510FC01C0970A9730F2EE322F
:10143000F10519F411111FC0C0CFE130F10509F415
:10144000BCCF002341F0F094E094D094C094C11C30
:10145000D11CE11CF11C112349F0C701B6010E9407
:10146000421EA50194010E94A11E08C0C701B60139
:101470000E94421E03C00111E6CFEFCFDF91CF9152
:101480001F910F91FF90EF90DF90CF90BF90AF90A2
:101490009F908F900895EF92FF920F931F93CF9399
:1014A000DF9300D000D0CDB7DEB77C01862F4AE0B5
:1014B0008E010F5F1F4FB80190E00E94D41BF8010E
:1014C00001900020E9F73197AF01401B510BB801A3
:1014D000C7010E94A9030F900F900F900F90DF910A
:1014E000CF911F910F91FF90EF900895EF92FF928F
:1014F0000F931F93CF93DF9300D01F92CDB7DEB72A
:10150000FC012089211118C07C01118A8BE4898398
:1015100080E48B8386858A839F012E5E3F4F00E4A3
:1015200010E043E050E0BE016F5F7F4F84859585FA
:101530000E948706F701808B0F900F900F90DF912C
:10154000CF911F910F91FF90EF9008951F920F92EE
:101550000FB60F9211248F939F938091E100909189
:10156000E100937F9093E10083FF0FC01092E900A8
:1015700091E09093EB001092EC0092E39093ED00D9
:101580001092070398E09093F00082FF20C093E050
:101590009093E9009091F200992319F09AE39093C7
:1015A000E80090910903992339F090910903915033
:1015B00090930903992389F190910603992339F0B7
:1015C00090910603915090930603992341F184FF73
:1015D00010C08091E2008E7E81608093E200809155
:1015E000E1008F7E8093E100809105038E7E806113
:1015F00011C080FF16C08091E2008E7E80618093D2
:10160000E2008091E1008E7E8093E10080910503ED
:101610008E7E81608093050304C05D9ACDCF289AA9
:10162000D6CF9F918F910F900FBE0F901F9018955E
:101630001F920F920FB60F921124CF92DF92EF926A
:10164000FF920F931F932F933F934F935F936F934B
:101650007F938F939F93AF93BF93EF93FF93CF931A
:10166000DF93CDB7DEB76C97DEBFCDBF1092E90038
:101670008091E80083FFFBC168E0CE0145960E949F
:10168000B51182EF8093E8008D8987FF05C09091A6
:10169000E80090FFFCCF03C09EEF9093E800982FE6
:1016A000907609F0C6C09E894F89588D2F89F88C95
:1016B00091110CC0803829F4809104038093F100CB
:1016C00002C01092F1001092F10045C1913051F426
:1016D000811141C14130510509F03DC180910403A0
:1016E0008D7F0BC0933061F4811135C141305105BC
:1016F00009F031C1809104038260809304032BC1FF
:10170000953049F48091E80080FFFCCF822F8068FB
:101710008093E30020C1963009F05EC00B8D1C8DD4
:1017200022E01092E9001092030310920203F212D9
:1017300032C010920103109200030E947C0999E0CC
:10174000BE016F5F7F4FDB01E92F1D92EA95E9F73C
:101750009983FA8291E09E8390EA98879AEF99871D
:101760002091020330910303275F3F4F3C832B837B
:101770008D831092E90010920303109202031093DC
:1017800001030093000349E050E080E00E94550906
:101790000E947C09E0C010930103009300030E94A3
:1017A0000508DC0112960D911C9113970115110586
:1017B00009F4BBC0D801ED91FC910480F581E02DC6
:1017C000BE016B5E7F4FC8010995009709F0C7C045
:1017D000F80100851185EACF973009F445C19830AA
:1017E00021F481E08093F100B6C0993009F0B3C0D4
:1017F000837009F039C1EDE1F1E081E031E096E379
:101800002081211109C08EE78093EA001092EA003E
:101810008F89809307039FC08093E9003093EB008A
:1018200021912093EC009093ED008F5F873041F77A
:10183000EACF8B8D9C8D1092E900109203031092D9
:1018400002039093010380930003898D811153C09B
:101850008E899D89913A49F4813209F005C147E0AA
:1018600050E064E071E080E0BBC0913209F0FCC060
:10187000833269F48F89988DA0E0B0E080930001F5
:1018800090930101A0930201B093030164C08032E0
:1018900069F48091E80082FFFCCF67E084E091E08A
:1018A0000E94B5118BEF8093E80055C0823209F099
:1018B00052C08F8980930B01EEEFFFE785919491E1
:1018C0008B3F9C4D19F0E0E0F8E002C0EEEFFAE04B
:1018D0008091040190910501A0910601B09107014A
:1018E000803B9440A105B10509F09EC080910B0199
:1018F00080FF79C099C00E940508FC010281138114
:101900000115110509F4B0C0D801ED91FC910190C9
:10191000F081E02DBE016B5E7F4FC80109958111FA
:101920001AC0F80100851185EBCFF1E0FF1609F42C
:101930004EC0F3E0FF1298C08F89882309F44AC093
:10194000823089F440E86BE084E792E00E9420094D
:10195000882309F489C08EEF8093E80088C01816A8
:101960001906CCF381C0813029F440E86BE088E6A9
:1019700092E0ECCF833009F077C00E940508DC01CB
:101980001296ED90FC9013978E010F5F1F4F680128
:10199000E114F10479F0D701ED91FC910680F78113
:1019A000E02DB801C7010995080F111DF701E0846A
:1019B000F184EECFD8011C92F60101900020E9F7E6
:1019C0003197BF016C197D0940E0C601BFCF66E5C4
:1019D00072E002C062E572E0FB01449150E080E8F1
:1019E0000E945509B8CFEE3F2AE0F20751F08081FE
:1019F00091818737A7E79A0721F09093FF0A809398
:101A0000FE0A87E797E79183808380916000809347
:101A100008039BE088E10FB6F894A89580936000D6
:101A20000FBE9093600097CF808191818737974751
:101A300009F091CFA8958091600088618093600043
:101A40008091080380936000EE3FBAE0FB0739F015
:101A50008091FE0A9091FF0A918380837CCF10923F
:101A6000FF0A1092FE0A77CF81E28093EB006C961A
:101A70000FB6F894DEBF0FBECDBFDF91CF91FF91BF
:101A8000EF91BF91AF919F918F917F916F915F91F6
:101A90004F913F912F911F910F91FF90EF90DF9009
:101AA000CF900F900FBE0F901F9018950F931F931C
:101AB000CF93DF93EC010E949C12688779878A8715
:101AC0009B87CE010E94680397FF17C00E949C125B
:101AD000088519852A853B85DC01CB01801B910B8C
:101AE000A20BB30B0C811D812E813F8180179107C2
:101AF000A207B30730F38FEF9FEFDF91CF911F91D4
:101B00000F9108952F923F924F925F926F927F9222
:101B10008F929F92AF92BF92CF92DF92EF92FF92FD
:101B20000F931F93CF93DF93CDB7DEB72E970FB6EA
:101B3000F894DEBF0FBECDBF9E878D873B01290184
:101B40009A01200F311F3A8329838A80912C222405
:101B50002A94322CCB01840F951F98878F83D20152
:101B6000A00FB11FBA87A987F701EC0DFD1DFC87F7
:101B7000EB87AD85BE8518968C911897981608F05E
:101B80003FC114963C922E92139715968D919C917D
:101B90001697DC01ED91FC910190F081E02D6FEF43
:101BA00009956FEF8D859E850E947006ED85FE85F7
:101BB00085819681DC01ED91FC910190F081E02D11
:101BC000AD85BE856C910995ED85FE856081CF015F
:101BD0000E947006AD85BE8515968D919C911697D5
:101BE000DC01ED91FC910190F081E02D682D0995CB
:101BF000682D8D859E850E947006ED85FE85858108
:101C00009681DC01ED91FC910190F081E02D6981DC
:101C1000099569818D859E850E9470065301EF812B
:101C2000F885AE16BF06C1F0AD85BE8515968D91BF
:101C30009C9116978501DC01ED91FC910190F0815A
:101C4000E02DD5016D915D010995F80160818D85CB
:101C50009E850E947006E3CF8201AD85BE851596F4
:101C60008D919C911697E985FA850E171F0791F0C3
:101C70005801DC01ED91FC910190F081E02DD8013B
:101C80006D918D010995F50160818D859E850E947C
:101C90007006E3CFAD85BE8514966C91DC01ED91A5
:101CA000FC910190F081E02D0995ED85FE858581FF
:101CB0009681DC01ED91FC910190F081E02DAD85E4
:101CC000BE8513966C91099568EC70E08D859E85B4
:101CD0000E9439068F3F910509F086C0ED85FE858B
:101CE000348223826FEFCF010E94700665E070E0BE
:101CF0008D859E850E943906AD85BE856C91262F07
:101D000030E08217930709F06FC0CD010E94700682
:101D10006AE070E08D859E850E9439065C0197FD22
:101D200063C0682F8D859E850E9470066AE070E012
:101D30008D859E850E9439068C0197FD55C0682FC0
:101D40008D859E850E947006AC821B82EB81FC8192
:101D50000E0F1F1F57019701200F311F3E832D8348
:101D60008D819E81A816B906C1F0AB85BC85AA16E7
:101D7000BB0699F065E070E08D859E850E9439066E
:101D800097FD07C0F5018083682F8D859E850E9491
:101D90007006FFEFAF1ABF0AE3CF65E070E08D85F4
:101DA0009E850E9439065C0197FD1EC065E070E0CB
:101DB0008D859E850E94390697FD16C0BA2CAA24EF
:101DC0008A0D9B1DAD85BE8513962D913C91149770
:101DD0008217930749F48C918F5F8C93C801C016CA
:101DE000D10680F4C6010EC0939464E670E080E0F2
:101DF00090E00E9462128D859E850E941D06B9CEDC
:101E00008FEF9FEF2E960FB6F894DEBF0FBECDBFBB
:101E1000DF91CF911F910F91FF90EF90DF90CF90C6
:101E2000BF90AF909F908F907F906F905F904F90FA
:101E30003F902F900895EF92FF920F931F93CF93AF
:101E4000DF938C017B01C0E0D0E0F701EC0FFD1FB8
:101E50006491662361F0D801ED91FC910190F081CD
:101E6000E02DC8010995892B11F02196EECFCE0106
:101E7000DF91CF911F910F91FF90EF900895DC01BA
:101E8000FB018281938113969C938E9312974481D8
:101E900055816681778114964D935D936D937C9304
:101EA0001797408551856285738518964D935D938C
:101EB0006D937C931B9785E491E011969C938E9390
:101EC000848595851D969C938E931C9786851E967A
:101ED0008C931E9787851F968C931F9780895096A9
:101EE0008C935097818951968C93519780E4729688
:101EF000529601900D928A95E1F708950F931F93E2
:101F0000CF93DF93EC010E9421058C0166EF71E015
:101F1000CE010E942105800F911FDF91CF911F916B
:101F20000F9108957F928F929F92AF92BF92CF921E
:101F3000DF92EF92FF920F931F93CF93DF938C0169
:101F40006A017B01722E9A01AB01C701B6010E94A2
:101F5000CA20882319F063EB72E027C046015701BD
:101F6000E894B7F82FEF3FEF4FE75FE7C501B40103
:101F70000E94CA2081110DC02FEF3FEF4FE75FE7AE
:101F8000C501B4010E943B1E18161CF467EB72E0F9
:101F90000CC02FEF3FEF4FE75FE4C701B6010E948F
:101FA000C520181694F46BEB72E0C801DF91CF9155
:101FB0001F910F91FF90EF90DF90CF90BF90AF9067
:101FC0009F908F907F900C9421052FEF3FEF4FE76C
:101FD0005FECC701B6010E943B1E87FDE4CF20E005
:101FE00030E0A901C701B6010E943B1E87FF0AC06D
:101FF0006DE2C8010E941A05EC01F7FAF094F7F8B7
:10200000F09402C0C0E0D0E0B12C60E070E080E06D
:102010009FE37B1441F020E030E040E251E40E9475
:102020001D20B394F6CFA70196010E94B11F6B014A
:102030007C010E9496204B015C012AE0AB01BC01AF
:10204000C8010E943605C80FD91F7720C1F1C5010C
:10205000B4010E94401E9B01AC01C701B6010E9461
:10206000B01F6B017C016EE2C8010E941A05C80F07
:10207000D91F20E030E040E251E4C701B6010E94E0
:10208000A11E4B015C010E9496206B01E12CF12CFA
:102090002AE0B701A601C8010E943605C80FD91F62
:1020A000C701B6010E94401E9B01AC01C501B401ED
:1020B0000E94B01F6B017C017A947110DACFCE01BF
:1020C000DF91CF911F910F91FF90EF90DF90CF9014
:1020D000BF90AF909F908F907F9008950F931F9324
:1020E000CF93DF93EC010E94920F8C0166EF71E0B9
:1020F000CE010E942105800F911FDF91CF911F918A
:102100000F9108950C942105CF93DF9300D0CDB7A4
:10211000DEB769831A8241E050E0BE016F5F7F4FF6
:102120000E94A9030F900F90DF91CF910895EF9235
:10213000FF920F931F93CF93DF93CDB7DEB7A19795
:102140000FB6F894DEBF0FBECDBF7C01CB01BA0144
:10215000F7011182108213821282158214828E017D
:102160000F5F1F4F22E044E00E94AD1B009769F013
:10217000FC0101900020E9F73197AF01481B590B92
:10218000BC01C7010E94F80303C0C7010E94E60317
:10219000A1960FB6F894DEBF0FBECDBFDF91CF91F1
:1021A0001F910F91FF90EF9008950F931F93CF937E
:1021B000DF93EC010E949C12688779878A879B874E
:1021C000CE010E94220397FF17C00E949C1208852F
:1021D00019852A853B85DC01CB01801B910BA20B65
:1021E000B30B0C811D812E813F8180179107A207BF
:1021F000B30730F38FEF9FEFDF91CF911F910F91D6
:1022000008950F931F93CF93DF93EC018B0168EF39
:1022100071E00E94A004C8010E94560D97FD08C0FD
:102220008F32910529F0682FCE010E948410F3CFE0
:10223000CE01DF91CF911F910F910895EF92FF9200
:102240000F931F93CF93DF93CDB7DEB727970FB6CA
:10225000F894DEBF0FBECDBF7C018B016FEB72E047
:10226000CE0101960E94A004B701CE0101960E9402
:10227000D70361EC72E0CE0101960E94D703B8014A
:10228000CE0101960E94D7034D815E8169817A81DA
:1022900001E010E09E01295F3F4F83EB93E00E9435
:1022A0008706CE0101960E94190427960FB6F8946E
:1022B000DEBF0FBECDBFDF91CF911F910F91FF9079
:1022C000EF9008953FB7F89480912F0490913004D7
:1022D000A0913104B091320426B5A89B05C02F3FD0
:1022E00019F00196A11DB11D3FBFBA2FA92F982F3C
:1022F0008827820F911DA11DB11DBC01CD0142E0B7
:10230000660F771F881F991F4A95D1F7089540914E
:1023100002035091030320910003309101034217FF
:102320005307B4F49091E8009570E1F39091E800C0
:1023300092FD19C08093F1008091020390910303F4
:1023400001968F739927892B19F48EEF8093E800FB
:10235000809102039091030301969093030380936D
:10236000020381E0089580E00895615030F02091EB
:10237000F100FC0120830196F8CF289884E6809331
:1023800006030895362F90E0FC01E652FD4F44917C
:10239000FC01E554FD4F2491FC01E456FD4F84916E
:1023A000882309F452C04423E1F150E0FA01319747
:1023B000EF30F105B0F5EB59FF4F0C94F1209091FF
:1023C00080009F7707C0909180009F7D03C090910F
:1023D0008000977F9093800024C094B59F7702C0BF
:1023E00094B59F7D94BD1DC0909190009F7707C0CC
:1023F000909190009F7D03C090919000977F909363
:1024000090000FC09091C0009F7703C09091C000D2
:102410009F7D9093C00005C09091C200977F9093DC
:10242000C200E82FF0E0EE0FFF1FE257FD4FA5912D
:10243000B4919FB7F894311104C08C912095282352
:1024400002C0EC912E2B2C939FBF0895CF93DF9366
:1024500090E0FC01E554FD4F2491FC01E456FD4F52
:102460008491882361F190E0880F991FFC01E05866
:10247000FD4FC591D491FC01E257FD4FA591B49158
:10248000611109C09FB7F8948881209582238883C1
:10249000EC912E230BC0623061F49FB7F8948881D1
:1024A000322F309583238883EC912E2B2C939FBF62
:1024B00006C08FB7F894E8812E2B28838FBFDF9159
:1024C000CF9108958F929F92AF92BF92CF92DF9259
:1024D000EF92FF926B017C010E9462114B015C0143
:1024E000C114D104E104F104F1F00E946211DC0195
:1024F000CB0188199909AA09BB09883E9340A10517
:10250000B10570F321E0C21AD108E108F10888EEA4
:10251000880E83E0981EA11CB11CC114D104E104F3
:10252000F10419F7DDCFFF90EF90DF90CF90BF90CF
:10253000AF909F908F9008952FB7F89460912B04DF
:1025400070912C0480912D0490912E042FBF08953A
:102550001F920F920FB60F9211242F933F938F93D8
:102560009F93AF93BF9380912B0490912C04A091E3
:102570002D04B0912E0430912A0423E0230F2D372F
:1025800020F40196A11DB11D05C026E8230F029677
:10259000A11DB11D20932A0480932B0490932C0439
:1025A000A0932D04B0932E0480912F0490913004B9
:1025B000A0913104B09132040196A11DB11D809308
:1025C0002F0490933004A0933104B0933204BF9150
:1025D000AF919F918F913F912F910F900FBE0F90D0
:1025E0001F901895CF93DF93CDB7DEB7CE52D14071
:1025F0000FB6F894DEBF0FBECDBF789484B582606D
:1026000084BD84B5816084BD85B5826085BD85B596
:10261000816085BD80916E00816080936E00109214
:10262000810080918100826080938100809181008F
:102630008160809381008091800081608093800020
:1026400080919100826080939100809191008160DF
:1026500080939100809190008160809390008091A0
:10266000C10084608093C1008091C100826080932A
:10267000C1008091C10081608093C1008091C3003E
:1026800081608093C3008091C00082608093C0000D
:102690008091C20081608093C20080917A00846042
:1026A00080937A0080917A00826080937A00809192
:1026B0007A00816080937A0080917A0080688093AC
:1026C0007A00109207031092040310920503809180
:1026D000D70081608093D70080EA8093D80089B5C5
:1026E000806189BD89B5826089BD09B400FEFDCFD6
:1026F00061E070E080E090E00E9462128091D8007A
:102700008F7C80618093D8008091E000807F8093EF
:10271000E0008091E1008E7E8093E1008DE0809367
:10272000E200559A209AE091BC03F091BD03A08984
:10273000B18982E08C93A485B5851C92A685B78566
:1027400087E08C93108EA489B58986E08C93A2894A
:10275000B3898C9180618C93A289B3898C918860B4
:102760008C93A289B3898C9180688C930288F389B9
:10277000E02D80818F7D80838091BA038111CEC04E
:1027800081E08093BA0383EB93E00E941D0668EE1C
:1027900073E080E090E00E9462128091B803909113
:1027A000B903DC01ED91FC910084F185E02D0995E0
:1027B0001816190644F3FF24F39462E3E62E85E02D
:1027C000E2E1F1E0DE01AD5ABF4F01900D928A9532
:1027D000E1F7F092BB0345E050E0BE016D5A7F4F38
:1027E00083EB93E00E945B0763E08091B8039091D4
:1027F000B9030E941A056AEF70E080E090E00E9441
:10280000621260EF71E08091B8039091B9030E9469
:102810001B0F6AEF70E080E090E00E9462126EEEA3
:1028200071E08091B8039091B9030E941B0F64EF8F
:1028300071E080E090E00E94621262EE71E08091AF
:10284000B8039091B9030E941B0F64EF71E080E020
:1028500090E00E94621283EB93E00E941D0685E0E7
:10286000E7E1F1E0DE01119601900D928A95E1F722
:10287000E092BB0304E010E09E012B553F4F45E082
:1028800050E0BE016F5F7F4F83EB93E00E948706AD
:102890008F3FBFEF9B0739F468EE73E080E090E074
:1028A0000E9462128CCFCB55DF4F2881C55AD04091
:1028B0002111FFCF049749F5CA55DF4F2881C65A29
:1028C000D04030E02053310984E6829FA001839FED
:1028D000500D1124C955DF4F2881C75AD04030E030
:1028E000205331096AE0629FC001639F900D11245B
:1028F000840F951FC855DF4F2881C85AD04030E05B
:1029000020533109820F931F02C084E690E0909318
:10291000B5038093B40382E38093BB0360E082E15C
:102920000E94261261E089E00E94261280E090E079
:10293000A0E2B2E48093EC029093ED02A093EE0249
:10294000B093EF0280E090E0A0EAB0E48093CC0284
:102950009093CD02A093CE02B093CF0240E050E01E
:1029600068E473E44093C8025093C9026093CA02BA
:102970007093CB021092C4021092C5021092C6024C
:102980001092C7028093D8029093D902A093DA02E2
:10299000B093DB028DEC9CECACECBCE38093E002EA
:1029A0009093E102A093E202B093E3021092D4026A
:1029B0001092D5021092D6021092D7021092E40221
:1029C0001092E5021092E6021092E7021092FF02C6
:1029D0001092FE021092FD021092FC021092D002A0
:1029E0001092D1021092D2021092D3021092F802E9
:1029F0001092F9021092FA021092FB0281E0809389
:102A0000C7038EEB93E00E941E0458EE452E53E060
:102A1000552E612C712C1E01E7EF2E0E311CFBE6AA
:102A20006496FFAF649701E010E09E012F5F3F4F77
:102A300041E050E0BE016D5A7F4F8091C2039091FA
:102A4000C3030E948706892B49F5C955DF4F1982B8
:102A50001882C75AD040C755DF4F488259826A82D0
:102A60007B82C95AD04025E431E0CB55DF4F398312
:102A70002883C55AD04043EB53E0CF54DF4F5983EE
:102A80004883C15BD040CD54DF4F1882C35BD04038
:102A9000CC54DF4F1882C45BD0402AC08981C9550D
:102AA000DF4F19821882C75AD040C755DF4F48827E
:102AB00059826A827B82C95AD040A5E4B1E0CB55E5
:102AC000DF4FB983A883C55AD040E3EBF3E0CF547E
:102AD000DF4FF983E883C15BD040CD54DF4F88835B
:102AE000C35BD04081E0CC54DF4F8883C45BD040CF
:102AF000CB54DF4F1882C55BD040CC54DF4F888168
:102B0000C45BD040882309F403C3BE016B557F4FDB
:102B1000CE018D5A9F4F0E943F0FBE016D5A7F4FCD
:102B2000CE01855E9E4F0E94011167EB71E0CE01E0
:102B3000855E9E4F0E948A03882309F409C1BE0165
:102B40006D5A7F4FCE0101960E943F0FBE016F5F0D
:102B50007F4FCE018B5E9E4F0E9401116CEB71E0A6
:102B6000CE0101960E947E0F6CEC71E0CE010196C1
:102B70000E947E0F64EE71E0CE0101960E947E0FEE
:102B800066EF71E0CE0101960E94210569EF71E0C8
:102B9000CE0101960E947E0F69E072E0CE0101969F
:102BA0000E947E0F66E172E0CE0101960E947E0FC8
:102BB0004091EC025091ED026091EE027091EF02B3
:102BC00022E0CE0101960E94920F6BE472E0CE01EA
:102BD00001960E9482104091F4025091F50260919A
:102BE000F6027091F70222E0CE0101960E94920F48
:102BF0006BE472E0CE0101960E9482104091E802DF
:102C00005091E9026091EA027091EB0222E0CE015C
:102C100001960E94920F6BE472E0CE0101960E9431
:102C200082104091D0025091D1026091D2027091F5
:102C3000D30222E0CE0101960E94920F6BE472E073
:102C4000CE0101960E9482104091CC025091CD029B
:102C50006091CE027091CF0222E0CE0101960E94D7
:102C6000920F6BE472E0CE0101960E9482104091B7
:102C7000C8025091C9026091CA027091CB0222E051
:102C8000CE0101960E94920F6BE472E0CE01019694
:102C90000E9482104091C4025091C5026091C60208
:102CA0007091C7022AE030E0CE0101960E946E10BA
:102CB0006EE472E0CE0101960E947E0F65E772E03D
:102CC000CE01815F9E4F0E94A004C75FDE4F198234
:102CD0001882C950D140C55FDE4F19821882CB508F
:102CE000D140C35FDE4F19821882CD50D1404AE0F7
:102CF000B10185E090E00E94D41BF1010190002019
:102D0000E9F73197AF0142195309B101CE01875F4D
:102D10009E4F0E94F803C75FDE4F68817981C950DA
:102D2000D140C15FDE4F88819981CF50D1400E9450
:102D30001E11CE01875F9E4F0E941904CE01815F54
:102D40009E4F0E941904CE018B5E9E4F0E94190473
:102D50006DE572E0CE01855E9E4F0E948A03882356
:102D600009F4CCC1BE016D5A7F4FCE0101960E947D
:102D70003F0FBE016F5F7F4FCE01815F9E4F0E946C
:102D800001116EE672E0CE01815F9E4F0E948A03C0
:102D9000882309F44EC0CE0101960E94AE096B0152
:102DA0007C0120E030E0A9010E943B1E882341F015
:102DB000C092EC02D092ED02E092EE02F092EF02AD
:102DC00063E672E0CE0101960E947E0F4091EC0214
:102DD0005091ED026091EE027091EF0222E030E03E
:102DE000CE0101960E946E106EE672E0CE01875F02
:102DF0009E4F0E94A0044091EC025091ED02609120
:102E0000EE027091EF02C1010E949710D1016D9105
:102E10007C91C75FDE4F88819981C950D1400E9463
:102E20001E11C1010E941904CE01875F9E4F0E94AE
:102E3000190462E872E0CE01815F9E4F0E948A030E
:102E4000882309F47EC0CE0101960E94AE096B0171
:102E50007C0120E030E0A9010E943B1E8823C1F1E3
:102E6000C092CC02D092CD02E092CE02F092CF027C
:102E7000C092D802D092D902E092DA02F092DB023C
:102E80002091C8023091C9024091CA025091CB02F0
:102E9000C701B6010E941D206093E0027093E10219
:102EA0008093E2029093E302A70196016091C4022D
:102EB0007091C5028091C6029091C7020E94A11E26
:102EC0006093D4027093D5028093D6029093D70278
:102ED00067E772E0CE0101960E9482104091CC0219
:102EE0005091CD026091CE027091CF0222E030E08D
:102EF000CE0101960E946E1062E872E0CE01875FFB
:102F00009E4F0E94A0044091CC025091CD0260914E
:102F1000CE027091CF02C1010E949710F101608131
:102F20007181C75FDE4F88819981C950D1400E946D
:102F30001E11C1010E941904CE01875F9E4F0E949D
:102F4000190462E972E0CE01815F9E4F0E948A03FC
:102F5000882309F462C0CE0101960E94AE096B017C
:102F60007C0120E030E0A9010E943B1E8823E1F0B3
:102F7000C092C802D092C902E092CA02F092CB027B
:102F8000A70196016091CC027091CD028091CE0292
:102F90009091CF020E941D206093E0027093E102A5
:102FA0008093E2029093E30267E872E0CE0101961B
:102FB0000E9482104091C8025091C9026091CA02D9
:102FC0007091CB0222E030E0CE0101960E946E109B
:102FD00062E972E0CE01875F9E4F0E94A00440919B
:102FE000C8025091C9026091CA027091CB02C1011E
:102FF0000E949710D1016D917C91C75FDE4F88814F
:103000009981C950D1400E941E11C1010E9419042A
:10301000CE01875F9E4F0E94190466EA72E0CE01DE
:10302000815F9E4F0E948A03882309F462C0CE010B
:1030300001960E94AE096B017C0120E030E0A901FD
:103040000E943B1E8823E1F0C092C402D092C502C8
:10305000E092C602F092C702A70196016091CC02ED
:103060007091CD028091CE029091CF020E94A11E5C
:103070006093D4027093D5028093D6029093D702C6
:103080006BE972E0CE0101960E947E0F4091C4026E
:103090005091C5026091C6027091C70222E030E0F3
:1030A000CE0101960E946E1066EA72E0CE01875F43
:1030B0009E4F0E94A0044091C4025091C5026091AD
:1030C000C6027091C702C1010E949710F101608190
:1030D0007181C75FDE4F88819981C950D1400E94BC
:1030E0001E11C1010E941904CE01875F9E4F0E94EC
:1030F0001904CE01815F9E4F0E941904CE01855EA6
:103100009E4F0E941904CE018B559F4F0E94A2072B
:1031100062E370E080E090E00E9462128091FE0223
:103120009091FF0201969093FF028093FE0280919E
:10313000FC029091FD0201969093FD028093FC02A7
:10314000E2EFF1E0849190917B0083FBFF27F0F99F
:10315000C75DDE4FF883C952D140C65DDE4F18828D
:10316000CA52D140C75DDE4F28813981C952D14052
:1031700045E0220F331F4A95E1F79F7D292B2093CD
:103180007B008770806480937C0080917A008064EB
:1031900080937A0080917A0086FDFCCF6091780060
:1031A0008091790070E0782B072E000C880B990B2A
:1031B0000E94421E20E030E040EA5BE30E94A11E34
:1031C00020E030E040EA5FE30E94B01F2AE037EDE4
:1031D00043EA5BE30E941D206B017C016091F802D1
:1031E0007091F9028091FA029091FB020E94421EB6
:1031F0009B01AC01C701B6010E94B11F0E948F2044
:103200006093F8027093F9028093FA029093FB02A4
:103210002091FC023091FD022A30310509F007C2ED
:103220000E94421E20E030E040E251E40E941D2056
:103230006B017C016093F4027093F5028093F602B7
:103240009093F7020E949C12CB5DDE4F68837983D6
:103250008A839B83C552D1408091F0029091F10204
:10326000A091F202B091F302CB5DDE4F288139814B
:103270004A815B81C552D140281B390B4A0B5B0B3D
:10328000CA01B901A30192010E94CF20CA01B9016C
:103290000E94401ECF5DDE4F688379838A839B83C3
:1032A000C152D14020E030E0A9010E94C52018168B
:1032B0000CF015C1A70196016091EC027091ED022E
:1032C0008091EE029091EF020E94B01F4B015C01D1
:1032D0006093E8027093E9028093EA029093EB0214
:1032E0009B01AC01CF5DDE4F688179818A819B8132
:1032F000C152D1400E94A11E2091E4023091E5020A
:103300004091E6025091E7020E94B11F6093E402EF
:103310007093E5028093E6029093E702C090E0028A
:10332000D090E102E090E202F090E302A701960162
:103330000E94A11E20E030E04FE753E40E94C52028
:10334000181684F4A701960160E070E08FE793E41B
:103350000E941D206093E4027093E5028093E602D0
:103360009093E7022091E4023091E5024091E60259
:103370005091E702C701B6010E94A11E20E030E093
:10338000A9010E943B1E87FF08C01092E402109220
:10339000E5021092E6021092E7022091D8023091E5
:1033A000D9024091DA025091DB02C501B4010E94BA
:1033B000A11EC55DDE4F688379838A839B83CB52D0
:1033C000D1402091E4023091E5024091E602509113
:1033D000E702C701B6010E94A11E9B01AC01C55DB9
:1033E000DE4F688179818A819B81CB52D1400E94D6
:1033F000B11F6B017C012091DC023091DD02409114
:10340000DE025091DF02C501B4010E94B01FCF5D02
:10341000DE4F288139814A815B81C152D1400E94AF
:103420001D202091D4023091D5024091D6025091B6
:10343000D7020E94A11E9B01AC01C701B6010E94E8
:10344000B11F6B017C0120E030E04FE753E40E94A4
:10345000C52018164CF0C092D002D092D102E09252
:10346000D202F092D3020CC080E090E0AFE7B3E468
:103470008093D0029093D102A093D202B093D30252
:1034800020E030E0A9016091D0027091D1028091DA
:10349000D2029091D3020E943B1E87FF08C0109277
:1034A000D0021092D1021092D2021092D3028092D6
:1034B000DC029092DD02A092DE02B092DF02CB5DD0
:1034C000DE4F88819981AA81BB81C552D14080930A
:1034D000F0029093F102A093F202B093F302609194
:1034E000D0027091D1028091D2029091D3020E94B9
:1034F0008F204B015C017B0161E089E00E94261274
:103500008114910411F460E005C09FEF89169104C5
:1035100029F461E089E00E94C2117DC0E3EEF2E08F
:10352000E4918E2F90E0FC013197EF30F10508F027
:103530006CC0EA5AFF4F0C94F12084B5806884BDBA
:1035400087BC69C084B5806284BD88BC64C080913A
:10355000800080688093800090928900809288002B
:103560005AC08091800080628093800090928B008E
:1035700080928A0050C08091800088608093800093
:1035800090928D0080928C0046C08091900080685F
:103590008093900090929900809298003CC0809116
:1035A000900080628093900090929B0080929A009D
:1035B00032C08091900088608093900090929D002E
:1035C00080929C0028C08091C00080688093C000D9
:1035D0008091C0008F7B8093C0008092CF001BC081
:1035E0008091C00080628093C0008092D00013C0A0
:1035F0008091C20088608093C2008091C2008B7F5E
:103600008093C2008092D20006C0A0E8EA16F104BE
:103610000CF07FCF78CF1092F8021092F90210923E
:10362000FA021092FB021092FD021092FC028091AD
:10363000FE029091FF028436910521F41092FF0260
:103640001092FE020E94AA02EAC9E8ECF3E013829B
:10365000128288EE93E0A0E0B0E084839583A68395
:10366000B78325E631E0318320832FEF3FEF3587A5
:103670002487E6E1F3E01382128284839583A68394
:10368000B78389E891E0918380838DEC90E0958702
:1036900084878CEC90E09787868788EC90E0918B0C
:1036A000808B89EC90E0938B828B8AEC90E0958BF9
:1036B000848B8EEC90E0978B868B118E128E138EFE
:1036C000148EA8E1B4E085EB91E011969C938E9363
:1036D00012961C92129713961C92139714961C9292
:1036E000149715961C92AEE1B4E011969C938E93BC
:1036F00012961C92129713961C92139714961C9272
:10370000149715961C92A3EBB3E01C921696FC93AB
:10371000EE93159717961C92179718961C92189768
:103720001A96FC93EE931997E4E2F4E09183808378
:103730001282138214821582EEEBF3E0138212825E
:103740008BE991E091838083B583A48383EB95E13A
:1037500097838683108611860895EF920F931F93A7
:10376000CF93DF93E80147FD02C034E001C034E1AC
:10377000042E000C550B57FF03C05195419551097C
:10378000E32E022F242FAE010E94F91BCE01DF9100
:10379000CF911F910F91EF900895FB01DC010590EF
:1037A0000D920020E1F70895BB274A3031F49923A8
:1037B00022F4BDE2909581959F4F0C94E01BBB27AE
:1037C000FB015527AA27880F991FAA1FA41710F0DD
:1037D000A41B83955051B9F7A05DAA3308F0A95DE9
:1037E000A193009779F7B111B1931192CB010C9489
:1037F0002B1EA9E0B0E0EFEFFBE10C94701F6A0113
:10380000122FB02E2BE3201720F0FF24F394F00E9C
:1038100002C02CE3F22E0F2D27E0AE014F5F5F4F69
:103820000E94531DBC014981842F8970813031F081
:10383000E1FC06C0E0FE06C090E205C09DE203C0C8
:103840009BE201C090E05E2D507143FF3CC091119E
:1038500002C083E001C084E0811718F4212F281BE7
:1038600001C020E051110BC0F601822F30E2882305
:1038700019F031938150FBCFC20ED11C20E0992367
:1038800029F0D6019C93F60131966F01C60103968B
:10389000E2FE0AC03EE4D6013C9341E411964C930B
:1038A000119712963C9306C03EE6F601308341E63E
:1038B00041833283FC01322F40E2332309F442C0BA
:1038C00041933150FACF42FF44C0911102C083E0CE
:1038D00001C084E0811718F4212F281B01C020E0CB
:1038E00051110BC0F601822F30E2882319F0319379
:1038F0008150FBCFC20ED11C20E0992329F0D601C4
:103900009C93F60131966F01C6010396E2FE0BC04F
:1039100039E4D6013C933EE411963C93119736E48A
:1039200012963C9307C039E6F60130833EE63183B8
:1039300036E63283FC01322F40E2332319F0419303
:103940003150FBCFFC01E20FF11D10828EEF9FEF93
:10395000A6C021E030E0911102C020E030E0161650
:1039600017061CF4FB01319602C0E1E0F0E02E0FD7
:103970003F1FBB2021F0EB2DF0E0319602C0E0E0CC
:10398000F0E02E0F3F1FE12FF0E02E173F071CF451
:10399000121B212F01C020E08E2D887159F4F601F1
:1039A000822F30E2882319F031938150FBCFC20E71
:1039B000D11C20E0992329F0D6019C93F601319681
:1039C0006F0151110BC0F601822F90E3882319F08B
:1039D00091938150FBCFC20ED11C20E00F2D060F1A
:1039E0009A81342F307144FF03C0913309F40150A0
:1039F000101624F4093018F008E001C001E0AB0112
:103A000077FF02C040E050E0FB01E41BF50BA1E0B2
:103A1000B0E0AC0FBD1FEA0FFB1F8EE2A82E4B01DA
:103A2000801A91080B2D10E01195019511094F3F57
:103A3000BFEF5B0721F4D601AC9211966D016417BC
:103A400075072CF08416950614F4818101C080E37B
:103A5000415051093196D60111967D014017510709
:103A600024F0D6018C936701E2CF6417750739F40F
:103A7000963320F4953319F4311101C081E3F60136
:103A80008083F701822F90E2882319F0919381506F
:103A9000FBCFF701E20FF11D108280E090E0299644
:103AA000ECE00C948C1F283008F027E03327DA0173
:103AB000990F311D87FD916000966105710539F4FC
:103AC00032602E5F3D9330E32A95E1F708959F3FE2
:103AD00030F080387105610509F03C5F3C5F3D9333
:103AE000913008F08068911DDF93CF931F930F935F
:103AF000FF92EF92192F987F9695E92F96959695BC
:103B0000E90FFF27EE5BFE4F99273327EE24FF24B2
:103B1000A701E70105900894079428F4360FE71EE3
:103B2000F81E491F511D660F771F881F991F0694A5
:103B3000A1F70590079428F4E70EF81E491F561FB9
:103B4000C11D770F881F991F661F0694A1F7059066
:103B5000079428F4F80E491F561FC71FD11D880F60
:103B6000991F661F771F0694A1F70590079420F40C
:103B7000490F561FC71FD81F990F661F771F881F31
:103B80000694A9F784911095177041F0D695C795C2
:103B900057954795F794E7941A95C1F7E8EEF0E04A
:103BA00068941590159135916591959105907FE2F6
:103BB0007395E118F10A430B560BC90BD009C0F7F6
:103BC000E10CF11E431F561FC91FD01D7EF4703338
:103BD00011F48A95E6CFE894015030F0080F0AF40A
:103BE0000027021708F4202F2395022F7A3328F09C
:103BF00079E37D932A95E9F710C07D932A9589F69C
:103C0000069497956795379517951794E118F10ADB
:103C1000430B560BC90BD00998F023957E917395F1
:103C20007A3308F070E37C932013B8F77E917061CB
:103C30007D9330F0839571E37D9370E32A95E1F7EE
:103C40001124EF90FF900F911F91CF91DF91992751
:103C500087FD90950895DC01FC01672F7191772312
:103C6000E1F7329704C07C916D9370836291AE1737
:103C7000BF07C8F308950E947D1E08F481E00895EF
:103C8000E89409C097FB3EF49095809570956195F6
:103C90007F4F8F4F9F4F9923A9F0F92F96E9BB27AC
:103CA0009395F695879577956795B795F111F8CF28
:103CB000FAF4BB0F11F460FF1BC06F5F7F4F8F4F93
:103CC0009F4F16C0882311F096E911C0772321F089
:103CD0009EE8872F762F05C0662371F096E8862F21
:103CE00070E060E02AF09A95660F771F881FDAF778
:103CF000880F9695879597F90895990F0008550FA5
:103D0000AA0BE0E8FEEF16161706E807F907C0F061
:103D100012161306E407F50798F0621B730B840B69
:103D2000950B39F40A2661F0232B242B252B21F443
:103D300008950A2609F4A140A6958FEF811D811DE3
:103D400008950E94B41E0C94251F0E94171F38F07E
:103D50000E941E1F20F0952311F00C940E1F0C944E
:103D6000141F11240C94591F0E94361F70F3959F45
:103D7000C1F3950F50E0551F629FF001729FBB2762
:103D8000F00DB11D639FAA27F00DB11DAA1F649FFE
:103D90006627B00DA11D661F829F2227B00DA11DB1
:103DA000621F739FB00DA11D621F839FA00D611D37
:103DB000221F749F3327A00D611D231F849F600D58
:103DC000211D822F762F6A2F11249F5750409AF081
:103DD000F1F088234AF0EE0FFF1FBB1F661F771F0D
:103DE000881F91505040A9F79E3F510580F00C94D8
:103DF0000E1F0C94591F5F3FE4F3983ED4F3869551
:103E000077956795B795F795E7959F5FC1F7FE2B77
:103E1000880F911D9695879597F9089597F99F6753
:103E200080E870E060E008959FEF80EC0895002442
:103E30000A941616170618060906089500240A940F
:103E400012161306140605060895092E0394000C95
:103E500011F4882352F0BB0F40F4BF2B11F460FF24
:103E600004C06F5F7F4F8F4F9F4F089557FD90584D
:103E7000440F551F59F05F3F71F04795880F97FB2E
:103E8000991F61F09F3F79F08795089512161306E8
:103E90001406551FF2CF4695F1DF08C01616170617
:103EA0001806991FF1CF869571056105089408954C
:103EB000E894BB2766277727CB0197F908950E94DE
:103EC000A11FA59F900DB49F900DA49F800D911DE3
:103ED000112408952F923F924F925F926F927F929A
:103EE0008F929F92AF92BF92CF92DF92EF92FF920A
:103EF0000F931F93CF93DF93CDB7DEB7CA1BDB0BB6
:103F00000FB6F894DEBF0FBECDBF09942A8839885A
:103F100048885F846E847D848C849B84AA84B98461
:103F2000C884DF80EE80FD800C811B81AA81B9816D
:103F3000CE0FD11D0FB6F894DEBF0FBECDBFED0181
:103F40000895A29FB001B39FC001A39F700D811D72
:103F50001124911DB29F700D811D1124911D089592
:103F60005058BB27AA270E94C81F0C94251F0E94E7
:103F7000171F38F00E941E1F20F039F49F3F19F4DC
:103F800026F40C94141F0EF4E095E7FB0C940E1F1E
:103F9000E92F0E94361F58F3BA1762077307840788
:103FA000950720F079F4A6F50C94581F0EF4E095CF
:103FB0000B2EBA2FA02D0B01B90190010C01CA01E3
:103FC000A0011124FF27591B99F0593F50F4503E8E
:103FD00068F11A16F040A22F232F342F4427585F80
:103FE000F3CF469537952795A795F0405395C9F798
:103FF0007EF41F16BA0B620B730B840BBAF0915050
:10400000A1F0FF0FBB1F661F771F881FC2F70EC0EE
:10401000BA0F621F731F841F48F4879577956795C1
:10402000B795F7959E3F08F0B0CF9395880F08F0AD
:104030009927EE0F9795879508950E9431200C944B
:10404000251F0E941E1F58F00E94171F40F029F4E0
:104050005F3F29F00C940E1F51110C94591F0C94C2
:10406000141F0E94361F68F39923B1F3552391F36F
:10407000951B550BBB27AA2762177307840738F0D7
:104080009F5F5F4F220F331F441FAA1FA9F335D034
:104090000E2E3AF0E0E832D091505040E695001CE8
:1040A000CAF72BD0FE2F29D0660F771F881FBB1FA2
:1040B000261737074807AB07B0E809F0BB0B802D80
:1040C000BF01FF2793585F4F3AF09E3F510578F0AC
:1040D0000C940E1F0C94591F5F3FE4F3983ED4F3E9
:1040E000869577956795B795F7959F5FC9F7880F80
:1040F000911D9695879597F90895E1E0660F771FD2
:10410000881FBB1F621773078407BA0720F0621B62
:10411000730B840BBA0BEE1F88F7E09508950E948D
:1041200096206894B1110C94591F08950E943E1F67
:1041300088F09F5798F0B92F9927B751B0F0E1F068
:10414000660F771F881F991F1AF0BA95C9F714C018
:10415000B13091F00E94581FB1E008950C94581F9F
:10416000672F782F8827B85F39F0B93FCCF3869551
:1041700077956795B395D9F73EF4909580957095AE
:1041800061957F4F8F4F9F4F08950E947D1E08F4C9
:104190008FEF08950E947D1E880B990B0895A1E270
:1041A0001A2EAA1BBB1BFD010DC0AA1FBB1FEE1FB1
:1041B000FF1FA217B307E407F50720F0A21BB30BFC
:1041C000E40BF50B661F771F881F991F1A9469F778
:1041D00060957095809590959B01AC01BD01CF01D4
:1041E0000895EE0FFF1F0590F491E02D09940F93B1
:1041F0001F93CF93DF938230910510F482E090E01B
:10420000E0913504F091360420E030E0A0E0B0E029
:10421000309719F140815181028113814817590764
:10422000C8F08417950769F4109731F012960C9333
:10423000129713961C9327C00093350410933604ED
:1042400022C02115310519F04217530718F49A01BD
:10425000BD01EF01DF01F801DBCF21153105F9F0D8
:10426000281B390B2430310580F48A819B8161152C
:10427000710521F0FB019383828304C0909336047F
:1042800080933504FE01329644C0FE01E20FF31F15
:104290008193919322503109398328833AC0209128
:1042A000330430913404232B41F420910E013091DA
:1042B0000F01309334042093330420910C0130918A
:1042C0000D012115310541F42DB73EB74091100184
:1042D00050911101241B350BE0913304F09134040B
:1042E000E217F307A0F42E1B3F0B2817390778F0CD
:1042F000AC014E5F5F4F2417350748F04E0F5F1F2C
:1043000050933404409333048193919302C0E0E0CE
:10431000F0E0CF01DF91CF911F910F910895CF93DE
:10432000DF93009709F481C0FC0132971382128257
:10433000A0913504B0913604109781F42081318129
:10434000820F931F209133043091340428173907CA
:1043500051F5F0933404E093330467C0ED0120E09D
:1043600030E0CE17DF0740F44A815B819E014115A2
:104370005105F1F0EA01F5CFD383C2834081518129
:10438000840F951FC817D90759F488819981840F24
:10439000951F0296918380838A819B819383828378
:1043A0002115310529F4F0933604E09335043DC01E
:1043B000E901FB83EA8349915991C40FD51FEC179A
:1043C000FD0761F480819181840F951F0296E901B8
:1043D00099838883828193819B838A83E0E0F0E0E4
:1043E00012968D919C911397009719F0FD01DC01B5
:1043F000F7CF8D919C9111979D012E5F3F4F820FBA
:10440000931F20913304309134042817390769F43D
:10441000309729F4109236041092350402C01382AA
:104420001282B0933404A0933304DF91CF910895A6
:10443000A0E0B0E0EEE1F2E20C946E1FEC01009718
:1044400021F4CB010E94F720B4C0FC01E60FF71F56
:104450009C0122503109E217F30708F4A8C0D901E2
:104460000D911C91119706171707B0F00530110533
:1044700008F49BC0C80104978617970708F495C0F5
:1044800002501109061B170B019311936D937C9336
:10449000CF010E948F2189C05B01A01AB10A4C0193
:1044A000800E911EA0913504B0913604612C712CC0
:1044B000E12CF12C109709F446C08D919C91119735
:1044C000A815B905B1F56C0142E0C40ED11CCA149F
:1044D000DB0478F14C018A189B08640142E0C40EA9
:1044E000D11C1296BC9012971396AC91B5E0CB16E6
:1044F000D10440F0B282A38391828082D9016D936E
:104500007C9309C00E5F1F4F800F911FF9019183AB
:104510008083EB2DFA2FE114F10431F0D7011396CB
:10452000FC93EE93129741C0F0933604E093350468
:104530003CC06816790608F43C017D0112960D9086
:10454000BC91A02DB7CF809133049091340488168C
:104550009906E1F466167706C8F480910C019091F3
:104560000D01009741F48DB79EB740911001509115
:104570001101841B950BE817F907C8F4F093340474
:10458000E0933304F901718360830FC0CB010E9473
:10459000F7207C01009759F0A801BE010E94E32298
:1045A000CE010E948F21C70104C0CE0102C080E06D
:1045B00090E0CDB7DEB7EEE00C948A1F81E090E08A
:1045C000F8940C94FC22FB01DC0102C001900D92D6
:1045D00041505040D8F70895FB01DC018D910190C6
:1045E00080190110D9F3990B0895FB01DC010190AA
:0C45F0000D920020E1F70895F894FFCF31
:1045FC00FFFFFFFF00E10000000000000000370497
:10460C0080005858585858585831303000C1808163
:10461C0000000000000000A801A801C202A801A827
:10462C0001A801A801A801A801A801A801A801A836
:10463C0001000000007F07EC02C202B40280036894
:10464C00032203B5049C063503A2071E07BE02B560
:10465C00020000000019089A083A082F0880083E4A
:10466C00085C0800000000A801AA01C202C102A84F
:10467C0001A801A801000000003C02AA01D4018895
:10468C00020502E301F701000000006607AA01C25F
:10469C0002C1021E0400000000A801AA01C202C14E
:1046AC0002000000007F057265616400485454509C
:1046BC002F312E3120323030204F4B00436F6E742F
:1046CC00656E742D547970653A20746578742F6812
:1046DC00746D6C00436F6E6E656374696F6E3A2017
:1046EC00636C6F7365000D0A003C21444F435459B1
:1046FC0050452048544D4C3E003C68746D6C3E3C1B
:10470C00626F64793E00736574706F696E742C20EF
:10471C00696E7075742C206572726F722C206F75B7
:10472C00747075742C20472C20746175492C20747E
:10473C00617544203C6272202F3E002C20003C2FDF
:10474C00626F64793E3C2F68746D6C3E00777269C1
:10475C007465004368616E676520746865207365D5
:10476C0074706F696E74004368616E67652074685D
:10477C0065206761696E004368616E6765207468C7
:10478C006520696E74656772616C004368616E6761
:10479C00652074686520646966666572656E746907
:1047AC00616C006E616E00696E66006F7666004427
:0447BC0000FE0000FB
:00000001FF
